:020000040800F2
:10000000C00C0020CD010008C10E0008950A0008B0
:10001000B90D000827050008BD1F000800000000FA
:10002000000000000000000000000000BD130008F8
:10003000AD05000800000000F1120008ED150008F1
:10004000E7010008E7010008E7010008E7010008F0
:10005000E7010008E7010008E7010008E7010008E0
:10006000E7010008E7010008E7010008E7010008D0
:10007000E7010008E7010008E7010008E7010008C0
:10008000E7010008E7010008E7010008E7010008B0
:10009000E7010008E7010008E70100082D06000855
:1000A000E701000891180008E7010008E7010008CF
:1000B0002D1A0008411A0008E7010008E7010008AE
:1000C000E7010008E7010008E7010008E701000870
:1000D000E7010008E7010008E7010008E701000860
:1000E000E7010008E7010008E7010008E701000850
:1000F000E7010008E7010008E7010008E701000840
:10010000E7010008E7010008E7010008E70100082F
:10011000E7010008E7010008E7010008E70100081F
:10012000E7010008E7010008E7010008E70100080F
:1001300000F002F800F03AF80AA090E8000C8244BF
:100140008344AAF10107DA4501D100F02FF8AFF29C
:10015000090EBAE80F0013F0010F18BFFB1A43F0A5
:1001600001031847FC4100001C420000103A24BF64
:1001700078C878C1FAD8520724BF30C830C144BF0C
:1001800004680C607047000000230024002500264E
:10019000103A28BF78C1FBD8520728BF30C148BFEA
:1001A0000B6070471FB51FBD10B510BD00F046F8BD
:1001B0001146FFF7F7FF02F01BFB00F064F803B4F1
:1001C000FFF7F2FF03BC02F0B9FA000009488047CC
:1001D00009480047FEE7FEE7FEE7FEE7FEE7FEE729
:1001E000FEE7FEE7FEE7FEE704480549054A064B41
:1001F00070470000F115000831010008C00600201A
:10020000C00C0020C0080020C008002070477047C4
:1002100070477047704710B500F008F8006810BDCF
:1002200010B5044600F002F8046010BD00487047A5
:100230006006002000487047600600207546FFF702
:10024000F9FFAE4605006946534620F00700854693
:1002500018B020B5FFF7C8FFBDE820404FF00006FA
:100260004FF000074FF000084FF0000B21F007019E
:10027000AC46ACE8C009ACE8C009ACE8C009ACE8E1
:10028000C0098D46704710B50446AFF30080204684
:10029000BDE81040FFF793BF21B1826842F0010230
:1002A000826003E0826822F00102826070470000F1
:1002B00010B504461248844208D10121401501F0CE
:1002C00045F80021601501F041F817E00D4884421F
:1002D00008D10121001501F039F80021201501F0A5
:1002E00035F80BE00848844208D10121C80301F029
:1002F0002DF800214FF4004001F028F810BD000057
:100300000024014000280140003C0140014600203B
:100310008A6802F004020AB1012000E00020704760
:100320000146C86C80B270470246002013680B403B
:100330000BB1012000E000207047014600208A68D0
:1003400002F008020AB1012000E00020704700001E
:1003500030B502460020002350680F4C20400D7934
:100360000C6844EA05242043506090680B4C204000
:10037000D1E902542C434D7944EA4504204390606E
:10038000D06A20F470000C7C641EE4B2234340EA7F
:100390000350D06230BD0000FFFEF0FFFDF7F1FF1B
:1003A000F0B504460D4600200021092D11DDE0685E
:1003B000A5F10A0606EB4607072606FA07F1884369
:1003C000A5F10A0606EB460603FA06F10843E060CB
:1003D0000CE0206905EB4507072606FA07F188437C
:1003E00005EB450603FA06F108432061072A0FDAF8
:1003F000606B561E06EB86071F2606FA07F1884338
:10040000561E06EB860605FA06F10843606322E0F5
:100410000D2A0FDA206BD61F06EB86071F2606FA79
:1004200007F18843D61F06EB860605FA06F1084356
:10043000206310E0E06AA2F10D0606EB86071F2696
:1004400006FA07F18843A2F10D0606EB860605FAC7
:1004500006F10843E062F0BD816841F00801816067
:10046000704721B1826842F4A002826003E0826892
:1004700022F4A00282607047816841F0040181602B
:100480007047000000B587B001214FF4027000F002
:100490004DFF002000F02EFF0220ADF804000020E8
:1004A0008DF8070001A9184800F01CFA1748FFF75B
:1004B000FFFE002002908DF80C008DF80D004FF427
:1004C000602004900020059001208DF8180002A9FA
:1004D0000E48FFF73DFF01210C48FFF7DDFE0B48FA
:1004E000FFF7BAFF00BF0948FFF727FF0028FAD13E
:1004F0000648FFF7C1FF00BF0448FFF707FF0028C9
:10050000FAD107B000BD0000000C014000240140FA
:1005100002688A4200DD01604B4202689A4201DAB9
:100520004A420260704700BFFEE7000010B500209D
:100530000949086001200949087000BF084800689F
:100540000028FBD1074800680028F7D1034908704C
:1005500000F022FC10BD00003C000020390000200B
:10056000040000200800002010B504464A20604323
:100570000A49086001200A4908700A4908700020E9
:100580000949087000BF084800780028FBD0002007
:1005900003490870FFF7CAFF10BD000044000020A7
:1005A0003A00002039000020380000207047000089
:1005B0002DE9F04104460D461646601B02F0D2FEBE
:1005C000154908600846006802F0B0FE804601F058
:1005D00043FD0746C82F07DD10490F48006802F0A9
:1005E0000DFF0F49086011E0052F0DDD0B490A488A
:1005F000006802F0CFFF03D20A480949086005E00D
:1006000009480749086001E001203070044800688B
:1006100002F08CFEBDE8F081800000200000A040C8
:100620008400002000004843000048C310B50420A7
:1006300002F0ACF80448006828B9202000F032F835
:1006400001200249087010BD14012142030000205E
:100650000EB500F0C1FA0121084600F067FE052141
:10066000002000F01FF92020019000208DF80800E4
:100670000C208DF8090001208DF80A0001A800F077
:1006800017F817208DF8000001208DF803000220D4
:100690008DF8010001208DF80200684600F012FC80
:1006A0000EBD0000014908607047000014040140BD
:1006B000002123498279002A3AD00A461268036849
:1006C0009A430B461A600A1D126803689A430B1D71
:1006D0001A60027911440A6803681A430A60184ACA
:1006E0000832126803689A43154B08331A601A1DC2
:1006F000126803689A43124B0C331A604279102A2D
:100700000ED11A1F126803681A430D4B08331A6082
:100710001A1D126803681A43094B0C331A600DE066
:100720000749427911440A6803681A430A6005E0E0
:10073000027911440A6803689A430A60704700000E
:100740000004014000B589B00121084600F0DEFD3B
:100750000121042000F0EAFD0320ADF8040004208C
:100760008DF8070001A9224800F0BCF81C208DF884
:10077000200001208DF823008DF8210003208DF842
:10078000220008A800F09EFB05A801F0FFFB002056
:10079000ADF814004FF6FF70ADF818000020ADF86A
:1007A0001A00ADF8160005A94FF0804001F09CFB3F
:1007B00000231A4603214FF0804001F07AF902A885
:1007C00001F0F8F90A20ADF8100002A9400701F085
:1007D0009BF90121880701F04BF90122114690078E
:1007E00001F0F1F90121880701F048F909B000BDD5
:1007F0000008014000B589B00121022000F086FD0B
:100800000121042000F092FDC020ADF80400042076
:100810008DF8070001A9214800F064F81D208DF82B
:10082000200001208DF823008DF8210003208DF891
:10083000220008A800F046FB05A801F0A7FB002055
:10084000ADF814004FF6FF70ADF818000020ADF8B9
:100850001A00ADF8160005A9114801F045FB002368
:100860001A4603210E4801F024F902A801F0A2F96A
:100870000A20ADF8100002A9094801F045F901214C
:10088000074801F0F5F801221146054801F09BF9EF
:100890000121034801F0F2F809B000BD0008014051
:1008A0000004004030B500228B071C0F0F2303FA11
:1008B00004F20B4B8C1053F824309343084C8D10EA
:1008C00044F8253023468C1053F824308C07240F2D
:1008D00000FA04F42343024C8D1044F8253030BD57
:1008E000080001402DE9F0410246002500260020C5
:1008F00000230024002791F803C00CF00F0591F8A5
:1009000003C00CF0100CBCF1000F03D091F802C032
:100910004CEA050591F800C0BCF1000F31D0146815
:1009200000202BE04FF0010C0CFA00F3B1F800C0EE
:100930000CEA03069E4220D183004FF00F0C0CFA04
:1009400003F7BC4305FA03FC4CEA040491F803C026
:10095000BCF1280F06D14FF0010C0CFA00FCC2F8D4
:1009600014C00AE091F803C0BCF1480F05D14FF064
:10097000010C0CFA00FCC2F810C0401C0828D1D3AE
:100980001460B1F800C0BCF1FF0F34DD54680020E2
:100990002EE000F1080C4FF0010808FA0CF3B1F852
:1009A00000C00CEA03069E4221D183004FF00F0CD9
:1009B0000CFA03F7BC4305FA03FC4CEA040491F873
:1009C00003C0BCF1280F05D100F1080C08FA0CF89F
:1009D000C2F8148091F803C0BCF1480F07D100F1B0
:1009E000080C4FF0010808FA0CF8C2F81080401CFF
:1009F0000828CED35460BDE8F08101617047000043
:100A000010B504460723012221460948FFF7C8FC18
:100A100001210748FFF725FD00BF02210448FFF729
:100A200083FC0028F9D00248FFF77AFC10BD0000D3
:100A3000002401402DE9F04F85B00920FFF7E0FFC9
:100A4000019002F0D1F94FF066320E4BCDE9020170
:100A500002F0DEF9804600220B4B02F0D9F906467F
:100A600000220A4B02F0D4F904460022084B02F09F
:100A70001DF8824602F072F90490049805B0BDE8B2
:100A8000F08F000066660A400000264000005940D2
:100A90000000B04000BFFEE72DE9F05F04460D46C0
:100AA000281B1A4908600846006802F05BFC834670
:100AB00017480168584602F0A1FC804613490968AE
:100AC000144A1268881A02F04DFC834612480168E5
:100AD000584602F093FC8146414602F0B9FB0746B6
:100AE0000E48006802F03EFC8246394602F0B0FB38
:100AF000064602F01BFC09490860044800680549E5
:100B0000086006480068BDE8F09F0000680000200B
:100B10002C00002070000020280000206C00002025
:100B20002DE9F05F04460D46281B1A490860084667
:100B3000006802F017FC834617480168584602F027
:100B40005DFC804613490968144A1268881A02F04D
:100B500009FC834612480168584602F04FFC814662
:100B6000414602F075FB07460E48006802F0FAFBAA
:100B70008246394602F06CFB064602F0D7FB094973
:100B80000860044800680549086006480068BDE838
:100B9000F09F0000740000202C0000207C0000204A
:100BA000280000207800002001464906084A926982
:100BB00042F00102064B9A61064A526822F0E06256
:100BC000044B5A601A4652680A435A607047000044
:100BD000001002400000014008B50121042000F08F
:100BE000A5FB48208DF803002020ADF8000003206D
:100BF0008DF8020069460448FFF774FE032103489C
:100C000001F054FE08BD0000000801404D0D000831
:100C10002DE9F04F8BB083468A46504602F0ECFA3D
:100C2000CDE9000101F060FE80464FF06042334B99
:100C300002F0EEF8064600224FF0804301F036FF46
:100C40004FF060422E4BCDE9020101F02FFF002250
:100C50002C4BCDE9040101F079FECDE9080158469D
:100C600002F0CAFACDE90601DDE9082302F0D0F866
:100C7000044602F073F824490860504602F0BCFABA
:100C8000CDE9000101F030FE4FF060421B4BCDE991
:100C9000020102F0BDF800224FF08043CDE90401CB
:100CA00001F004FF4FF06042154BCDE9060101F061
:100CB000FDFE06460022134B02F0A8F98046894645
:100CC000584602F099FA044642464B4602F0A0F814
:100CD000CDE9080102F042F80C4908600C49504681
:100CE00002F08CFB05460B4902F0B2FA044602F012
:100CF0001DFB094908600BB0BDE8F08FCEF7C33F7C
:100D0000F97EC23F0000F03F180000201C000020C8
:100D100033B31B440080BB441400002008B50121FC
:100D2000042000F003FB10208DF80300ADF8000054
:100D300003208DF8020069460348FFF7D3FD102118
:100D40000148FFF75AFE08BD0008014010B50446EF
:100D5000202C02D10520FFF707FC202010BD000049
:100D600018B90021094A11600FE009490968491CB6
:100D7000074A1160814208D104490968C943054AFC
:100D8000C2F890110021024A11607047900121427F
:100D90004C00002000002142002005490870054950
:100DA0000880091D0880091D0880091D08807047FA
:100DB000390000203408004000BFFEE730B589B09C
:100DC00005460C460121042000F0A0FA012108206C
:100DD00000F0ACFA18208DF807004FF47070ADF8F1
:100DE000040003208DF8060001A93348FFF77AFDBF
:100DF000ADF81C50ADF818400020ADF81A00ADF861
:100E00001E0006A92D4801F06FF86020ADF808001B
:100E10000120ADF80A000020ADF80E00ADF810007A
:100E200002A9264800F0D8FE6020ADF80800012095
:100E3000ADF80A000020ADF80E00ADF8100002A9D0
:100E40001E4800F01FFF6020ADF808000120ADF83B
:100E50000A000020ADF80E00ADF8100002A91748F6
:100E600000F070FF6020ADF808000120ADF80A0026
:100E70000020ADF80E00ADF8100002A90F4800F0F8
:100E8000BBFF08210D4800F0F3FE08210B4800F0DD
:100E90004BFF0821094800F0A5FF0821074800F092
:100EA000E9FF0121054800F0D7FD0121034800F0CA
:100EB000E5FD09B030BD0000000C01400008004015
:100EC0007047000070B5002100230F22C47804B3DE
:100ED000154C246804F4E064C4F5E064210AC1F10F
:100EE0000403CA40447804FA03F18478144021438F
:100EF00009010E4C0678A155047804F01F05012461
:100F0000AC4005786D11AD0005F1E025C5F8004154
:100F100009E0047804F01F050124AC40044D067874
:100F2000761145F8264070BD0CED00E000E400E0CD
:100F300080E100E002490143024A1160704700006D
:100F40000000FA050CED00E030B500240CE00025AF
:100F500006E00020074901EBC5010855681CC5B231
:100F6000802DF6DB601CC4B2082CF0DB00F0D0F85A
:100F700030BD0000D0000020F0B5144600267F28C8
:100F800001DC3F2900DDF0BD0B46CF1701EB5777A1
:100F9000FF10C7F10707FAB2CF1701EB5777FF1021
:100FA000A1EBC707FDB2C5F107070123BB40DEB2C5
:100FB0004CB10A4B03EBC0039B5C3343074F07EB79
:100FC000C007BB5408E0054B03EBC0039B5CB34375
:100FD000024F07EBC007BB5400BFD4E7D00000208E
:100FE00008B501210C2000F0A1F910208DF80300B4
:100FF0003820ADF8000002208DF802006946404814
:10100000FFF770FC10208DF80300C002ADF800005F
:1010100002208DF8020069463A48FFF763FC002081
:1010200039490860642001F0B1FB01203749C1F85B
:101030008C010021AE2000F02FF90021D52000F016
:101040002BF90021502000F027F90021A82000F002
:1010500023F900213F2000F01FF90021D32000F0E8
:101060001BF90021084600F017F90021402000F08C
:1010700013F900218D2000F00FF90021142000F059
:101080000BF90021202000F007F90021022000F0D8
:1010900003F90021A12000F0FFF80021C02000F09A
:1010A000FBF80021DA2000F0F7F80021122000F010
:1010B000F3F80021812000F0EFF80021EF2000F08C
:1010C000EBF80021D92000F0E7F80021F12000F032
:1010D000E3F80021DB2000F0DFF80021302000F0F1
:1010E000DBF80021A42000F0D7F80021A62000F0B2
:1010F000D3F80021AF2000F0CFF8FFF725FF08BD9F
:10110000000C0140000801408C81214200802142F6
:1011100030B500241CE004F1B001C8B2002100F099
:10112000BBF80021084600F0B7F80021102000F0BD
:10113000B3F8002508E0084901EBC501085D01216D
:1011400000F0AAF8681CC5B2802DF4DB601CC4B2A4
:10115000082CE0DB30BD0000D00000202DE9F04F6E
:1011600080460C4615461E46A346A5F12000C5B292
:1011700000273EE00C2E07D105EB45001F4901EB8F
:10118000800010F8079004E01D4800EB051010F8EF
:1011900007904FF0000A26E009F0800028B12146B0
:1011A0004046099AFFF7E8FE09E0099808B90120CE
:1011B00000E00020024621464046FFF7DDFE4FEAF0
:1011C00049604FEA1069601CC4B2A4EB0B00B04246
:1011D00005D15C4608F1010000F0FF0806E00AF1C5
:1011E000010000F0FF0ABAF1080FD5DB00BF781C40
:1011F000C7B2B742BEDBBDE8F08F0000D2370008AF
:10120000463C00082DE9FF4F81B0074691461E4637
:101210000E9D4FF0000A002439E0301B401EC1B281
:101220000A2001F011FBB9FBF0F00A21B0FBF1F24A
:1012300001FB1208BAF1000F16D1701EA04213DD97
:10124000B8F1000F0ED10120AB4605EBDB71491060
:1012500001FB04710090C8B22B4620220299FFF7CF
:101260007DFF12E04FF0010A0120AB4605EBDB7178
:10127000491001FB04710090C8B208F13001CAB2F4
:101280002B460299FFF76AFF00BF601CC4B2B4424C
:10129000C3DB05B0BDE8F08F10B50A461AB10123D3
:1012A000114C236002E000230F4C2360002114E066
:1012B00000230E4C236000F080031BB10123241F88
:1012C000236003E00023094C241F23600123074C03
:1012D00023604306180E4B1CD9B20829E8DB012312
:1012E000014C236010BD0000BC01214294812142C9
:1012F0007047000001460020034A506820F4404037
:1013000008435060704700000010024029B1064AAF
:10131000D2690243044BDA6104E0034AD269824392
:10132000014BDA61704700000010024029B1064A03
:1013300092690243044B9A6104E0034A9269824332
:10134000014B9A61704700000010024029B1064A23
:10135000D2680243044BDA6004E0034AD268824355
:10136000014BDA607047000000100240014602297C
:1013700004D003290BD0042917D10FE04FF080428D
:10138000928C10B200224FF080439A840FE0094AF9
:10139000128810B20022074B1A8008E0064A128811
:1013A00010B20022044B1A8001E0002000BF00BFF1
:1013B00070470000240400402408004070470000EB
:1013C00030B589B005460C460121C802FFF7AEFFD3
:1013D00001210420FFF7AAFF18208DF803004FF425
:1013E0000060ADF8000003208DF802006946244833
:1013F000FFF778FAADF81C50ADF818400020ADF8B2
:101400001A00ADF81E0006A91E4800F06DFD01226D
:1014100011461C4800F0D7FB19208DF8140001205C
:101420008DF817008DF815008DF8160005A8FFF748
:1014300049FD6020ADF804000120ADF80600002051
:10144000ADF80A00ADF80C0001A90E4800F0D4FC7C
:1014500008210C4800F00EFD01210A4800F01AFB9B
:101460000121084800F0F8FA40F2DC50054940310B
:1014700008800121034800F001FB09B030BD0000E5
:1014800000080140002C014010B500F001F810BD2B
:101490000CB50020019000903348006840F4803083
:1014A0003149086000BF3048006800F40030009007
:1014B0000198401C0190009818B90198B0F5A06FF0
:1014C000F1D12948006800F4003010B101200090EB
:1014D00001E0002000900098012843D123480068D3
:1014E00040F01000214908600846006820F0030021
:1014F00008600846006840F0020008601A4840682A
:10150000194948600846406848600846406840F409
:10151000806048600846406820F47C1048600846B7
:10152000406840F4E81048600846006840F0807069
:10153000086000BF0C48006800F000700028F9D077
:101540000948406820F003000749486008464068A1
:1015500040F00200486000BF0348406800F00C0003
:101560000828F9D10CBD0000001002400020024004
:1015700010B51B4B1B78022B05DB002800DA00207E
:10158000002900DA0021002808DA4FF4E153154C55
:10159000238000F5E153241D238008E04FF4E1533C
:1015A000104C241D2380C0F5E153241F2380002903
:1015B00009DA4FF4E1530B4C0834238001F5E15371
:1015C000241D238008E04FF4E153064C0C342380A3
:1015D000C1F5E153241F2380034C228010BD00007D
:1015E0000000002034080040402C014070470000FB
:1015F00010B51348006840F0010011490860084622
:101600004068104908400E494860084600680E4985
:1016100008400B4908600846006820F480200860F4
:101620000846406820F4FE0048604FF41F008860C0
:10163000FFF72AFF4FF000600449086010BD00006A
:10164000001002400000FFF8FFFFF6FE08ED00E08A
:10165000F0B50C46154600220021068C4FF6FE77A9
:101660003E400684028B018C4FF60C7632407E1C85
:1016700006EA03162E433243104EB0420ED0104EEF
:10168000B0420BD0B0F1804F08D00E4EB04205D022
:101690000D4EB04202D00D4EB04206D14FF6FD764F
:1016A000314044F00106314305E04FF6F576314014
:1016B00044F00106314302830184F0BD002C014057
:1016C000003401400004004000080040000C0040CD
:1016D000F0B50C461546002200210026078C4FF677
:1016E000EF7C07EA0C070784028B018C4FF6FF772B
:1016F00007EA041640F6FF473A404FF6FF7707EA3D
:1017000003373A434FF6FF7707EA05273A43114F6D
:10171000B8420ED0104FB8420BD0B0F1804F08D075
:101720000E4FB84205D00E4FB84202D00D4FB8420E
:1017300006D14FF6DF77394046F01007394305E010
:101740004FF65F77394044F0100739430283018434
:10175000F0BD0000002C01400034014000040040B6
:1017600000080040000C0040F0B50C461546002271
:1017700000210026078C4FF6FF6C07EA0C07078450
:10178000828B018C4FF6FF7707EA04264FF60C7721
:101790003A404FF6FF7707EA03172F433A43114FBA
:1017A000B8420ED0104FB8420BD0B0F1804F08D0E5
:1017B0000E4FB84205D00E4FB84202D00D4FB8427E
:1017C00006D14FF6FF57394046F48077394305E09C
:1017D0004FF2FF57394044F48077394382830184C4
:1017E000F0BD0000002C0140003401400004004026
:1017F00000080040000C0040F0B50C4615460022E1
:1018000000210026078C4EF6FF7C07EA0C070784B0
:10181000828B018C4FF6FF7707EA043640F6FF47CC
:101820003A404FF6FF7707EA05273A434FF6FF772E
:1018300007EA03373A43114FB8420ED0104FB8426F
:101840000BD0B0F1804F08D00E4FB84205D00E4FEC
:10185000B84202D00D4FB84206D14DF6FF7739405D
:1018600046F48057394305E047F6FF57394044F4C2
:101870008057394382830184F0BD0000002C014071
:10188000003401400004004000080040000C00400B
:1018900010B500F057FF044601214E4800F02AF928
:1018A00001287DD101214B4800F0E5F8204600F0E9
:1018B0008BFF49480078012858D148480078012812
:1018C0000CD1474A474920680968FEF771FE46492E
:1018D000086041F658314448FEF71AFE4348007844
:1018E00001280BD142480078401CC0B24049087022
:1018F000052803D1002008703C4908700220FFF73A
:1019000035FD3C4908600320FFF730FD40423A496D
:1019100008603A4801683A480068FFF779F93948A1
:10192000006800F03DFBD0B93748016831480068D5
:10193000FFF7B2F835490860354801682E4800685D
:10194000FFF7EEF83349086000F03AFB32480268CE
:10195000304801682D480068FFF70AFE08E040F2B1
:10196000DC5200210846FFF703FE01E0FFF714FAFE
:10197000FFF760F82949086029480068401C284999
:101980000860284800682549096808442549086016
:101990002348006864280DD108460068642100E0EF
:1019A00016E090FBF1F01749086000201D4908601F
:1019B0001B4908601C48007818B96420FFF7D0F96B
:1019C00006E019480078012802D10020FFF7C8F985
:1019D00010BD0000002C0140390000203A0000201A
:1019E00038000020440000203C000020250000209A
:1019F0002400002004000020080000203400002003
:101A00003000002020000020180000200C000020E2
:101A10001C000020100000201400002054000020B2
:101A2000580000205C0000200100002010B50121BA
:101A3000880700F05FF80121880700F01CF810BD4E
:101A400010B50121034800F055F80121014800F0CC
:101A500012F810BD0004004021B1028842F080025B
:101A6000028004E002884FF67F731A4002807047BC
:101A7000CA4302827047CA430282704721B102887A
:101A800042F00102028004E002884FF6FE731A4021
:101A90000280704731B1B0F8442042F40042A0F80F
:101AA000442005E0B0F84420C2F30E02A0F8442020
:101AB0007047F0B50C4615461E4600210022002353
:101AC0000189028B038C4FF6F877394021434FF69A
:101AD000FC473A4040F201173A434FF6DD773B406E
:101AE0004FF6FF7707EA06172F433B430181028336
:101AF0000384F0BD02460020138A0B400BB1012085
:101B000000E000207047000070B505460C462448F0
:101B100085420ED0234885420BD0B5F1804F08D0C6
:101B20002148854205D02148854202D0204885427F
:101B300000D100E000BF208850B92389A2886188C5
:101B40002846FFF785FDE188284600F0A0F925E04A
:101B5000208804280AD12389A28861882846FFF7B3
:101B6000B7FDE188284600F09BF917E02088082897
:101B70000AD12389A28861882846FFF7F5FDE1880C
:101B8000284600F09AF909E02389A288618828464E
:101B9000FFF732FEE188284600F098F970BD00009A
:101BA000002C0140003401400004004000080040C7
:101BB000000C004000210180418001218180002132
:101BC000C180018170471AB183890B43838102E090
:101BD00083898B438381704770B5002400220023E2
:101BE000058C4FF6FE7635400584028C8388048B85
:101BF0004FF68F752C40B51E2C400D882C43751E5A
:101C00002A400D892A434D882A43144DA8420BD0FF
:101C1000134DA84208D0134DA84205D0124DA8423A
:101C200002D0124DA84213D14FF6F7752A404D89C4
:101C30002A434FF6FB752A408D882A434FF6FF65ED
:101C40002B404FF6FF552B408D892B43CD892B43DD
:101C500083800483CD888586028470BD002C01407A
:101C60000034014000400140004401400048014070
:101C70000A460021018B4FF6F77319401143018387
:101C80007047000070B5002400220023058C4FF639
:101C9000EF7635400584028C8388048B48F6FF7507
:101CA0002C404FF6FF452C400D884FF6FF7606EA94
:101CB00005252C434FF6DF752A400D8906EA0515E8
:101CC0002A434D8806EA05152A43154DA84202D03D
:101CD000144DA8421DD14FF67F752A404D894FF60D
:101CE000FF7606EA05152A434FF6BF752A408D8810
:101CF00006EA05152A434FF6FF352B404FF2FF75D4
:101D00002B408D8906EA85052B43CD8906EA85059A
:101D10002B4383800483CD880587028470BD000037
:101D2000002C0140003401400A460021018B4FF293
:101D3000FF7319404FF6FF7303EA0223194301832F
:101D40007047000070B5002400220023058C4FF678
:101D5000FF6635400584028C8388848B4FF68F752F
:101D60002C404FF6FC752C400D882C434FF6FF5548
:101D70002A400D894FF6FF7606EA05252A434D884D
:101D800006EA05252A43154DA84202D0144DA84263
:101D90001DD14FF2FF752A404D894FF6FF7606EAB6
:101DA00005252A434FF6FF352A408D8806EA05258A
:101DB0002A434EF6FF752B404DF6FF752B408D895B
:101DC00006EA05152B43CD8906EA05152B438380CA
:101DD0008483CD888587028470BD0000002C01407B
:101DE000003401400A460021818B4FF6F7731940F9
:101DF000114381837047000070B500220023002446
:101E0000058C4EF6FF7635400584038C8488828BE2
:101E100048F6FF752A404FF6FF452A400D884FF6D9
:101E2000FF7606EA05252A434DF6FF752B400D89FE
:101E300006EA05352B434D8806EA05352B430B4D45
:101E4000A84202D00A4DA84208D14BF6FF752C409B
:101E50008D894FF6FF7606EA85152C4384808283B0
:101E6000CD88A0F84050038470BD0000002C0140D4
:101E7000003401400A460021818B4FF2FF73194064
:101E80004FF6FF7303EA0223194381837047028BE5
:101E90004FF6F3731A400283028B0A4302837047A2
:101EA000028B4FF2FF331A400283028B4FF6FF730F
:101EB00003EA01231A4302837047828B4FF6F373C0
:101EC0001A408283828B0A4382837047828B4FF24F
:101ED000FF331A408283828B4FF6FF7303EA01239C
:101EE0001A43828370470000002202881D4B9842EB
:101EF0000ED01D4B98420BD0B0F1804F08D01B4B39
:101F0000984205D01A4B984202D01A4B984204D1FD
:101F10004FF68F731A404B881A43174B984207D0DD
:101F2000164B984204D04FF6FF431A40CB881A4311
:101F300002808B8883850B8803850A4B98420BD0DF
:101F4000094B984208D00E4B984205D00D4B984251
:101F500002D00D4B984201D10B7A03860123838274
:101F600070470000002C0140003401400004004094
:101F700000080040000C0040001000400014004029
:101F80000040014000440140004801404FF6FF710D
:101F9000818000210180C180418001727047000072
:101FA0000146B1F5397F03DB034A1278012A01D1DA
:101FB000012000E0002070470200002000BFFEE783
:101FC00041F6F420174909684242914202DA41423F
:101FD000144A116013490968814201DD1149086002
:101FE000114909684242914202DA41420E4A1160A7
:101FF0000D490968814201DD0B4908600B490968F8
:10200000B1F57A7F03DA4FF47A71084A1160074913
:102010000968B1F5FA6F03DD4FF4FA61034A116004
:10202000704700000C000020100000201400002069
:10203000490050EAC12018BF04204A0D18BF40F0E3
:10204000010040F2FF72B2EB515F08BF40F00200A6
:10205000012808BF052070470146002901DD084618
:1020600070474842FCE700002DE9F74F144694B052
:102070000021C4E902111599079121F00045C949D1
:102080008D4206DC1599C4E9000117B00020BDE8B7
:10209000F08FC549DFF814A3A9423CDD0799C44E6F
:1020A0000029C44FC44A1599534619DD00F0BAFF00
:1020B000554506D0C14AC24B00F0B4FFC4E9000147
:1020C0000AE04FF0D352BE4B00F0ACFF32463B4625
:1020D00000F0A8FFC4E9000117B00120BDE8F08FAF
:1020E00000F034FC554506D0B44AB54B00F02EFC48
:1020F000C4E900010AE04FF0D352B14B00F026FCD6
:1021000032463B4600F022FCC4E9000117B04FF014
:10211000FF30BDE8F08FAB49A942159978DB21F07B
:10212000004183468846A84AA84B00F071FE002271
:10213000A74B00F00BFC00F011FE099000F03DFEF3
:1021400006460F469C4A534600F062FE43465A46F6
:1021500000F05CFF80468A46984A994B30463946E3
:1021600000F056FE2A0D01250B924246534600F020
:102170004DFF032DC4E9000139D00B98C1F30A517A
:10218000401A05EB45111139814230DA9148C346B6
:10219000784400EB0510CDF80CA00C90D0E900239A
:1021A0003046394600F034FE02460B460491069054
:1021B0005846039900F036FF80468A4602460B4691
:1021C0005846039900F02EFF049B069A00F02AFF60
:1021D00083460C9803913946D0E90223304600F03B
:1021E00017FE5A46039B00F01DFF6D1CBDE70798C4
:1021F0000028A2BF099817B0BDE8F08F616881F090
:1022000000416160099817B04042BDE8F08FFFE7D8
:1022100084461598C1F31301C0F30A50A0F2F530BB
:102220004FEA601800F01F06C6F12000139000204E
:102230000690079041F4801E05206D4676B1664AEF
:1022400008EB00017A4452F8213002EB8101B340DF
:102250004A68139922FA01F1194305E05F4908EB36
:102260000002794451F82210A1FB0E27A1FB0C13A8
:102270001A449A4234BF0123002303EB070A05EBFB
:102280008003D3E901B70F448F4234BF01210021FD
:1022900093448B4411B1934502D903E0934501D295
:1022A000012100E00021C3E901B7514445F82010A5
:1022B000011EA0F10100C1DC0298059F00F1005051
:1022C000800F12900298DDE90356800000F075FD42
:1022D000834628460D9100F087FD6FF01D0201F046
:1022E00032FACDE90E01304600F07EFD6FF03D027E
:1022F00001F029FA80468A46384600F075FD6FF0F5
:102300005D0201F020FA074642465346119100F063
:102310001DFBDDE90E2300F019FB5A460D9B00F072
:1023200015FB00250E465A4628460D9B00F07AFE06
:10233000DDE90E2300F076FE4246534600F072FEC1
:102340003A46119B00F062FEDFF898A0244A5346FB
:1023500000F05EFD07468846234A244B3146284656
:1023600000F056FD3A46434600F0F0FA074688462C
:102370004FF0A84253463146284600F049FD3A4600
:10238000434600F0E3FA159A12F0004F04D0129A77
:1023900081F0004152421292C4E90001129817B034
:1023A000BDE8F08FFB21E93F7CD90240FB21F93FDA
:1023B0007370032E8A19A33B000040543163621AE4
:1023C00061B4D03DFB21394183C8C96D305FE43F22
:1023D0000000E03FA42000002020000002200000B8
:1023E000182D4454FB21F93D3326A611460B113C10
:1023F0002DE9F0414F1E00EBC7010446D1E9000171
:1024000015461E4637F006020DD02A46334600F028
:10241000FFFC7F1E04EBC703D3E9002300F096FA0C
:1024200037F00602F1D1022F25D0042F13D0062F4A
:1024300018BFBDE8F0812A46334600F0E9FCD4E934
:102440000A2300F083FA2A46334600F0E1FCD4E97F
:10245000082300F07BFA2A46334600F0D9FCD4E981
:10246000062300F073FA2A46334600F0D1FCD4E983
:10247000042300F06BFA2A46334600F0C9FCD4E985
:10248000022300F063FA2A46334600F0C1FCD4E987
:102490000023BDE8F04100F059BA00002DE9F04DED
:1024A00004468CB0904821F00047164698460D46E9
:1024B0000991874206DA2046294600F04FFC0028A1
:1024C00000F0AE808948B8421CDC09980028BCBFE7
:1024D00085F0004588F00048854A864B204629460D
:1024E00000F094FD04460D46324643468248834937
:1024F00000F098FD22462B4600F028FA00260446FC
:102500000D46B04622462B461046194600F080FC88
:102510008B46824602460B4600F07AFC0246089043
:1025200077480B46009106217844FFF761FFCDE91B
:102530000310744806217844009B089AFFF758FF5F
:1025400052465B4600F064FCCDE9051052465B46FE
:102550002046294600F05CFC07910090DDE903105D
:10256000DDE9053200F0F2F9079B009A00F050FC1B
:102570003246434600F0EAF952465B4600F048FC1A
:102580003246434600F0E2F980460E465E4A5F4B13
:102590000799009800F03CFC4246334600F0D6F91B
:1025A00082468B4622462B4600F0D0F980464F48A3
:1025B0000E46B84214985BDC00F0FFFB074642462B
:1025C0003346059100F0C2F9CDE901104246334689
:1025D0001046194600F01CFCDDE9013200F066FAF5
:1025E00052465B4600F01EFD22462B4600F00EFDD3
:1025F000012201F0A8F83A46059B00F007FD0446C9
:102600000D460998022101EAA070C0F1010000F016
:10261000D4FB0CB022462B46BDE8F04D00F0F8BBD1
:102620001498401C384320430BD01498012812D032
:102630000CB022462B46BDE8F04D0020344900F096
:1026400035BA0CB025F000432246BDE8F04D00201D
:10265000304900F02BBA20462946FFF7E9FC042850
:1026600008BF00F063F820460CB02946BDE8F08DA5
:10267000012802BF40460CB0BDE8F08D00270B4694
:102680003A462046294600F0C1FC52465B4600F01F
:10269000BDFC04460D464246334600201C4900F06E
:1026A00005FA83463A4688463346104600F0B0FBAA
:1026B0000022184B00F04AF906468A4622462B466D
:1026C0003846414600F0A4FB3246534600F03EF93E
:1026D0005A46434600F09CFB0CB03A464346BDE8E0
:1026E000F04D00F033B900000000303E2894E53F83
:1026F000182D4454FB21E93F075C143326A6813C86
:10270000D41D0000F61D0000635555555555D53FA5
:102710000000F0BF0000F03F012201F014B80022D9
:1027200013461046114600F0C1B90000024A0020CD
:10273000110701F008B8000001FDFFFF014600BFCE
:1027400070470000004870478C0000204FF0E021E7
:10275000096921F004014FF0E0221161C21700EB7A
:102760005272C2F3C702074B1A701946097801EB7F
:102770004102C2EBC1114FF6FF7202EAC101024AE7
:1027800011807047480000204A00002001460D4A91
:1027900012884A434FF0E0235A6100229A610122D5
:1027A0001A6100BF4FF0E022106900F001021AB177
:1027B00000F48032002AF5D000224FF0E0231A61A5
:1027C0009A6170474A0000200146084A128812B2F6
:1027D0000A60D1E90023D21A8A60D1E90223D21A11
:1027E0000A610A684A608A68CA6070472404004027
:1027F0004FF4A060FEF79EFB4820FFF7A7FF0220E2
:10280000FEF7D2F9FEF78AFAFEF7E6F9FEF7E8FBE3
:10281000FDF798FFFDF7EEFFFDF71AFFFDF732FE1B
:10282000472142F20F70FEF7CBFD002141F61F4019
:10283000FEF7C4FA04E00348007808B900F00FF886
:10284000F9E700000100002010B50246012000E079
:1028500050430B1EA1F10104E1B2F9D110BD38B50E
:10286000FFF770FF04461020009005230021084662
:102870002268FEF7C7FC1020009005230A210020E3
:10288000A268FEF7BFFC1020009005231421002051
:102890002269FEF7B7FC0C20009005231E215F2063
:1028A000A269FEF7AFFCFEF733FC38BD10B5024657
:1028B000002010E00A4B53F830305BB9084B43F866
:1028C000302003EBC0035960064B1B785B1C054CA2
:1028D000237010BD401C3228ECDB00BFF9E700007C
:1028E000D00400208800002010B5164B21F00042D3
:1028F000012486B09A4203DC0022134600941CE0B7
:10290000114B9A4208D140B94FF00100FDF788FC05
:10291000FFF705FF06B010BD03DBFFF7FDFE06B0B5
:1029200010BD02AAFFF7A0FB00F00100A4EB4000DD
:102930000DF1080C00909CE80F00FFF7AFFD06B00A
:1029400010BD0000FB21E93F0000F07F10B591EAC7
:10295000030F48BF83F0004300F16C83841A71EBCE
:10296000030C05D2121943EB0C03001B61EB0C01A5
:10297000DFF824E14FEA1154A4EB135C1EEA430F85
:1029800018BF9EEA445F73D023EA0E03DCF1200EE9
:1029900021EA045143F4801332D322FA0CFE10EBE7
:1029A0000E0023FA0CFE41EB0E01CCF1200E03FACF
:1029B0000EFE10EB0E0051F10001B1F5801FCCF1BD
:1029C000200E32D201EB045112FA0EF2BDE8104093
:1029D00058BF7047401C38BF5FEA420218BF7047BB
:1029E000002814BF20F0010041F100014FEA41032B
:1029F00013F5001F38BF7047A1F1C04100F000BBC4
:102A0000012A43EB0302ACF1200CDCF11F0E32BFB4
:102A10004FF0000E23FA0CF310EB030041EB0451CE
:102A2000B4EB115FD0D0A1EB045101F5801149083E
:102A30005FEA300001EB04510ED350F1000038BFC3
:102A400012FA0EFE08D1BDE81040C9E7401C38BF9D
:102A50005FEA4202CAD1C3E7BDE810404FEA410332
:102A600013F5001F38BF7047A1F1C04100F0C8BA8C
:102A70009EEA445F08D011EA5E0FBDE8104004BF33
:102A800001F0004100207047BDE8104070B500F033
:102A900069FA00BF64FBBE3E0000E0FF02494FF050
:102AA000000000F01EBE00BF0000F87F2DE9C0410D
:102AB00030B4DFF8A0C23CEA111418BF3CEA13148A
:102AC00000F0EC8081EA03051CEA111444EAD57495
:102AD00018BF1CEA131500F0C780A4EB05044FF0E3
:102AE000004545EAC12145EAC32341EA505143EA82
:102AF000525304F17F74994204F500344FEAC02028
:102B00004FEAC22208BF904200F09C804FEA136552
:102B10000FF24016765D4FEA134506FB05F7C7F145
:102B2000807706FB07F74FEAD737A7FB03687642A3
:102B3000C8F58038A7FB06CE38BFA8F1010807FB0F
:102B400008E64FF0000EA6FB028CE6FB03CEDCF19C
:102B5000000CCEF1004E38BFAEF1010EA6FB0C58B2
:102B60004FF000074FF00005E6FB0E87A1FB08C6FB
:102B7000A0FB07CE16EB0E0645F10005E1FB07654D
:102B800015F1E04E7EBFA4F580345FEA46066D4144
:102B900016F1800745F100054FEA17274FEA066650
:102BA00047EA0567A6F1DE46B6F1805F4FEA1525D4
:102BB0001FD9384624F0010C05EBC471BCF1FE6F3F
:102BC00001EB0C1102D8F0BCBDE8008124425CBFCF
:102BD00001F5801E9EEAC47F02D4F0BCBDE80081EE
:102BE000244238D4F0BCA1F1C041BDE8004100F05E
:102BF00007BA4FEAD22242EA43524FEAD323A7FB55
:102C000002864FEAD02040EA415007FB03661EEAE5
:102C10000E0F4FEAD12105FB026658BFA6EB005606
:102C2000B6EB00564FEA520E4EEAC37E18EB0E0E7C
:102C300056EB530EBDD518EB02085E417F1C55F1D3
:102C40000005B6E74FF480154FF000074FF000067F
:102C50004FF00008ADE7F0BC4FF0000001F1C041BB
:102C600001F00041BDE8008111EA0C1F0CEA1315C8
:102C700000D00CE013EA0C1F00F025804FF000009C
:102C8000F0BC81EA030101F00041BDE80081F0BC25
:102C9000BDE8004181EA030100F0B2B9F0BCBDE833
:102CA000004170B500F05EF9097EFC3E00F007B807
:102CB00081EA03014FF0000001F00041704781EA12
:102CC000030100F09DB9F0BCBDE800414FF00000E9
:102CD00021497047FFFDFBF9F7F5F4F2F0EEEDEB5B
:102CE000E9E8E6E4E3E1E0DEDDDBDAD8D7D5D4D30A
:102CF000D1D0CFCDCCCBCAC8C7C6C5C4C2C1C0BF56
:102D0000BEBDBCBBBAB9B8B7B6B5B4B3B2B1B0AF5B
:102D1000AEADACABAAA9A8A8A7A6A5A4A3A3A2A13F
:102D2000A09F9F9E9D9C9C9B9A99999897979695FA
:102D300095949393929191908F8F8E8E8D8C8C8B96
:102D40008B8A89898888878786858584848383821E
:102D5000828181800000FF070000F87F4FEA410375
:102D60004FEA5353A3F58063D3F11E03C8BFD3F1D9
:102D7000210C0CDD4FF0004242EAC12242EA5052DF
:102D800032FA03FC8CEAE17CACEBE1707047102B6B
:102D9000C4BF0020704703F5787CBCF1FF3F04D02E
:102DA0006FF0004282EA2100704770B500F0DAF857
:102DB0004992248000207047F2E710F0004248BF9B
:102DC0004042B0FA80F310FA03F10AD0C3F11D03B8
:102DD00003F580634FEA415002EB035202EBD1212D
:102DE00070474FF000007047B0FA80F310FA03F11B
:102DF0000AD0C3F11D0303F580634FEA41504FEA47
:102E0000035202EBD12170474FF0000070470000E1
:102E1000DFF848C170B51CEA111E1EBF1CEA13156D
:102E20009EEA0C0F95EA0C0F00F06F8081EA030414
:102E300023EA4C134EEAD47E21EA4C1141F480116E
:102E400043F48013AE44A1FB024CA0FB0365AEF13A
:102E50007F7E361955EB0C05A1FB034C4CF10003AA
:102E6000A0FB021C16EB0C06654153F1000309425E
:102E700018BF46F0010613F4007F0BD14FEA03316F
:102E80004FEA0530340341EA155140EA16506FF01D
:102E900003020AE04FEAC3214FEAC520F40241EAE7
:102EA000555140EA56506FF0020202EB2E4201EB00
:102EB000025585EACE710AD05FEA440C18BF24F0AF
:102EC000004450F1000041F1000120EAD47040F2CA
:102ED000FE7C624500D270BDA84214BF4FF0804412
:102EE0004FF04044002E08BF0024BEF1806FA8BF01
:102EF000A1F1C041BDE8704080F282804FF0000037
:102F000001F1C04101F0004170479EEA0C0F0CEA4C
:102F1000131518BF95EA0C0F06D04FF0000081EA98
:102F2000030E0EF0004170BD00F01CF88900013E58
:102F300000F007B800F009B84FEA430C5FEA5C5CA8
:102F400008D081EA030100F05BB84FEA410C5FEA68
:102F50005C5CF6D14FF00000014970470000FF07AC
:102F60000000F87F0EF1020E2EF0030E5EF8046BE7
:102F7000364205D4012A43EB030515F5001F12D88C
:102F8000012841EB010C1CF5001F0CD80ED14FEAB3
:102F9000D17C15F5001F0CEB4C0C0CF1020C08BF9A
:102FA0004CEBD37C04E04FF0080C01E04FEAD37CFB
:102FB0000CEB4C0526FA05F606F00706B6F1040CF4
:102FC00006D20EEB860CBDE870404CF0010C604759
:102FD000DFE80CF0090B02024FF000414FF0000057
:102FE000A1F5002170BD19461046012851EB0104DE
:102FF00018BFD4F5001484BF002001F0004170BD5B
:103000000808A0F500114FEA3101704791EA030F5B
:1030100010B581F000413FF5A1AC83F0004300F012
:1030200009B8000010B591EA030F48BF83F00043D0
:103030003FF594AC841A71EB030C07D212198CF093
:10304000004C43EB0C03001B61EB0C01DFF8A4E127
:103050004FEA1154A4EB135C1EEA430F18BF9EEA1B
:10306000445F00F0B08023EA6E03524221EA04512B
:10307000C3EB6E0338BF5B1EDCF1200E25D322FAB2
:103080000CFE10EB0E0043FA0CFE41EB0E01CCF1EE
:10309000200E03FA0EFE10EB0E0051F10001CCF1F0
:1030A000200E29D412FA0EF201EB0451BDE81040B3
:1030B00058BF7047401C1CBFB2F1004F704700283A
:1030C0000CBF491C20F00100704712EB020E43EBCD
:1030D000030218BF4FF0010E4EEA4202ACF1200C81
:1030E000DCF11E0E54D943FA0CFE10EB0E0051F128
:1030F000FF31CCF11E0ED5D50EF1010E12FA0EFEE7
:10310000404141EB010101EB445C5FEA5C5C10D99A
:1031100010EBDE7001EB045138BFBEF1004FBDE88B
:10312000104018BF704700280CBF491C20F0010058
:10313000704730D24FEAD42C11F5001124F400640A
:103140001BD0B1FA81F20B3AA41AA41ED2F12003CB
:10315000914030FA03F31943904001EBCC71002CFD
:1031600001EB0451BDE81040A8BF704701F1C04118
:103170004FF0000001F000417047B0FA80F310FA00
:1031800003F100D110BDE41A173C4805C90AE4E771
:1031900001EB045110BD491001EB0451BDE8104092
:1031A0004FEA300002E04FF0000170474A0008BFCC
:1031B0000042F8D0B2F5001F28BF704701F000416F
:1031C0004FF0000070479EEA445F07D011EA5E0F9F
:1031D000BDE8104004BF002100207047BDE810404A
:1031E00070B5FFF7BFFE00BF40DFF63E83F0004141
:1031F000104670470000E0FF43004FEAD30C4FEA4F
:103200003C0C43401FBF40070CF1605113F0FE4FD0
:1032100070471CF0006F03D100200CF00041704794
:103220000CF0004343EA507010B540EACC0000F0C7
:1032300066F900BF000000924FEA0001FFF7E0BE10
:103240004FF000414FF00000A1F500217047000051
:1032500090EA010F48BF81F0004100F1D481421A89
:103260003CBF801A89184FEAD0524FF07F4C1CEABD
:10327000410FA2EBD15318BF9CEA026F00F03B80D4
:103280004FF0004C4CEA00204CEA012121FA03FCEB
:1032900010EB0C0C1ED202F1FF325FEA1C2040EB57
:1032A000C25038BF70471CF07F0F4FEA400C18BF68
:1032B000BCF17F4F38BF7047C3F12003994008BF6E
:1032C00020F00100BCF17F4F38BF7047A0F1C04033
:1032D00000F05BB94FEA3C00000A40EBC25028BF47
:1032E0001CF0FF0F4FEA400CE6D018BFBCF17F4F37
:1032F00038BF7047EAE79CEA026F05D010EA5C0F1E
:1033000008BF00F00040704710B500F0F8F800BFAB
:1033100064FBBE3E401058BFC0F14040491058BF4A
:10332000C1F140418142EFF30080704741000B0E34
:10333000D3F19E0208D950F400034FEA032323FA85
:1033400002F048BF4042704710B500F0D8F800BF07
:1033500049922480002070476FF0004282EA2000EA
:103360007047000010F0004148BF4042B0FA80F3BF
:1033700010FA03F2C3F19D030BD051EAC35101EBE4
:103380001220530638BF704700F1010008BF20F03B
:103390000100704750EA010C00F113801CF5000F8A
:1033A00058BFBCF5000F01D48842704707D710F50D
:1033B000000F58BF11F5000F15D48842704789429D
:1033C00070471CF5000F04D5BCF5000FF7D58142FE
:1033D00070474FF0807C1CEB400F38BF1CEB410F57
:1033E00001D28142704710B500F089F8922449005B
:1033F0004FF000504FF08051FFF78CBF4FF47F0C1F
:103400001CEAD0121EBF1CEAD11392EA0C0F93EAF9
:103410000C0F00F0478090EA010F48BF42F4807221
:103420004FF0004C4CEA00204CEA012102EB030271
:10343000A0FB0113A2F50002002918BF43F001030D
:103440005B0028BF4FEA330342EB22425FEA132CB2
:103450004CEBC2502EBFBCEB436FB2F57C0F7047F4
:103460004FEA036CBCF1004F08BF20F00100B2F539
:103470007C0F38BF70470BD582F0FF0212F5803FFA
:10348000C8BF704700F1C040D8BF00F0004070478F
:1034900000F5000C5FEA4C0C48BF7047B0F1C0402B
:1034A00000F073B890EA010F0CEAD11348BF42F460
:1034B0008072624538BF634504D280EA010000F0A3
:1034C0000040704710B500F01AF800BF8900013EB7
:1034D00000F007B800F009B85FEA410C5FEA1C6C25
:1034E00008D080EA010000F050B85FEA400C5FEAC3
:1034F0001C6CF6D14FF00040A0F5800070470EF133
:10350000020E2EF0030E5EF8044B244204D44FEA60
:103510004102B2F17F4F11D84FEA4003B3F17F4F20
:103520000CD80ED14FEAD07CB2F17F4F0CEB4C0C93
:103530000CF1020C08BF4CEBD17C04E04FF0080CFE
:1035400001E04FEAD17C0CEB4C0324FA03F404F0C5
:103550000704B4F1040C06D20EEB840CBDE8104055
:103560004CF0010C6047DFE80CF0070802024FF056
:103570000040A0F5800010BD0846420018BFD2F1FF
:10358000807288BF00F0004010BDFF2141EAD0509A
:10359000C005704751EA000C00F113801CF5000FC4
:1035A00058BFBCF5000F01D48142704707D711F511
:1035B000000F58BF10F5000F15D4814270478942A3
:1035C00070471CF5000F04D5BCF5000FF7D58842F5
:1035D00070474FF0807C1CEB410F38BF1CEB400F55
:1035E00001D28842704780EA010081EA000180EA46
:1035F0000100FFF7F8BE000090EA010F48BF81F01C
:1036000000413FF52CAE421A04D882F00042A0EBF4
:10361000020011444FEAD0524FF07F4C1CEA410F98
:10362000A2EBD15318BF9CEA026F4AD04FF0004C76
:103630004CEA00204CEA012121FA03FCB0EB0C0C0F
:103640000FD412F0FE0F36D05FEA4C001DD50012E9
:1036500040EBC25038BF70471CF03F0F18BF704797
:103660000BE0A2F101025FEA1C2040EBC25038BF20
:1036700070471CF07F0F18BF7047C3F120039940BB
:1036800014BF401E20F00100704780084FEA12234B
:1036900008BF7047B0FA80FCA2EB0C02CCF1280CFA
:1036A00060FA0CF093EA122F04BF00EBC25070478F
:1036B0004FEAC3707047130A5FEADC1008BF704717
:1036C000F6E79CEA026F04D010EA5C0F08BF002006
:1036D000704710B5FFF713FF40DFF63E81F0004062
:1036E00070470CF00F03092B08BF082000F0598029
:1036F0000A2B0BD0082B18BF704708BF1CF0400FD7
:103700000AD04FF000004FF0000170471CF0400F4E
:1037100018BF4FF0004070471CF0100F08D020F089
:10372000704300F07F4242EAD3014FEA4370704792
:1037300000F0604021F07F4242EA000201F07F4049
:1037400040EA727070474FF0FF0C4CF4E06C1CEADA
:1037500011531CBF9CEA030C9445C2BFDA4201EB33
:1037600002517047002B0DD0BCF1000F0FD0002A82
:1037700001F00041A4BF41F0E04141F07F614FF012
:103780000000704701F000414FF00000704750EA20
:1037900001334FF09B0C18BF4CF0806C7FF47EA976
:1037A00070471CF4801F11D01CF4E02F03D06FEA87
:1037B000CC31490070474FF04050EFF3008222F0C7
:1037C000704242EA000282F3008870474FF0000026
:1037D0007047000000000000000000000000000032
:1037E00000003F40000000000000000030004000EA
:1037F00030004000000009000BC03D000BC03D0040
:10380000090018C024407FE02240318000001800E9
:1038100024C01B000D803240018003801C402740E3
:103820001C80074000401000600000000000000005
:1038300000000000000000001F8020404020000029
:10384000402020401F8000000000090006001F806B
:10385000060009000000040004003F80040004008A
:1038600000000010006000000000000000000400E4
:1038700004000400040004000000000000400000F8
:10388000000000000000002001C0060038004000D9
:1038900000001F802040204020401F8000000000CA
:1038A00010403FC000400000000018C021402240EE
:1038B00024401840000010802040244024401B80F9
:1038C000000002000D0011003FC0014000003C80DC
:1038D000244024402440238000001F8024402440B2
:1038E0003440038000003000200027C03800200052
:1038F00000001B802440244024401B8000001C004A
:1039000022C0224022401F8000000000000008402A
:103910000000000000000000000004600000000043
:103920000000000004000A0011002080404009004F
:103930000900090009000900000000004040208043
:1039400011000A0004001800200023402400180081
:1039500000001F802040274029401F4000000040F9
:1039600007C039000F0001C0004020403FC0244084
:1039700024401B8000001F802040204020403080D9
:10398000000020403FC0204020401F800000204019
:103990003FC024402E4030C0000020403FC02440A3
:1039A0002E00300000000F001080204022403380A5
:1039B000020020403FC0040004003FC020402040DF
:1039C00020403FC0204020400000006020202020F8
:1039D0003FC02000200020403FC024400B0030C0EA
:1039E000204020403FC020400040004000C03FC079
:1039F0003C0003C03C003FC0000020403FC00C40E2
:103A000023003FC020001F802040204020401F8016
:103A1000000020403FC024402400180000001F8008
:103A20002140214020E01FA0000020403FC0244052
:103A3000260019C0004018C0244024402240318094
:103A40000000300020403FC0204030000000200037
:103A50003F80004000403F80200020003E0001C029
:103A6000070038002000380007C03C0007C03800BD
:103A70000000204039C0060039C02040000020006E
:103A8000384007C0384020000000304021C02640A8
:103A9000384020C00000000000007FE040204020AF
:103AA0000000000070000C000380004000000000D7
:103AB000402040207FE00000000000002000400087
:103AC0002000000000000010001000100010001086
:103AD0000010000000004000000000000000000096
:103AE00002800540054003C0004020003FC0044064
:103AF00004400380000000000380044004400640AE
:103B0000000000000380044024403FC0004000004B
:103B100003800540054003400000000004401FC032
:103B2000244024402000000002E0055005500650CB
:103B3000042020403FC00440040003C000400000B7
:103B4000044027C0004000000000001000100410D6
:103B500027E00000000020403FC00140070004C0F3
:103B60000440204020403FC000400040000007C00B
:103B7000040007C0040003C00000044007C0044064
:103B8000040003C0004000000380044004400380A0
:103B90000000041007F004500440038000000000FF
:103BA00003800440045007F00010044007C00240A6
:103BB000040004000000000006400540054004C069
:103BC0000000000004001F800440004000000400CA
:103BD00007800040044007C000400400070004C004
:103BE000018006000400060001C0070001C00600B5
:103BF0000000044006C0010006C00440000004109C
:103C0000071004E00180060004000000044005C025
:103C10000640044000000000000004007BE040205B
:103C20000000000000000000FFF0000000000000A5
:103C300040207BE0040000000000400080004000C5
:103C400020002000400000000000000000000000F4
:103C50000000000000000000000000001FCC000C6D
:103C600000000000000000000800300060000800B4
:103C7000300060000000022003FC1E20022003FC34
:103C80001E200220000000000E1811043FFF1084C7
:103C90000C78000000000F0010840F3800C0077877
:103CA00018840078000000780F8410C411240E9846
:103CB00000E40084000808006800700000000000B4
:103CC00000000000000000000000000007E01818DD
:103CD000200440020000000040022004181807E001
:103CE0000000000000000240024001800FF001804F
:103CF0000240024000000080008000800FF8008039
:103D00000080008000000001000D000E0000000097
:103D100000000000000000000080008000800080A3
:103D20000080008000800000000C000C00000000FB
:103D30000000000000000000000600180060018084
:103D4000060018002000000007F008081004100406
:103D5000080807F000000000080408041FFC000425
:103D600000040000000000000E0C10141024104489
:103D700011840E0C000000000C1810041104110432
:103D800012880C700000000000E0032004240824C6
:103D90001FFC0024000000001F981084110411046F
:103DA000108810700000000007F00888110411044A
:103DB00018880070000000001C00100010FC1300A8
:103DC0001C001000000000000E3811441084108404
:103DD00011440E38000000000700088C1044104405
:103DE000088807F00000000000000000030C030C2E
:103DF00000000000000000000000000101060000BB
:103E000000000000000000000080014002200410BB
:103E100008081004000002200220022002200220D4
:103E200002200220000000001004080804100220F4
:103E300001400080000000000E001200100C106C09
:103E400010800F00000003E00C1813E4142417C4C2
:103E5000082807D000000004003C03C41C400740B1
:103E600000E4001C000410041FFC110411041104E0
:103E70000E880070000003E00C18100410041004F9
:103E800010081C10000010041FFC10041004100483
:103E9000080807F0000010041FFC1104110417C4E7
:103EA00010040818000010041FFC1104110017C0B2
:103EB00010000800000003E00C1810041004104467
:103EC0001C780040000010041FFC1084008000805B
:103ED00010841FFC10040000100410041FFC1004C8
:103EE00010040000000000030001100110011FFE7B
:103EF00010001000000010041FFC11040380146463
:103F0000181C1004000010041FFC1004000400041E
:103F10000004000C000010041FFC1F0000FC1F0028
:103F20001FFC1004000010041FFC0C04030000E040
:103F300010181FFC100007F00808100410041004EB
:103F4000080807F0000010041FFC10841080108087
:103F500010800F00000007F0081810241024101C17
:103F6000080A07F2000010041FFC1104110011C020
:103F700011300E0C000400000E1C1104108410847B
:103F800010441C3800001800100010041FFC10041E
:103F900010001800000010001FF8100400040004B6
:103FA00010041FF8100010001E0011E0001C00702B
:103FB00013801C0010001FC0103C00E01F0000E038
:103FC000103C1FC000001004180C163401C001C0C2
:103FD0001634180C100410001C00130400FC130409
:103FE0001C00100000000804101C1064108413044E
:103FF0001C04101800000000000000007FFE4002BA
:10400000400240020000000030000C00038000600D
:10401000001C0003000000004002400240027FFE3E
:1040200000000000000000000000200040004000F0
:10403000400020000000000100010001000100011B
:1040400000010001000100004000400020000000CD
:104050000000000000000000009801240144014419
:10406000014400FC000410001FFC0088010401044E
:104070000088007000000000007000880104010446
:1040800001040088000000000070008801040104A1
:1040900011081FFC0004000000F801440144014421
:1040A000014400C800000000010401040FFC1104D9
:1040B000110411001800000000D60129012901296E
:1040C00001C90106000010041FFC0084010001006A
:1040D000010400FC000400000104190419FC0004A0
:1040E00000040000000000000003000101011901AC
:1040F00019FE0000000010041FFC0024004001B461
:10410000010C010400000000100410041FFC000456
:10411000000400000000010401FC0104010001FC96
:104120000104010000FC010401FC00840100010005
:10413000010400FC0004000000F801040104010473
:10414000010400F80000010101FF008501040104E1
:104150000088007000000000007000880104010465
:10416000010501FF00010104010401FC00840104B8
:10417000010001800000000000CC01240124012482
:1041800001240198000000000100010007F801046B
:10419000010400000000010001F800040004000414
:1041A000010801FC0004010001800170000C0010F6
:1041B00001600180010001F0010C003001C00030FD
:1041C000010C01F0010000000104018C0074017079
:1041D000018C01040000010101810171000E001831
:1041E00001600180010000000184010C01340144E0
:1041F0000184010C0000000000000000000001002C
:104200003EFC400240020000000000000000FFFFF2
:104210000000000000000000400240023EFC0100DF
:1042200000000000000000006000800080004000EE
:10423000400020002000000000004054FB21F93F16
:104240003163621A61B4D03D0000601A61B4D03DA0
:104250007370032E8A19A33B0000002E8A19A33B1A
:10426000C14920259A837B3900000000000000002E
:104270006E83F9A22915444ED15727FCC0DD34F5D1
:10428000999562DB4190433CAB6351FE61C5BBDE57
:104290003A6E24B7E0D24D42EA2E49061C92D1096B
:1042A0001CEB1DFE3EA729B1F53582E88444BB2EE8
:1042B00026709CE9417E5FB439D69139F439538335
:1042C0008B5F849C3B28F9BDFF97F81F0F9805DE94
:1042D0008B112FEF1F6D0A5ACF7E366DB709CB2792
:1042E000663F464F2DEA5F9EC7BA27757BF1E5EB27
:1042F000F739073DEA92528AB15FFB6B085D8D1F6B
:104300007AFE10111111C13F37D60684F464963F2E
:10431000280356C9226D6D3F0165F2F2D844433F30
:10432000A69237A0887E143F735360DBCB75F3BE33
:10433000FE41B31BBAA1AB3F93846EE9E326823FF3
:104340001583E0FEC8DB573F68108D1AF726303F13
:10435000E9A7F0320FB8123FD47ABF74702AFB3E3F
:1043600080430008000000208C0000006C01000861
:104370000C4400088C000020340C00008801000868
:10438000000001000000000000000000000000002C
:10439000000000000000000000000000000000001D
:1043A000000000000000000000004041000040410B
:1043B00000000000000000000100000000000000FC
:1043C00000000000000000000000000000000000ED
:1043D00000000000000000000000000000000000DD
:1043E00000000000000000000000000000000000CD
:1043F00000000000000000000000000000000000BD
:0C440000000000000000000000000000B0
:0400000508000131BD
:00000001FF
