:020000040800F2
:10000000680D0020D501000891140008691000084F
:1000100089130008530900088D290008000000001A
:10002000000000000000000000000000611A00084D
:10003000D909000800000000C1180008911C000840
:10004000EF010008EF010008EF010008EF010008D0
:10005000EF010008EF010008EF010008EF010008C0
:10006000EF010008EF010008EF010008EF010008B0
:10007000EF010008EF010008EF010008EF010008A0
:10008000EF010008EF010008EF010008EF01000890
:10009000EF010008EF010008EF010008590A00080D
:1000A000EF010008351F0008EF010008EF0100080C
:1000B000D5200008E9200008EF010008EF01000842
:1000C000EF010008EF010008EF010008EF01000850
:1000D000EF010008EF010008EF01000865260008A5
:1000E000EF010008EF010008EF010008EF01000830
:1000F000EF010008EF010008EF010008EF01000820
:10010000EF010008EF010008EF010008EF0100080F
:10011000EF010008EF010008EF010008EF010008FF
:10012000EF010008EF010008EF010008EF010008EF
:1001300000F002F800F03FF80AA090E8000C8244BA
:100140008344AAF10107DA4501D100F034F8AFF297
:10015000090EBAE80F0013F0010F18BFFB1A43F0A5
:1001600001031847B45C0000D45C0000103A24BFBF
:1001700078C878C1FAD8520724BF30C830C144BF0C
:1001800004680C607047000000230024002500264E
:10019000103A28BF78C1FBD8520728BF30C148BFEA
:1001A0000B607047642900F07780002070471FB50E
:1001B0001FBD10B510BD00F093F91146FFF7F7FF12
:1001C00003F032F800F0B1F903B4FFF7F2FF03BC1B
:1001D00002F0ACFF0948804709480047FEE7FEE708
:1001E000FEE7FEE7FEE7FEE7FEE7FEE7FEE7FEE7E7
:1001F00004480549054A064B70470000951C000855
:100200003101000868070020680D002068090020FF
:1002100068090020704700000FB4044910B503AA14
:10022000029800F027F910BC5DF814FBA400002030
:100230002DE9F0410E460446002020622046E16888
:10024000884730B3252805D0D4E901219047206A9A
:10025000401CF2E7E168204600278847050018D0D7
:10026000A5F14100192802D820354FF40067324625
:10027000294620462760FFF795FF40B1012804D0AA
:10028000F61D26F007060836D8E7361DD6E72846BD
:10029000DAE7206ABDE8F0812DE9F0410646002446
:1002A00010687529314616A510D0AFF300800028DC
:1002B00002DA404213A507E031688A0701D512A58A
:1002C00002E0490704D511A5012401E0AFF3008045
:1002D00000210A2206F1240709E0B0FBF2FCB0FB82
:1002E000F2F302FB1C00303078541846491C0028F9
:1002F000F3D123462A463046BDE8F04100F060B80D
:10030000000000002D0000002B0000002000000075
:100310004FF000020429C0F0128010F0030C00F02E
:100320001B80CCF1040CBCF1020F18BF00F8012BAC
:10033000A8BF20F8022BA1EB0C0100F00DB85FEA7A
:10034000C17C24BF00F8012B00F8012B48BF00F846
:10035000012B70474FF0000200B5134694469646B5
:10036000203922BFA0E80C50A0E80C50B1F12001C8
:10037000BFF4F7AF090728BFA0E80C5048BF0CC076
:100380005DF804EB890028BF40F8042B08BF7047D4
:1003900048BF20F8022B11F0804F18BF00F8012B46
:1003A0007047704770477047704710B500F074F899
:1003B000006810BD10B5044600F06EF8046010BD72
:1003C0002DE9F0470D4699469246044600F124086F
:1003D0000168880604D5E06921F01001216000E081
:1003E0000120A84201DD471B00E00027A1697A191E
:1003F00002EB0900081AA0612078C00602D420464A
:10040000AFF30080002608E0D4E901211AF80600C5
:100410009047206A401C761C20624E45F4DB207811
:10042000C0060AD52046AFF3008006E0D4E90121DA
:1004300030209047206A401C2062381EA7F1010737
:10044000F4DC07E0D4E9012118F805009047206AA0
:10045000401C2062281EA5F10105F3DC2046AFF305
:1004600000802078000602D50220BDE8F087012038
:10047000FBE70000074B70B50D467B4400F015F814
:100480000446284600F024F810B14FF0FF3070BD4C
:10049000204670BD632D000000487047080700200B
:1004A00001694A1C02610878704700B58FB0CDE938
:1004B00001310021059105497944CDE90310114628
:1004C0006846FFF7B5FE0FB000BD0000E5FFFFFF77
:1004D000007B00F08000704700487047080700204C
:1004E0007546FFF7F9FFAE4605006946534620F012
:1004F0000700854618B020B5FFF77AFEBDE820401A
:100500004FF000064FF000074FF000084FF0000BCF
:1005100021F00701AC46ACE8C009ACE8C009ACE882
:10052000C009ACE8C0098D46704710B50446AFF36A
:1005300000802046BDE81040FFF746BE21B182682A
:1005400042F00102826003E0826822F001028260D0
:100550007047000010B504461248844208D10121BA
:10056000401501F0DBF90021601501F0D7F917E023
:100570000D48844208D10121001501F0CFF9002176
:10058000201501F0CBF90BE00848844208D1012185
:10059000C80301F0C3F900214FF4004001F0BEF997
:1005A00010BD00000024014000280140003C014033
:1005B000014600208A6802F004020AB1012000E02E
:1005C000002070470146C86C80B270470246002088
:1005D00013680B400BB1012000E00020704701467A
:1005E00000208A6802F008020AB1012000E0002021
:1005F0007047000030B502460020002350680F4CC1
:1006000020400D790C6844EA05242043506090682E
:100610000B4C2040D1E902542C434D7944EA450467
:1006200020439060D06A20F470000C7C641EE4B219
:10063000234340EA0350D06230BD0000FFFEF0FFCC
:10064000FDF7F1FFF0B504460D4600200021092D0D
:1006500011DDE068A5F10A0606EB4607072606FA53
:1006600007F18843A5F10A0606EB460603FA06F1F0
:100670000843E0600CE0206905EB4507072606FA11
:1006800007F1884305EB450603FA06F108432061AC
:10069000072A0FDA606B561E06EB86071F2606FA3E
:1006A00007F18843561E06EB860605FA06F1084355
:1006B000606322E00D2A0FDA206BD61F06EB860757
:1006C0001F2606FA07F18843D61F06EB860605FAB1
:1006D00006F10843206310E0E06AA2F10D0606EB84
:1006E00086071F2606FA07F18843A2F10D0606EBDE
:1006F000860605FA06F10843E062F0BD816841F024
:1007000008018160704721B1826842F4A0028260D2
:1007100003E0826822F4A00282607047816841F0A1
:1007200004018160704700002DE9F04F87B0434815
:100730000068A0F539704000032190FBF1FABAF18E
:10074000000F01DA4FF0000ABAF1640F01DD4FF03B
:10075000640A3B48006803F0F6FD0746394A3A4B05
:1007600003F058FE054603F0BFFD8146B9F1000FC6
:1007700001DAC9F100093548006803F0E4FD0546D7
:10078000304A314B03F046FE074603F0ADFD044608
:10079000002C00DA64422E48007808B9012000E0FD
:1007A00000202B4908702B48007801281BD12A48CB
:1007B000006804F09BFA05462848006804F096FAA1
:1007C00006460020029003900490059000902B466E
:1007D000324601902248017822A0FFF71DFD00203B
:1007E0001C49087026E01A480078B8B925490968FC
:1007F000A1F2DC5003F0A7FD0546234A234B03F08A
:1008000009FE074603F070FD834609F0FF02E1B2DE
:10081000534600901EA0FFF7FFFC0BE0084800685D
:1008200000900A48036805480268164801681CA041
:10083000FFF7F2FC07B0BDE8F08F00003C0000209D
:10084000080000209A9999999999F13F0400002095
:10085000FC000020680000204C0000204800002020
:10086000640000207B4325643A25643A25643A25D8
:10087000643A25643A25643A25643A25643A256445
:100880007D240000300000207B14AE47E17AC43F95
:100890007B4125643A25643A25643A25647D240029
:1008A0007B4225643A25643A25643A25647D240018
:1008B00000B587B001214FF4027001F01FF800204D
:1008C00001F000F80220ADF8040000208DF80700C8
:1008D00001A9184800F01CFA1748FFF73BFE00205A
:1008E00002908DF80C008DF80D004FF460200490FC
:1008F0000020059001208DF8180002A90E48FFF78E
:1009000079FE01210C48FFF719FE0B48FFF7F6FEB0
:1009100000BF0948FFF763FE0028FAD10648FFF739
:10092000FDFE00BF0448FFF743FE0028FAD107B0E0
:1009300000BD0000000C01400024014002688A4212
:1009400000DD01604B4202689A4201DA4A420260CD
:10095000704700BFFEE7000010B50020094908609D
:1009600001200949087000BF084800680028FBD131
:10097000074800680028F7D10349087000F0F4FC2C
:1009800010BD0000800000207D0000200400002039
:100990000800002010B504464A2060430A49086058
:1009A00001200A4908700A490870002009490870A6
:1009B00000BF084800780028FBD0002003490870D9
:1009C000FFF7CAFF10BD0000880000207E00002055
:1009D0007D0000207C000020704700002DE9F041E0
:1009E00004460D461646601B04F0BCF91549086024
:1009F0000846006804F07AF9804602F015F80746C8
:100A0000C82F07DD10490F48006804F00BFA0F49A2
:100A1000086011E0052F0DDD0B490A48006804F05D
:100A2000CDFA03D20A480949086005E00948074998
:100A3000086001E0012030700448006804F056F9B5
:100A4000BDE8F081EC0000200000A040F000002094
:100A500000004843000048C310B5042002F08EFB9C
:100A60000448006828B9202000F032F8012002492B
:100A7000087010BD14012142030000200EB500F0E3
:100A800095FB0121084600F039FF0521002000F008
:100A90001FF92020019000208DF808000C208DF80F
:100AA000090001208DF80A0001A800F017F81720AE
:100AB0008DF8000001208DF8030002208DF8010060
:100AC00001208DF80200684600F0E4FC0EBD000035
:100AD00001490860704700001404014000212349C7
:100AE0008279002A3AD00A46126803689A430B4674
:100AF0001A600A1D126803689A430B1D1A60027976
:100B000011440A6803681A430A60184A08321268D6
:100B100003689A43154B08331A601A1D126803685C
:100B20009A43124B0C331A604279102A0ED11A1FC5
:100B3000126803681A430D4B08331A601A1D1268B5
:100B400003681A43094B0C331A600DE007494279D8
:100B500011440A6803681A430A6005E002791144E7
:100B60000A6803689A430A60704700000004014065
:100B700000B589B00121084600F0B0FE0121042033
:100B800000F0BCFE0320ADF8040004208DF807003F
:100B900001A9224800F0BCF81C208DF8200001209B
:100BA0008DF823008DF8210003208DF8220008A87D
:100BB00000F070FC05A801F03DFD0020ADF8140028
:100BC0004FF6FF70ADF818000020ADF81A00ADF830
:100BD000160005A94FF0804001F0DAFC00231A4608
:100BE00003214FF0804001F0B8FA02A801F036FB73
:100BF0000A20ADF8100002A9400701F0D9FA01213E
:100C0000880701F089FA01221146900701F02FFBB5
:100C10000121880701F086FA09B000BD00080140F3
:100C200000B589B00121022000F058FE0121042006
:100C300000F064FEC020ADF8040004208DF8070029
:100C400001A9214800F064F81D208DF82000012042
:100C50008DF823008DF8210003208DF8220008A8CC
:100C600000F018FC05A801F0E5FC0020ADF8140028
:100C70004FF6FF70ADF818000020ADF81A00ADF87F
:100C8000160005A9114801F083FC00231A46032130
:100C90000E4801F062FA02A801F0E0FA0A20ADF86D
:100CA000100002A9094801F083FA0121074801F068
:100CB00033FA01221146054801F0D9FA012103480F
:100CC00001F030FA09B000BD000801400004004006
:100CD00030B500228B071C0F0F2303FA04F20B4BD5
:100CE0008C1053F824309343084C8D1044F8253071
:100CF00023468C1053F824308C07240F00FA04F498
:100D00002343024C8D1044F8253030BD08000140CB
:100D10002DE9F04102460025002600200023002492
:100D2000002791F803C00CF00F0591F803C00CF0F8
:100D3000100CBCF1000F03D091F802C04CEA05057D
:100D400091F800C0BCF1000F31D0146800202BE0F6
:100D50004FF0010C0CFA00F3B1F800C00CEA0306E6
:100D60009E4220D183004FF00F0C0CFA03F7BC43D6
:100D700005FA03FC4CEA040491F803C0BCF1280F07
:100D800006D14FF0010C0CFA00FCC2F814C00AE0C6
:100D900091F803C0BCF1480F05D14FF0010C0CFADB
:100DA00000FCC2F810C0401C0828D1D31460B1F870
:100DB00000C0BCF1FF0F34DD546800202EE000F1CC
:100DC000080C4FF0010808FA0CF3B1F800C00CEA67
:100DD00003069E4221D183004FF00F0C0CFA03F75B
:100DE000BC4305FA03FC4CEA040491F803C0BCF1CF
:100DF000280F05D100F1080C08FA0CF8C2F814808D
:100E000091F803C0BCF1480F07D100F1080C4FF076
:100E1000010808FA0CF8C2F81080401C0828CED34C
:100E20005460BDE8F08101617047000010B50446D0
:100E30000723012221460948FFF704FC0121074846
:100E4000FFF761FC00BF02210448FFF7BFFB002849
:100E5000F9D00248FFF7B6FB10BD000000240140A6
:100E60002DE9F04102245E480078002872D15D48E7
:100E7000006828B900205C4908605C49086069E0A6
:100E800058480068012809D15948007803F082FFCA
:100E9000554908600020554908605BE051480068EA
:100EA000022809D15248007803F074FF4E490860C7
:100EB00050484E4908604DE04A480068032805D173
:100EC0000020494908604949086043E045480068F6
:100ED00004280AD146480078404203F043FF4249C3
:100EE000086044484149086034E03E4800680528ED
:100EF0000AD13F480078404203F034FF3A49086085
:100F000000203A49086025E03648006806280AD1E2
:100F100037480078404203F025FF334908603648DF
:100F20003249086016E02F480068072805D10020E4
:100F30002D4908602D4908600CE02A4800680828FF
:100F400008D12B48007803F025FF274908602A487C
:100F5000264908602248007801283ED127490968BF
:100F6000A1F1800003F0FEFE054625490968A1F1C4
:100F7000800003F0F7FE0646604203F0F3FE0746EA
:100F8000294603F01BFF08D2204603F0EBFE07467C
:100F9000294604F013F800D20025604203F0E2FE77
:100FA0000746314603F00AFF08D2204603F0DAFE76
:100FB0000746314604F002F800D2002685F00047CB
:100FC0004FF08041384603F0CFFD074908600D49D6
:100FD000304603F0C9FD05490860BDE8F081000016
:100FE0000000002010000020180000202000002039
:100FF000640000207CD9203F7CD920BF5400002011
:1010000058000020000048432DE9F04F85B009202A
:10101000FFF70CFF019003F0ADF94FF066320E4B75
:10102000CDE9020103F0F6F9804600220B4B03F0F4
:10103000F1F9064600220A4B03F0ECF904460022BF
:10104000084B02F0F9FF824603F04EF90490049831
:1010500005B0BDE8F08F000066660A40000026403B
:10106000000059400000B04000BFFEE72DE9F05FEE
:1010700004460D46281B1A4908600846006803F01C
:1010800071FE834617480168584603F0CBFE804640
:1010900013490968144A1268881A03F063FE8346EC
:1010A00012480168584603F0BDFE8146414603F0F0
:1010B000EDFC07460E48006803F054FE82463946B0
:1010C00003F0E4FC064603F011FE094908600448F9
:1010D00000680549086006480068BDE8F09F000008
:1010E000CC0000204C000020D4000020480000204C
:1010F000D00000202DE9F05F04460D46281B1A4958
:1011000008600846006803F02DFE83461748016812
:10111000584603F087FE804613490968144A12684E
:10112000881A03F01FFE834612480168584603F0F0
:1011300079FE8146414603F0A9FC07460E48006847
:1011400003F010FE8246394603F0A0FC064603F089
:10115000CDFD094908600448006805490860064853
:101160000068BDE8F09F0000D80000204C0000207F
:10117000E000002048000020DC0000200146490675
:10118000084A926942F00102064B9A61064A526887
:1011900022F0E062044B5A601A4652680A435A60D1
:1011A00070470000001002400000014008B5012116
:1011B000042000F0A3FB48208DF803002020ADF8A8
:1011C000000003208DF8020069460448FFF7A0FDE7
:1011D0000321034802F078FD08BD0000000801402B
:1011E000211300082DE9F04F8BB083468A46504604
:1011F00003F020FCCDE9000102F0AAFD80464FF08B
:101200006042334B03F006F9064600224FF080435C
:1012100002F012FF4FF060422E4BCDE9020102F0C6
:101220000BFF00222C4BCDE9040102F049FECDE971
:101230000801584603F0FEFBCDE90601DDE908236D
:1012400003F0E8F8044603F04FF8244908605046DC
:1012500003F0F0FBCDE9000102F07AFD4FF06042AF
:101260001B4BCDE9020103F0D5F800224FF080437B
:10127000CDE9040102F0E0FE4FF06042154BCDE9EC
:10128000060102F0D9FE06460022134B03F0F6F9E0
:1012900080468946584603F0CDFB044642464B46FD
:1012A00003F0B8F8CDE9080103F01EF80C49086016
:1012B0000C49504603F0B6FD05460B4903F0E6FB2A
:1012C000044603F013FD094908600BB0BDE8F08F38
:1012D000CEF7C33FF97EC23F0000F03F340000204C
:1012E0003800002033B31B440080BB443000002092
:1012F00008B50121042000F001FB10208DF8030047
:10130000ADF8000003208DF8020069460348FFF79E
:10131000FFFC10210148FFF786FD08BD00080140D1
:1013200010B50446202C02D10520FFF733FB10BD79
:1013300018B90021094A11600FE009490968491CE0
:10134000074A1160814208D104490968C943054A26
:10135000C2F890110021024A1160704790012142A9
:10136000A80000200000214200200549087005491E
:101370000880091D0880091D0880091D0880704724
:101380007D0000203408004000BFFEE730B589B082
:1013900005460C460121042000F0A0FA0121082096
:1013A00000F0ACFA18208DF807004FF47070ADF81B
:1013B000040003208DF8060001A93348FFF7A8FCBC
:1013C000ADF81C50ADF818400020ADF81A00ADF88B
:1013D0001E0006A92D4801F0DBF86020ADF80800DA
:1013E0000120ADF80A000020ADF80E00ADF81000A5
:1013F00002A9264800F044FF6020ADF80800012053
:10140000ADF80A000020ADF80E00ADF8100002A9FA
:101410001E4800F08BFF6020ADF808000120ADF8F9
:101420000A000020ADF80E00ADF8100002A9174820
:1014300000F0DCFF6020ADF808000120ADF80A00E4
:101440000020ADF80E00ADF8100002A90F4801F021
:1014500027F808210D4800F05FFF08210B4800F035
:10146000B7FF0821094801F011F80821074801F0E9
:1014700055F80121054800F043FE0121034800F022
:1014800051FE09B030BD0000000C014000080040D2
:101490007047000070B5002100230F22C47804B308
:1014A000154C246804F4E064C4F5E064210AC1F139
:1014B0000403CA40447804FA03F1847814402143B9
:1014C00009010E4C0678A155047804F01F0501248B
:1014D000AC4005786D11AD0005F1E025C5F800417F
:1014E00009E0047804F01F050124AC40044D06789F
:1014F000761145F8264070BD0CED00E000E400E0F8
:1015000080E100E002490143024A11607047000097
:101510000000FA050CED00E030B500240CE00025D9
:1015200006E00020074901EBC5010855681CC5B25B
:10153000802DF6DB601CC4B2082CF0DB00F0D0F884
:1015400030BD000044010020F0B5144600267F287D
:1015500001DC3F2900DDF0BD0B46CF1701EB5777CB
:10156000FF10C7F10707FAB2CF1701EB5777FF104B
:10157000A1EBC707FDB2C5F107070123BB40DEB2EF
:101580004CB10A4B03EBC0039B5C3343074F07EBA3
:10159000C007BB5408E0054B03EBC0039B5CB3439F
:1015A000024F07EBC007BB5400BFD4E74401002043
:1015B00008B501210C2000F0A1F910208DF80300DE
:1015C0003820ADF8000002208DF80200694640483E
:1015D000FFF79EFB10208DF80300C002ADF800005D
:1015E00002208DF8020069463A48FFF791FB00207F
:1015F00039490860642001F0C1FD01203749C1F874
:101600008C010021AE2000F02FF90021D52000F040
:101610002BF90021502000F027F90021A82000F02C
:1016200023F900213F2000F01FF90021D32000F012
:101630001BF90021084600F017F90021402000F0B6
:1016400013F900218D2000F00FF90021142000F083
:101650000BF90021202000F007F90021022000F002
:1016600003F90021A12000F0FFF80021C02000F0C4
:10167000FBF80021DA2000F0F7F80021122000F03A
:10168000F3F80021812000F0EFF80021EF2000F0B6
:10169000EBF80021D92000F0E7F80021F12000F05C
:1016A000E3F80021DB2000F0DFF80021302000F01B
:1016B000DBF80021A42000F0D7F80021A62000F0DC
:1016C000D3F80021AF2000F0CFF8FFF725FF08BDC9
:1016D000000C0140000801408C8121420080214221
:1016E00030B500241CE004F1B001C8B2002100F0C4
:1016F000BBF80021084600F0B7F80021102000F0E8
:10170000B3F8002508E0084901EBC501085D012197
:1017100000F0AAF8681CC5B2802DF4DB601CC4B2CE
:10172000082CE0DB30BD0000440100202DE9F04F23
:1017300080460C4615461E46A346A5F12000C5B2BC
:1017400000273EE00C2E07D105EB45001F4901EBB9
:10175000800010F8079004E01D4800EB051010F819
:1017600007904FF0000A26E009F0800028B12146DA
:101770004046099AFFF7E8FE09E0099808B90120F8
:1017800000E00020024621464046FFF7DDFE4FEA1A
:1017900049604FEA1069601CC4B2A4EB0B00B04270
:1017A00005D15C4608F1010000F0FF0806E00AF1EF
:1017B000010000F0FF0ABAF1080FD5DB00BF781C6A
:1017C000C7B2B742BEDBBDE8F08F0000FA51000897
:1017D0006E5600082DE9FF4F81B0074691461E4620
:1017E0000E9D4FF0000A002439E0301B401EC1B2AC
:1017F0000A2001F04BFDB9FBF0F00A21B0FBF1F239
:1018000001FB1208BAF1000F16D1701EA04213DDC1
:10181000B8F1000F0ED10120AB4605EBDB7149108A
:1018200001FB04710090C8B22B4620220299FFF7F9
:101830007DFF12E04FF0010A0120AB4605EBDB71A2
:10184000491001FB04710090C8B208F13001CAB21E
:101850002B460299FFF76AFF00BF601CC4B2B44276
:10186000C3DB05B0BDE8F08F10B50A461AB10123FD
:10187000114C236002E000230F4C2360002114E090
:1018800000230E4C236000F080031BB10123241FB2
:10189000236003E00023094C241F23600123074C2D
:1018A00023604306180E4B1CD9B20829E8DB01233C
:1018B000014C236010BD0000BC01214294812142F3
:1018C0007047000001460020034A506820F4404061
:1018D00008435060704700000010024029B1064ADA
:1018E000D2690243044BDA6104E0034AD2698243BD
:1018F000014BDA61704700000010024029B1064A2E
:1019000092690243044B9A6104E0034A926982435C
:10191000014B9A61704700000010024029B1064A4D
:10192000D2680243044BDA6004E0034AD26882437F
:10193000014BDA60704700000010024030B5002112
:101940000022002400232D4D6D6805F00C0121B10B
:10195000042905D0082923D105E0294D056022E09E
:10196000274D05601FE0254D6D6805F47012234D6D
:101970006D6805F48034022505EB92421CB9214DB7
:10198000554305600BE01D4D6D6805F400351DB134
:101990001C4D5543056002E0194D5543056002E0BA
:1019A000174D056000BF00BF144D6D6805F0F001D4
:1019B0000909154D6B5C0568DD4045600F4D6D688C
:1019C00005F4E061090A104D6B5C4568DD408560F7
:1019D0000A4D6D6805F46051C90A0B4D6B5C456892
:1019E000DD40C560054D6D6805F44041890B074D2C
:1019F0006B5CC568B5FBF3F5056130BD00100240B6
:101A000000127A0000093D008C0000209C0000209C
:101A10000146022904D003290BD0042917D10FE075
:101A20004FF08042928C10B200224FF080439A8493
:101A30000FE0094A128810B20022074B1A8008E012
:101A4000064A128810B20022044B1A8001E00020DE
:101A500000BF00BF7047000024040040240800407D
:101A60007047000030B589B005460C460121C80218
:101A7000FFF744FF01210420FFF740FF18208DF8F5
:101A800003004FF40060ADF8000003208DF8020061
:101A900069462448FFF73CF9ADF81C50ADF81840F2
:101AA0000020ADF81A00ADF81E0006A91E4800F08F
:101AB0006FFD012211461C4800F0D9FB19208DF85A
:101AC000140001208DF817008DF815008DF8160010
:101AD00005A8FFF7DFFC6020ADF804000120ADF899
:101AE00006000020ADF80A00ADF80C0001A90E4870
:101AF00000F0D6FC08210C4800F010FD01210A4836
:101B000000F01CFB0121084800F0FAFA40F2DC501A
:101B10000549403108800121034800F003FB09B06A
:101B200030BD000000080140002C014010B500F05D
:101B300001F810BD0CB500200190009033480068FA
:101B400040F480303149086000BF3048006800F43C
:101B5000003000900198401C0190009818B901983D
:101B6000B0F5A06FF1D12948006800F4003010B141
:101B70000120009001E0002000900098012843D14E
:101B80002348006840F010002149086008460068BA
:101B900020F0030008600846006840F0020008607A
:101BA0001A48406819494860084640684860084635
:101BB000406840F4806048600846406820F47C102B
:101BC00048600846406840F4E810486008460068ED
:101BD00040F08070086000BF0C48006800F00070A2
:101BE0000028F9D00948406820F003000749486000
:101BF0000846406840F00200486000BF0348406863
:101C000000F00C000828F9D10CBD000000100240C3
:101C10000020024010B51B4B1B78022B05DB00286F
:101C200000DA0020002900DA0021002808DA4FF449
:101C3000E153154C238000F5E153241D238008E077
:101C40004FF4E153104C241D2380C0F5E153241FB1
:101C50002380002909DA4FF4E1530B4C0834238028
:101C600001F5E153241D238008E04FF4E153064CB5
:101C70000C342380C1F5E153241F2380034C2280C0
:101C800010BD00000000002034080040402C01403E
:101C90007047000010B51348006840F0010011497A
:101CA000086008464068104908400E4948600846E8
:101CB00000680E4908400B4908600846006820F497
:101CC000802008600846406820F4FE0048604FF419
:101CD0001F008860FFF72AFF4FF00060044908608A
:101CE00010BD0000001002400000FFF8FFFFF6FEEC
:101CF00008ED00E0F0B50C46154600220021068CE8
:101D00004FF6FE773E400684028B018C4FF60C7630
:101D100032407E1C06EA03162E433243104EB04278
:101D20000ED0104EB0420BD0B0F1804F08D00E4E06
:101D3000B04205D00D4EB04202D00D4EB04206D199
:101D40004FF6FD76314044F00106314305E04FF691
:101D5000F576314044F00106314302830184F0BD41
:101D6000002C014000340140000400400008004005
:101D7000000C0040F0B50C4615460022002100265C
:101D8000078C4FF6EF7C07EA0C070784028B018C67
:101D90004FF6FF7707EA041640F6FF473A404FF642
:101DA000FF7707EA03373A434FF6FF7707EA05273D
:101DB0003A43114FB8420ED0104FB8420BD0B0F199
:101DC000804F08D00E4FB84205D00E4FB84202D017
:101DD0000D4FB84206D14FF6DF77394046F0100775
:101DE000394305E04FF65F77394044F01007394337
:101DF00002830184F0BD0000002C0140003401404A
:101E00000004004000080040000C0040F0B50C4603
:101E10001546002200210026078C4FF6FF6C07EACA
:101E20000C070784828B018C4FF6FF7707EA0426A4
:101E30004FF60C773A404FF6FF7707EA03172F4328
:101E40003A43114FB8420ED0104FB8420BD0B0F108
:101E5000804F08D00E4FB84205D00E4FB84202D086
:101E60000D4FB84206D14FF6FF57394046F4807700
:101E7000394305E04FF2FF57394044F48077394346
:101E800082830184F0BD0000002C01400034014039
:101E90000004004000080040000C0040F0B50C4673
:101EA0001546002200210026078C4EF6FF7C07EA2B
:101EB0000C070784828B018C4FF6FF7707EA043604
:101EC00040F6FF473A404FF6FF7707EA05273A43C7
:101ED0004FF6FF7707EA03373A43114FB8420ED067
:101EE000104FB8420BD0B0F1804F08D00E4FB8421F
:101EF00005D00E4FB84202D00D4FB84206D14DF674
:101F0000FF77394046F48057394305E047F6FF57DD
:101F1000394044F48057394382830184F0BD000086
:101F2000002C014000340140000400400008004043
:101F3000000C004010B501F0FDF8044601214F48A7
:101F400000F02CF901287DD101214C4800F0E7F880
:101F5000204601F031F94A48007801285AD1494811
:101F6000007801280CD1484A484920680968FEF7E2
:101F700035FD4749086041F658314548FEF7DEFC1B
:101F80004448007801280BD143480078401CC0B277
:101F900041490870052803D1002008703D490870A8
:101FA0000220FFF735FD3D4908600320FFF730FDB3
:101FB00040423B490860FEF753FF3A4801683A48FF
:101FC0000068FFF70FF93948006800F03DFBD0B911
:101FD0003748016831480068FFF748F8354908601C
:101FE000354801682E480068FFF784F833490860D7
:101FF00000F0CEFC32480268304801682D48006885
:10200000FFF708FE08E040F2DC5200210846FFF727
:1020100001FE01E0FFF7A8F9FEF7F6FF2949086085
:1020200029480068401C284908602848006825495C
:1020300009680844254908602348006864280DD1D0
:10204000084600E018E00068642190FBF1F01749B1
:10205000086000201D4908601B4908601C48007882
:1020600018B96420FFF764F906E0194800780128E0
:1020700002D10020FFF75CF910BD0000002C0140E8
:102080007D0000207E0000207C00002088000020D1
:1020900080000020450000204400002004000020B3
:1020A0000800002020000020180000203C00002034
:1020B0003400002028000020380000202C000020E0
:1020C00030000020B8000020BC000020C00000202C
:1020D0000100002010B50121880700F05FF8012100
:1020E000880700F01CF810BD10B50121034800F06E
:1020F00055F80121014800F012F810BD000400401D
:1021000021B1028842F08002028004E002884FF68A
:102110007F731A4002807047CA4302827047CA43E5
:102120000282704721B1028842F00102028004E07D
:1021300002884FF6FE731A400280704731B1B0F842
:10214000442042F40042A0F8442005E0B0F84420C6
:10215000C2F30E02A0F844207047F0B50C461546B5
:102160001E460021002200230189028B038C4FF6BA
:10217000F877394021434FF6FC473A4040F20117C7
:102180003A434FF6DD773B404FF6FF7707EA0617F5
:102190002F433B43018102830384F0BD02460020AC
:1021A000138A0B400BB1012000E0002070470000B3
:1021B00070B505460C46244885420ED0234885421A
:1021C0000BD0B5F1804F08D02148854205D0214879
:1021D000854202D02048854200D100E000BF20881F
:1021E00050B92389A28861882846FFF783FDE188DA
:1021F000284600F0A0F925E0208804280AD1238988
:10220000A28861882846FFF7B5FDE188284600F0DE
:102210009BF917E0208808280AD12389A2886188C1
:102220002846FFF7F3FDE188284600F09AF909E017
:102230002389A28861882846FFF730FEE188284676
:1022400000F098F970BD0000002C014000340140FE
:102250000004004000080040000C00400021018004
:102260004180012181800021C180018170471AB124
:1022700083890B43838102E083898B438381704789
:1022800070B5002400220023058C4FF6FE76354001
:102290000584028C8388048B4FF68F752C40B51E05
:1022A0002C400D882C43751E2A400D892A434D88E9
:1022B0002A43144DA8420BD0134DA84208D0134D09
:1022C000A84205D0124DA84202D0124DA84213D107
:1022D0004FF6F7752A404D892A434FF6FB752A4081
:1022E0008D882A434FF6FF652B404FF6FF552B4054
:1022F0008D892B43CD892B4383800483CD888586AC
:10230000028470BD002C01400034014000400140B7
:1023100000440140004801400A460021018B4FF66D
:10232000F7731940114301837047000070B5002412
:1023300000220023058C4FF6EF7635400584028C91
:102340008388048B48F6FF752C404FF6FF452C40E0
:102350000D884FF6FF7606EA05252C434FF6DF750C
:102360002A400D8906EA05152A434D8806EA051517
:102370002A43154DA84202D0144DA8421DD14FF654
:102380007F752A404D894FF6FF7606EA05152A43E8
:102390004FF6BF752A408D8806EA05152A434FF689
:1023A000FF352B404FF2FF752B408D8906EA8505DE
:1023B0002B43CD8906EA85052B4383800483CD8892
:1023C0000587028470BD0000002C014000340140EC
:1023D0000A460021018B4FF2FF7319404FF6FF733D
:1023E00003EA0223194301837047000070B50024FB
:1023F00000220023058C4FF6FF6635400584028CD1
:102400008388848B4FF68F752C404FF6FC752C40DB
:102410000D882C434FF6FF552A400D894FF6FF7665
:1024200006EA05252A434D8806EA05252A43154D67
:10243000A84202D0144DA8421DD14FF2FF752A4088
:102440004D894FF6FF7606EA05252A434FF6FF35FC
:102450002A408D8806EA05252A434EF6FF752B4053
:102460004DF6FF752B408D8906EA05152B43CD8966
:1024700006EA05152B4383808483CD8885870284F3
:1024800070BD0000002C0140003401400A460021CC
:10249000818B4FF6F7731940114381837047000019
:1024A00070B5002200230024058C4EF6FF763540DF
:1024B0000584038C8488828B48F6FF752A404FF68A
:1024C000FF452A400D884FF6FF7606EA05252A4388
:1024D0004DF6FF752B400D8906EA05352B434D88D7
:1024E00006EA05352B430B4DA84202D00A4DA842FF
:1024F00008D14BF6FF752C408D894FF6FF7606EA22
:1025000085152C4384808283CD88A0F840500384B5
:1025100070BD0000002C0140003401400A4600213B
:10252000818B4FF2FF7319404FF6FF7303EA0223CA
:10253000194381837047028B4FF6F3731A4002836D
:10254000028B0A4302837047028B4FF2FF331A401B
:102550000283028B4FF6FF7303EA01231A430283BF
:102560007047828B4FF6F3731A408283828B0A4343
:1025700082837047828B4FF2FF331A408283828BB3
:102580004FF6FF7303EA01231A438283704700006A
:10259000002202881D4B98420ED01D4B98420BD052
:1025A000B0F1804F08D01B4B984205D01A4B98428F
:1025B00002D01A4B984204D14FF68F731A404B88C1
:1025C0001A43174B984207D0164B984204D04FF647
:1025D000FF431A40CB881A4302808B8883850B887F
:1025E00003850A4B98420BD0094B984208D00E4BFA
:1025F000984205D00D4B984202D00D4B984201D124
:102600000B7A03860123838270470000002C01406F
:10261000003401400004004000080040000C00406D
:102620000010004000140040004001400044014000
:10263000004801404FF6FF71818000210180C18078
:1026400041800172704700000146B1F5397F03DB1C
:10265000034A1278012A01D1012000E000207047CE
:10266000020000202DE9FF5F6A48008800F020008A
:1026700000287DD06748001D00886749087008461B
:1026800000786649087064480078412809DB624890
:102690000078482805DC60480078403860490860C8
:1026A0000FE05D4800780A2804DA5B4800785C494E
:1026B000086006E0584800785A2802D1002058499E
:1026C0000860554800787B2802D1012055490870E0
:1026D000514800787D2802D10220524908705148A3
:1026E000007801280AD14C4800784F494F4A1278A7
:1026F00088544E480078401C4C490870494800787E
:10270000022835D14848C078502803D101204849D3
:1027100008706FE04448C078572803D1012045492C
:10272000087067E040484078232863D03F4800782D
:102730004149087036E03D4909783F4A1278881AC5
:1027400001F001FE804642460B4600203B4900F066
:10275000CFFD04460D4638490978491E324A515C7E
:10276000A1F1300001F0EFFD064622462B4600E0C5
:102770004DE001F04FFE82468B463148006802F082
:1027800059F952465B46CDE9000101F099FBCDE9CC
:10279000020101F063FB2A49086027480078401EC7
:1027A00025490870244800780428C4DA1E48407877
:1027B000303809281DD2DFE800F0050C1116171873
:1027C000191A1B001E48006802F0ACFA1D49087077
:1027D0000FE01B4800681C4908600AE018480068C0
:1027E0001A49086005E004E003E002E001E000E0CF
:1027F00000BF00BF00200B4908700C4908700E494B
:1028000008700F49086032210748FDF781FDBDE8D7
:10281000FF9F000000480040AC0000206500002041
:1028200010000020AD00002044050020AE00002074
:102830006800002069000020AF0000200000244054
:10284000B000002064000020480000204C00002060
:1028500021B1828942F40052828104E082894DF6DE
:10286000FF731A4082817047F0B5034600240026AA
:102870000025002040F66A17B94200D100BF184673
:10288000C1F3421401F01F06012707FA06F5012CD7
:1028900001D10C3004E0022C01D1103000E01430E2
:1028A0001AB107682F43076002E00768AF4307606B
:1028B000F0BD00002DE9F04786B005460E46002425
:1028C000A24600BFA1460027B08900B100BF2F4635
:1028D0002C8A4CF6FF700440F08804432C82AC89AB
:1028E0004EF6F3100440B0883189084371890843DB
:1028F0000443AC81AC8A4FF6FF400440B0890443E6
:10290000AC8201A8FFF71AF81F48874202D1DDF810
:1029100010A001E0DDF80CA0A88900F4004040B14F
:102920000AEBCA0000EB0A1031684900B0FBF1F86D
:1029300007E00AEBCA0000EB0A1031688900B0FB1F
:10294000F1F86420B8FBF0F004012009642101FBD8
:102950001089A88900F4004040B1322000EBC90082
:10296000B0FBF1F000F00700044308E0322000EB78
:1029700009106421B0FBF1F000F00F0004432C813A
:1029800006B0BDE8F08700000038014000BFFEE758
:1029900041F6F420174909684242914202DA414265
:1029A000144A116013490968814201DD1149086028
:1029B000114909684242914202DA41420E4A1160CD
:1029C0000D490968814201DD0B4908600B4909681E
:1029D000B1F57A7F03DA4FF47A71084A116007493A
:1029E0000968B1F5FA6F03DD4FF4FA61034A11602B
:1029F00070470000280000202C000020300000203C
:102A0000490050EAC12018BF04204A0D18BF40F009
:102A1000010040F2FF72B2EB515F08BF40F00200CC
:102A2000012808BF052070470146002901DD08463E
:102A300070474842FCE700002DE9F74F144694B078
:102A40000021C4E902111599079121F00045C949F7
:102A50008D4206DC1599C4E9000117B00020BDE8DD
:102A6000F08FC549DFF814A3A9423CDD0799C44E95
:102A70000029C44FC44A1599534619DD01F0F0FEF0
:102A8000554506D0C14AC24B01F0EAFEC4E9000137
:102A90000AE04FF0D352BE4B01F0E2FE32463B4615
:102AA00001F0DEFEC4E9000117B00120BDE8F08F9F
:102AB00001F006FA554506D0B44AB54B01F000FACC
:102AC000C4E900010AE04FF0D352B14B01F0F8F92C
:102AD00032463B4601F0F4F9C4E9000117B04FF06B
:102AE000FF30BDE8F08FAB49A942159978DB21F0A2
:102AF000004183468846A84AA84B01F08BFC00227F
:102B0000A74B01F0DDF901F0EFFB099001F01BFC90
:102B100006460F469C4A534601F07CFC43465A4603
:102B200001F0ACFD80468A46984A994B30463946BA
:102B300001F070FC2A0D01250B924246534601F02C
:102B40009DFD032DC4E9000139D00B98C1F30A5152
:102B5000401A05EB45111139814230DA9148C346DC
:102B6000784400EB0510CDF80CA00C90D0E90023C0
:102B70003046394601F04EFC02460B460491069061
:102B80005846039901F06CFE80468A4602460B4681
:102B90005846039901F064FE049B069A01F060FE1A
:102BA00083460C9803913946D0E90223304601F060
:102BB00031FC5A46039B01F053FE6D1CBDE707989C
:102BC0000028A2BF099817B0BDE8F08F616881F0B6
:102BD00000416160099817B04042BDE8F08FFFE7FF
:102BE00084461598C1F31301C0F30A50A0F2F530E2
:102BF0004FEA601800F01F06C6F120001390002075
:102C00000690079041F4801E05206D4676B1664A15
:102C100008EB00017A4452F8213002EB8101B34005
:102C20004A68139922FA01F1194305E05F4908EB5C
:102C30000002794451F82210A1FB0E27A1FB0C13CE
:102C40001A449A4234BF0123002303EB070A05EB21
:102C50008003D3E901B70F448F4234BF0121002123
:102C600093448B4411B1934502D903E0934501D2BB
:102C7000012100E00021C3E901B7514445F82010CB
:102C8000011EA0F10100C1DC0298059F00F1005077
:102C9000800F12900298DDE90356800001F053FB8B
:102CA000834628460D9101F065FB6FF01D0202F08E
:102CB0005EFACDE90E01304601F05CFB6FF03D029B
:102CC00002F055FA80468A46384601F053FB6FF011
:102CD0005D0202F04CFA074642465346119101F05C
:102CE000EFF8DDE90E2301F0EBF85A460D9B01F0F9
:102CF000E7F800250E465A4628460D9B01F0B0FD28
:102D0000DDE90E2301F0ACFD4246534601F0A8FD7B
:102D10003A46119B01F0B2FCDFF898A0244A5346D2
:102D200001F078FB07468846234A244B3146284663
:102D300001F070FB3A46434601F0C2F80746884668
:102D40004FF0A84253463146284601F063FB3A460D
:102D5000434601F0B5F8159A12F0004F04D0129ACC
:102D600081F0004152421292C4E90001129817B05A
:102D7000BDE8F08FFB21E93F7CD90240FB21F93F00
:102D80007370032E8A19A33B000040543163621A0A
:102D900061B4D03DFB21394183C8C96D305FE43F48
:102DA0000000E03F8C31000008310000EA300000F4
:102DB000182D4454FB21F93D3326A611460B113C36
:102DC0002DE9F0414F1E00EBC7010446D1E9000197
:102DD00015461E4637F006020DD02A46334601F04E
:102DE00019FB7F1E04EBC703D3E9002301F068F849
:102DF00037F00602F1D1022F25D0042F13D0062F71
:102E000018BFBDE8F0812A46334601F003FBD4E940
:102E10000A2301F055F82A46334601F0FBFAD4E9BB
:102E2000082301F04DF82A46334601F0F3FAD4E9BD
:102E3000062301F045F82A46334601F0EBFAD4E9BF
:102E4000042301F03DF82A46334601F0E3FAD4E9C1
:102E5000022301F035F82A46334601F0DBFAD4E9C3
:102E60000023BDE8F04101F02BB800002DE9F04D42
:102E700004468CB0904821F00047164698460D460F
:102E80000991874206DA2046294601F02DFA0028EA
:102E900000F0AE808948B8421CDC09980028BCBF0D
:102EA00085F0004588F00048854A864B2046294633
:102EB00001F0E4FB04460D4632464346824883490E
:102EC00001F0CEFC22462B4600F0FAFF0026044615
:102ED0000D46B04622462B461046194601F09AFA96
:102EE0008B46824602460B4601F094FA0246089051
:102EF00077480B46009106217844FFF761FFCDE942
:102F00000310744806217844009B089AFFF758FF85
:102F100052465B4601F07EFACDE9051052465B460B
:102F20002046294601F076FA07910090DDE903106A
:102F3000DDE9053200F0C4FF079B009A01F06AFA50
:102F40003246434600F0BCFF52465B4601F062FA4F
:102F50003246434600F0B4FF80460E465E4A5F4B61
:102F60000799009801F056FA4246334600F0A8FF50
:102F700082468B4622462B4600F0A2FF80464F48F1
:102F80000E46B84214985BDC01F0DDF90746424674
:102F90003346059100F094FFCDE9011042463346D7
:102FA0001046194601F036FADDE9013201F044F825
:102FB00052465B4601F054FC22462B4601F05EFB74
:102FC000012202F0D4F83A46059B01F057FB044673
:102FD0000D460998022101EAA070C0F1010001F03C
:102FE000B2F90CB022462B46BDE8F04D01F012BA02
:102FF0001498401C384320430BD01498012812D059
:103000000CB022462B46BDE8F04D0020344901F0BB
:1030100013B80CB025F000432246BDE8F04D002067
:10302000304901F009B820462946FFF7E9FC042899
:1030300008BF00F073F820460CB02946BDE8F08DBB
:10304000012802BF40460CB0BDE8F08D00270B46BA
:103050003A462046294601F011FB52465B4601F0F4
:103060000DFB04460D464246334600201C4900F045
:10307000E3FF83463A4688463346104601F0CAF9D4
:103080000022184B00F01CFF06468A4622462B46BB
:103090003846414601F0BEF93246534600F010FF73
:1030A0005A46434601F0B6F90CB03A464346BDE8ED
:1030B000F04D00F005BF00000000303E2894E53FD1
:1030C000182D4454FB21E93F075C143326A6813CAC
:1030D000BC2E0000DE2E0000635555555555D53FDA
:1030E0000000F0BF0000F03F0022134610460149E7
:1030F00000F0A2BF0000F03F012202F038B800F05B
:10310000DFBE002213461046114600F095BF40F284
:10311000013200204FF0E04102F029B8024A0020BD
:10312000110702F024B8000001FDFFFF014600BFB7
:103130007047000000487047000100204FF0E02178
:10314000096921F004014FF0E0221161C21700EB80
:103150005272C2F3C702074B1A701946097801EB85
:103160004102C2EBC1114FF6FF7202EAC101024AED
:1031700011807047A0000020A200002001460D4AE7
:1031800012884A434FF0E0235A6100229A610122DB
:103190001A6100BF4FF0E022106900F001021AB17D
:1031A00000F48032002AF5D000224FF0E0231A61AB
:1031B0009A617047A20000200146084A128812B2A4
:1031C0000A60D1E90023D21A8A60D1E90223D21A17
:1031D0000A610A684A608A68CA607047240400402D
:1031E0000E4A127852B900BF0D4A128802F040020E
:1031F000002AF9D0C2B20A4B1B1D1A80074A127866
:10320000012A0AD100BF074A128802F04002002AB0
:10321000F9D0C2B2034B1B1D1A8070470100002079
:1032200000480040003801404FF4A060FEF76AF902
:103230004820FFF783FF0220FDF7A0FFFEF758F8B4
:10324000FDF7B4FFFEF7B4F9FDF792FCFDF7E8FCDB
:10325000FDF714FCFDF72CFB472142F20F70FEF73F
:1032600001FC002141F61F40FEF790F84FF4165084
:1032700000F0A0FD06E00448007818B9FDF754FA04
:1032800000F00FF8F7E700000100002010B502463B
:10329000012000E050430B1EA1F10104E1B2F9D17D
:1032A00010BD38B5FFF746FF0446102000900523F7
:1032B000002108462268FEF78DFA102000900523B1
:1032C0000A210020A268FEF785FA1020009005234D
:1032D000142100202269FEF77DFA0C2000900523BE
:1032E0001E215F20A269FEF775FAFEF7F9F938BDD5
:1032F0002DE9F04D1D460C4698B0174621F00041CF
:1033000023F00043002814BF4FF0010C4FF0000CD5
:103310000CEB440CFE4A0CEB02064FEA620C6645CD
:103320002BD33E0018BF012606EB45061644F94A8A
:10333000964222D3F84A53EA070C02D0944205D1B0
:1033400048B918B000201146BDE8F08D002808BF2C
:103350004FF0000C01D04FF0010C0CEB440212F5C1
:10336000001F0AD8002F14BF4FF0010C4FF0000CC3
:103370000CEB450212F5001F07D918B03A462B4650
:103380002146BDE8F04DFFF7BABE0022DFF88CA35E
:10339000002CB8BF534526DADFF884C36345A8BFC5
:1033A000022220DADFF870C39C451CDCDFF874C30E
:1033B0000CEB235CBCF1140F08DDCCF1340627FACA
:1033C00006FC0CFA06F6BE420DD108E05FB9CCF15E
:1033D000140623FA06FC0CFA06F69E4203D10CF002
:1033E0000102C2F1020251EA000C19D1002D17DAD4
:1033F000002C18BF022A01D0012A07D00220FCF7B6
:10340000D9FF18B0BDE8F04DFFF76EBE0220FCF703
:10341000D1FFFFF769FE18B081F00041BDE8F08DE3
:10342000B7F1000C6CD1534525D104F1804212F55F
:10343000801201BF00280020B74918B008BFBDE8BE
:10344000F08DB548884207DC002DA1BF60462946B3
:1034500018B0BDE8F08D07E0281E05DA80F00041C5
:1034600018B06046BDE8F08DAF497944D1E900015C
:1034700018B0BDE8F08DDFF8A0C2634525D1002D5E
:103480001FDA19B1514512D1D8B909E0002840F02E
:10349000EC82A24A214618B062F31E01BDE8F08D0D
:1034A0000020214618B060F31E01BDE8F08D08DA57
:1034B00018B02346BDE8F04D02460020614600F0FA
:1034C000BBBD18B02146BDE8F08D514518DAB5F105
:1034D000804F0DD0A5F1005CBCF1FF5C10D1B4F1C0
:1034E000000C0DDB18B06146BDE8F04D00F00ABCE1
:1034F000234618B00246BDE8F04D194600F08ABFD9
:10350000060024F0004C3BD1D9B1514533D1002CF9
:1035100006DD002DA1BF0020514618B0BDE8F08D9A
:10352000002C01DD002D1BDB002C13DA002D11DB3C
:10353000012A4FF0000014BF78497C4918B0BDE85B
:10354000F08D022A18BF002C0AD0012A08D1002CC5
:1035500006DA0AE0002CB8BF002D11DA012A04D0E7
:10356000002018B00146BDE8F08D18B000204FF0E3
:103570000041BDE8F08DA1F14050B0F17F601AD05C
:10358000012000EBE47050EA020421D0624C521E8C
:103590004FF0000B104304BF4FF0000B644C654824
:1035A00083427CDD644A654893421FDD884217DB15
:1035B000002D25DB37E0002C00DA4AB1022A0CBFCF
:1035C00001204FF0FF3018B0BDE8F04D00F0BBBE59
:1035D0000120FCF7EFFE18B0BDE8F04DFFF791BDFC
:1035E0004D4A8A4202DC002D0ADC1CE0814202DAEC
:1035F000002D18DA04E0484B994220DD002D12DD41
:103600000220FCF7D7FEFFF782FD05460E4600229A
:1036100053465846214600F0FDFE18B066F31E01E1
:103620002846BDE8F08D0220FCF7C4FEFFF776FDCA
:103630000A46214618B062F31E01BDE8F08D002253
:103640003046614601F00CF980460E466FF00102EB
:1036500001F08DFD4FF05532394B01F00FF8424625
:10366000334600F0D7FE0022364B01F007F88246C1
:103670004246334604911046194600F0CBFE5246AE
:10368000049B00F0C7FE8A4600904FF0C0422E4BCC
:103690004046314600F0BEFE2C4A2B4B00E027E0AE
:1036A000CDE906015146009800F0B4FE8246019132
:1036B000274A284B4046314600F0ACFE5246019B5B
:1036C00001F0CEF882460B4602460591DDE906017F
:1036D00000F0F6FBDDE9062300268846304601F0BF
:1036E000BFF85246059B00F0C9FF024600F07EB9C4
:1036F0000020B1F5801F07DA35223046614601F01F
:1037000036FD06466FF0340000EB215024E0000047
:10371000FFFF1F00FFFF0F000000F03F0000F07FE1
:103720000000404301FCFFFF7A2800000000F0FF8A
:103730000000F0BF0000E0410000F043FFFFEF3F5A
:103740005555D53F0000E03F4715F73FFE822B65FA
:1037500044DF5DF80BAE543EA0F2FF300190C1F3A0
:10376000130040F07F6141F040510291FE498842D0
:10377000D8BF002004DDFD498142C8BF012001DD22
:103780000D9008E000200D900198401C01900298D7
:10379000A0F5801002900299F54878440B910D999C
:1037A00000EBC100D0E900230F9330460A920B9939
:1037B00001F056F8CDE90601DDE90A2130460F9BFC
:1037C00000F07EFB02460B460020EA4900F034FC84
:1037D000059102460B460090DDE9060100F01AFE55
:1037E0001490E5488A464FF0000878440299006832
:1037F00012904FF0005040EA61010D980F9B01EBD1
:10380000804000F5002109910A9A129801F028F8E9
:1038100032460B9B00F032FF4246534600F0FAFD61
:103820000646029140465146099B129A00F0F2FD6D
:10383000DDE9062300F022FF3246029B01F010F87A
:10384000059B009A00F0E6FD0091149A04905346FF
:103850001046194600F0DEFD06460246C7480B46F4
:10386000029106217844FFF7ABFACDE90510029BDF
:1038700032461046194600F0CDFDDDE9053200F074
:10388000C9FD05910646534640461946149A00F074
:1038900017FB009B049A00F0BDFD3246059B00F02B
:1038A0000FFBCDE90510424653461046194600F07D
:1038B000B1FD0022B24B02910A9000F001FBDDE95C
:1038C000053200F0FDFA0E464246AD4B404600F090
:1038D000C7FF029B0A9A00F0C3FFDDE9053200F042
:1038E000CDFE424602910A9033461046514600F002
:1038F00091FDCDE906015346149A02990A9800F009
:1039000089FD8A460290334642460099049800F0A9
:1039100081FD5346029A00F0D3FA82460B460246D6
:103920000591DDE9060100F0CBFADDE90623002070
:103930008846064600F094FF5246059B00F09EFE26
:10394000824609914FF060428E4B3046414600F06E
:1039500061FD049006918C4A8A4B5046099900F00B
:1039600059FD82460291894A894B3046414600F012
:1039700051FD5246029B00F0A3FA864B7B440D9A00
:1039800003EBC203D3E9002300F09AFA0E900791EB
:10399000019800F0D8FC0591DDE9061382460E9AE5
:1039A000049800F08DFA7C4A7A440D9B02EBC30325
:1039B000D3E900230093029200F082FA5246059B5D
:1039C00000F07EFA0026884652463046059B00F0FD
:1039D00047FF009B029A00F043FF069B049A00F009
:1039E0003FFF079B0E9A00F049FE024600200B465F
:1039F00002903846294600F00DFD824601912B4683
:103A000038461946029A00F02BFF3246434600F032
:103A100001FD5246019B00F053FA07468A463246A2
:103A200043462946029800F0F5FC05460E463A4604
:103A3000534600F045FA594A8846914221DBA8EBEB
:103A4000020353EA000210D12A46334600F008FF71
:103A5000CDE90401524A534B3846514600F030FA42
:103A6000DDE9042300F0D4FD21D20220FCF7A2FC02
:103A7000FFF74DFB0A46214618B062F31E01BDE870
:103A8000F08D494B28F000429A4210D3474A08EB88
:103A9000020353EA00027FF4C6AD2A46334600F023
:103AA000DFFE3A46534600F0B3FD7FF6BCAD002280
:103AB000019228F000403E493E4A01EB20518242EB
:103AC00023DA481C4FF4801121FA00F040443A4AAE
:103AD000C0F30A517A44394BA1F2FF31CB4020EABE
:103AE0000303C0F3130040F48010C1F11401C84077
:103AF00012680190B8F1000FBCBF40420190284607
:103B0000314600F0ADFE05460E462A46334638469D
:103B1000514600F0D5F94FF000084246284B404688
:103B2000059100F077FCCDE90601264A264B404678
:103B3000059900F06FFC009102902A4633464046FA
:103B4000059900F08DFE3A46534600F097FD1F4A56
:103B50001F4B00F05FFC009B029A00F0B1F9074692
:103B6000884602460B4635E08E9803007AB60B0075
:103B7000C22400000000F03FFA24000028240000C6
:103B80000000084009C7EE3FFD033ADCF5015B1475
:103B9000E02F3EBE00230000C42200000000904041
:103BA000FE822B654715973C00CC904000346F3F58
:103BB00001FCFFFF0000E03F10220000FFFF0F00AC
:103BC000432EE63F396CA80C615C20BEEF39FAFE4B
:103BD000422EE63FDDE9060100F072F9DDE9062339
:103BE00005460E4600F03CFE3A46434600F046FDD0
:103BF0000F462A46334600901046194600F00AFC4C
:103C0000824602462E4888460B4605217844FFF737
:103C1000D7F85246434600F0FDFB2A46334600F0F3
:103C20002DFD80468A463B4628463146009A00F0E4
:103C3000F1FB3B46009A00F043F906910090002208
:103C40004FF080434046514600F00AFE0F460C906C
:103C5000424653462846314600F0DCFB3B460C9A70
:103C600000F0EAF9069B009A00F0FAFD2A46334676
:103C700000F0F6FD0022134B00F000FD0546019810
:103C80000E4601EB00510815002810DC284631468D
:103C9000019A01F06CFAFEF7B3FE042808BFFFF7A3
:103CA0003DFA28463146019A01F061FA05460B4675
:103CB00018B02A4658462146BDE8F04D00F0AABB90
:103CC000B02000000000F03F10B50246002010E0D8
:103CD0000A4B53F830305BB9084B43F8302003EB04
:103CE000C0035960064B1B785B1C054C237010BD4C
:103CF000401C3228ECDB00BFF9E70000780500200B
:103D0000FD0000202DE9F04106460F4600F0C2FC00
:103D1000041E0D4618BF0120284320F00040C0F1CA
:103D20007F6000F1E040C00F0ED0301C18BF0120B2
:103D3000384320F00040C0F17F6000F1E040C00F48
:103D400004BF0120FCF736FB20462946BDE8F08180
:103D500010B5164B21F00042012486B09A4203DCD4
:103D60000022134600941CE0114B9A4208D140B93E
:103D70004FF00100FCF71EFBFFF7C3F906B010BDC2
:103D800003DBFFF7B9F906B010BD02AAFEF754FE37
:103D900000F00100A4EB40000DF1080C00909CE83D
:103DA0000F00FFF763F806B010BD0000FB21E93FEC
:103DB0000000F07F10B586B0044601210420FDF715
:103DC0009DFD01218804FDF789FD4FF48060ADF869
:103DD000140003208DF8160018208DF8170005A98F
:103DE0001C48FCF795FF4FF40060ADF81400042068
:103DF0008DF8170005A91748FCF78AFF27208DF8D2
:103E0000000000208DF801008DF8020001208DF8DF
:103E100003006846FDF73EFB01940020ADF8080062
:103E2000ADF80A00ADF80C00ADF810000C20ADF8AC
:103E30000E0001A90848FEF73DFD012240F2255180
:103E40000548FEF711FD01210348FEF701FD06B00C
:103E500010BD0000000C01400048004021F000426D
:103E6000A2F16052B2F5801F01F0004328BFD2F1E9
:103E70007F6C0BD95FEA001C43EAC20242EB507030
:103E800018BF704728BF20F001007047B2F5801FAF
:103E9000BCBF184670474FEA410C1CF5001F02D208
:103EA000084601F086B870B500F05EFB000000899E
:103EB000FFF7F6BF4FF00040A0F58000704700000C
:103EC00010B591EA030F48BF83F0004300F1D0849E
:103ED000841A71EB030C05D2121943EB0C03001B7F
:103EE00061EB0C01DFF824E14FEA1154A4EB135C01
:103EF0001EEA430F18BF9EEA445F73D023EA0E0305
:103F0000DCF1200E21EA045143F4801332D322FA6B
:103F10000CFE10EB0E0023FA0CFE41EB0E01CCF16F
:103F2000200E03FA0EFE10EB0E0051F10001B1F568
:103F3000801FCCF1200E32D201EB045112FA0EF2A6
:103F4000BDE8104058BF7047401C38BF5FEA4202CE
:103F500018BF7047002814BF20F0010041F1000194
:103F60004FEA410313F5001F38BF7047A1F1C0416C
:103F700000F048BB012A43EB0302ACF1200CDCF15A
:103F80001F0E32BF4FF0000E23FA0CF310EB0300AC
:103F900041EB0451B4EB115FD0D0A1EB045101F51A
:103FA000801149085FEA300001EB04510ED350F153
:103FB000000038BF12FA0EFE08D1BDE81040C9E774
:103FC000401C38BF5FEA4202CAD1C3E7BDE81040D7
:103FD0004FEA410313F5001F38BF7047A1F1C041FC
:103FE00000F010BB9EEA445F08D011EA5E0FBDE806
:103FF000104004BF01F0004100207047BDE81040B0
:1040000070B500F0B1FA00BF64FBBE3E0000E0FFF7
:1040100002494FF0000001F078B800BF0000F87FBF
:10402000491058BFC1F140415B1058BFC3F1404334
:104030008B42EFF3008070472DE9C04130B4DFF8C8
:10404000A0C23CEA111418BF3CEA131400F0EC8043
:1040500081EA03051CEA111444EAD57418BF1CEA6E
:10406000131500F0C780A4EB05044FF0004545EAA6
:10407000C12145EAC32341EA505143EA525304F1B6
:104080007F74994204F500344FEAC0204FEAC222FF
:1040900008BF904200F09C804FEA13650FF2401673
:1040A000765D4FEA134506FB05F7C7F1807706FBFF
:1040B00007F74FEAD737A7FB03687642C8F5803881
:1040C000A7FB06CE38BFA8F1010807FB08E64FF0B2
:1040D000000EA6FB028CE6FB03CEDCF1000CCEF159
:1040E000004E38BFAEF1010EA6FB0C584FF0000792
:1040F0004FF00005E6FB0E87A1FB08C6A0FB07CE2C
:1041000016EB0E0645F10005E1FB076515F1E04EE3
:104110007EBFA4F580345FEA46066D4116F1800744
:1041200045F100054FEA17274FEA066647EA05679B
:10413000A6F1DE46B6F1805F4FEA15251FD9384655
:1041400024F0010C05EBC471BCF1FE6F01EB0C1106
:1041500002D8F0BCBDE8008124425CBF01F5801E9E
:104160009EEAC47F02D4F0BCBDE80081244238D46A
:10417000F0BCA1F1C041BDE8004100F043BA4FEAF4
:10418000D22242EA43524FEAD323A7FB02864FEAE8
:10419000D02040EA415007FB03661EEA0E0F4FEAAB
:1041A000D12105FB026658BFA6EB0056B6EB0056C0
:1041B0004FEA520E4EEAC37E18EB0E0E56EB530E2C
:1041C000BDD518EB02085E417F1C55F10005B6E72E
:1041D0004FF480154FF000074FF000064FF0000835
:1041E000ADE7F0BC4FF0000001F1C04101F000412B
:1041F000BDE8008111EA0C1F0CEA131500D00CE099
:1042000013EA0C1F00F025804FF00000F0BC81EA9B
:10421000030101F00041BDE80081F0BCBDE80041B0
:1042200081EA030100F0EEB9F0BCBDE8004170B5D1
:1042300000F09AF9097EFC3E00F007B881EA03011C
:104240004FF0000001F00041704781EA030100F0E7
:10425000D9B9F0BCBDE800414FF0000021497047DA
:10426000FFFDFBF9F7F5F4F2F0EEEDEBE9E8E6E43B
:10427000E3E1E0DEDDDBDAD8D7D5D4D3D1D0CFCDC2
:10428000CCCBCAC8C7C6C5C4C2C1C0BFBEBDBCBBFB
:10429000BAB9B8B7B6B5B4B3B2B1B0AFAEADACABF6
:1042A000AAA9A8A8A7A6A5A4A3A3A2A1A09F9F9ED0
:1042B0009D9C9C9B9A999998979796959594939382
:1042C000929191908F8F8E8E8D8C8C8B8B8A898919
:1042D000888887878685858484838382828181809C
:1042E0000000FF070000F87F4FEA41034FEA5353F5
:1042F000A3F58063D3F11E03C8BFD3F1210C0CDDFD
:104300004FF0004242EAC12242EA505232FA03FC24
:104310008CEAE17CACEBE1707047102BC4BF00204D
:10432000704703F5787CBCF1FF3F04D06FF000428A
:1043300082EA2100704770B500F016F94992248096
:1043400000207047F2E710F0004248BF4042B0FA48
:1043500080F310FA03F10AD0C3F11D0303F5806363
:104360004FEA415002EB035202EBD12170474FF06C
:1043700000007047B0FA80F310FA03F10AD0C3F1DD
:104380001D0303F580634FEA41504FEA035202EBED
:10439000D12170474FF000007047000051EA030C34
:1043A00017D41CF5801F58BFBCF5801F00F1068094
:1043B000994218BF704708BF9042704707D711F560
:1043C000801F58BF13F5801F19D499427047894246
:1043D00070471CF5801F08D5BCF5801FF7D58B42B0
:1043E00018BF704708BF824270474FF4001C1CEB97
:1043F000410F38BF1CEB430F01D28B42704770B5A1
:1044000000F0B2F8922449004FF000514FF0805371
:10441000FFF706BEDFF848C170B51CEA111E1EBFCB
:104420001CEA13159EEA0C0F95EA0C0F00F06F8042
:1044300081EA030423EA4C134EEAD47E21EA4C11AC
:1044400041F4801143F48013AE44A1FB024CA0FB65
:104450000365AEF17F7E361955EB0C05A1FB034CCD
:104460004CF10003A0FB021C16EB0C06654153F156
:104470000003094218BF46F0010613F4007F0BD178
:104480004FEA03314FEA0530340341EA155140EA5F
:1044900016506FF003020AE04FEAC3214FEAC5202D
:1044A000F40241EA555140EA56506FF0020202EB25
:1044B0002E4201EB025585EACE710AD05FEA440C28
:1044C00018BF24F0004450F1000041F1000120EA3F
:1044D000D47040F2FE7C624500D270BDA84214BF89
:1044E0004FF080444FF04044002E08BF0024BEF13E
:1044F000806FA8BFA1F1C041BDE8704080F282800A
:104500004FF0000001F1C04101F0004170479EEA08
:104510000C0F0CEA131518BF95EA0C0F06D04FF0DC
:10452000000081EA030E0EF0004170BD00F01CF89F
:104530008900013E00F007B800F009B84FEA430CCB
:104540005FEA5C5C08D081EA030100F05BB84FEAE7
:10455000410C5FEA5C5CF6D14FF000000149704706
:104560000000FF070000F87F0EF1020E2EF0030E90
:104570005EF8046B364205D4012A43EB030515F5BA
:10458000001F12D8012841EB010C1CF5001F0CD8AC
:104590000ED14FEAD17C15F5001F0CEB4C0C0CF141
:1045A000020C08BF4CEBD37C04E04FF0080C01E098
:1045B0004FEAD37C0CEB4C0526FA05F606F007060D
:1045C000B6F1040C06D20EEB860CBDE870404CF040
:1045D000010C6047DFE80CF0090B02024FF00041CC
:1045E0004FF00000A1F5002170BD194610460128CA
:1045F00051EB010418BFD4F5001484BF002001F072
:10460000004170BD0808A0F500114FEA3101704764
:1046100053EA010C17D41CF5801F58BFBCF5801F4E
:1046200000F106808B4218BF704708BF8242704776
:1046300007D713F5801F58BF11F5801F19D48B427F
:1046400070479B4270471CF5801F08D5BCF5801F42
:10465000F7D5994218BF704708BF904270474FF492
:10466000001C1CEB430F38BF1CEB410F01D29942D9
:1046700070470FB40CBC03BCFFF7C1BE91EA030F37
:1046800010B581F000413FF523AC83F0004300F00A
:10469000EFB800002DE9F04101F5801CBCF5001FCA
:1046A000C0F2C3804FEA115C21EA0C510CF1FD0C01
:1046B00041F480115FEA5C0C0CF5C07C01D3400032
:1046C00049413DA4890241EA905187028E0E0A0CAD
:1046D000A45D04FB04F602FB06F6C6F14046A4FB0B
:1046E0000662F60D46EA422606FB06F4A4FB012309
:1046F0005242C3F1404338BF5B1EA6FB0242002476
:10470000E6FB0324D20B42EA4446A6FB0623A1FBA8
:1047100002E2A3FB07E4A4184FF0000252F10002EA
:10472000E3FB01426442C2F1404E38BFAEF1010EDC
:10473000A6FB04234FF00002E6FB0E32A2FB034669
:104740004FF00004B61954F10004E2FB0264A1FB2F
:1047500006E6A4FB07E816EB08064FF0000858F140
:104760000008E4FB01687642C8F1405838BFA8F160
:104770000108A2FB06E4A3FB08E52D194FF0000495
:1047800054F10004E2FB0854A1FB05E6A7FB04E892
:1047900018EB06084FF0000656F10006E1FB048610
:1047A00018F1200556F10006A809A8F11B08B10967
:1047B00008F03F08B8F10A0F40EA86601CD901EB07
:1047C0000C51BDE8F08100BFFCF5EEE8E2DDD8D386
:1047D000CFCBC7C3C0BDB9B6B4B1AEACA9A7A5A372
:1047E000A19F9D9B9A9896959392908F8D8C8B8983
:1047F0008887868584838281A0FB006800FB01F2A4
:1048000008EB4208B8EB872807D5341858EB0104A9
:10481000D5D5401C51F10001D1E7341A78EB0104E1
:10482000CDD4401E71F10001C9E75FEA4C0C5FEA8C
:104830009C5C0DD105D34FF0000001F00041BDE8B4
:10484000F081BDE8F04170B5FFF78EFE6DDBFFBE75
:10485000BDE8F0414FF00000004970470000F87FCC
:1048600010B591EA030F48BF83F000433FF530AB2A
:10487000841A71EB030C07D212198CF0004C43EB35
:104880000C03001B61EB0C01DFF8A4E14FEA1154AB
:10489000A4EB135C1EEA430F18BF9EEA445F00F0CE
:1048A000B08023EA6E03524221EA0451C3EB6E0347
:1048B00038BF5B1EDCF1200E25D322FA0CFE10EB74
:1048C0000E0043FA0CFE41EB0E01CCF1200E03FA70
:1048D0000EFE10EB0E0051F10001CCF1200E29D498
:1048E00012FA0EF201EB0451BDE8104058BF7047B8
:1048F000401C1CBFB2F1004F704700280CBF491C80
:1049000020F00100704712EB020E43EB030218BFC8
:104910004FF0010E4EEA4202ACF1200CDCF11E0E0B
:1049200054D943FA0CFE10EB0E0051F1FF31CCF1DB
:104930001E0ED5D50EF1010E12FA0EFE404141EBCE
:10494000010101EB445C5FEA5C5C10D910EBDE70A6
:1049500001EB045138BFBEF1004FBDE8104018BF55
:10496000704700280CBF491C20F00100704730D26E
:104970004FEAD42C11F5001124F400641BD0B1FAD5
:1049800081F20B3AA41AA41ED2F12003914030FA0E
:1049900003F31943904001EBCC71002C01EB04515F
:1049A000BDE81040A8BF704701F1C0414FF00000C2
:1049B00001F000417047B0FA80F310FA03F100D122
:1049C00010BDE41A173C4805C90AE4E701EB04519D
:1049D00010BD491001EB0451BDE810404FEA300012
:1049E00002E04FF0000170474A0008BF0042F8D0D3
:1049F000B2F5001F28BF704701F000414FF00000E2
:104A000070479EEA445F07D011EA5E0FBDE8104090
:104A100004BF002100207047BDE8104070B5FFF7CB
:104A2000A3FD00BF40DFF63E83F000411046704713
:104A30000000E0FF43004FEAD30C4FEA3C0C434038
:104A40001FBF40070CF1605113F0FE4F70471CF080
:104A5000006F03D100200CF0004170470CF00043C0
:104A600043EA507010B540EACC0000F05CFA00BF99
:104A7000000000924FEA0001FFF7C4BD4FF0004173
:104A80004FF00000A1F500217047000090EA010FEF
:104A900048BF81F0004100F1CA82421A3CBF801A2F
:104AA00089184FEAD0524FF07F4C1CEA410FA2EB1D
:104AB000D15318BF9CEA026F00F03B804FF0004CCE
:104AC0004CEA00204CEA012121FA03FC10EB0C0C0B
:104AD0001ED202F1FF325FEA1C2040EBC25038BF09
:104AE00070471CF07F0F4FEA400C18BFBCF17F4F9E
:104AF00038BF7047C3F12003994008BF20F0010080
:104B0000BCF17F4F38BF7047A0F1C04000F051BAF0
:104B10004FEA3C00000A40EBC25028BF1CF0FF0FD8
:104B20004FEA400CE6D018BFBCF17F4F38BF70474A
:104B3000EAE79CEA026F05D010EA5C0F08BF00F0BC
:104B40000040704710B500F0EEF900BF64FBBE3EB8
:104B5000401058BFC0F14040491058BFC1F140411A
:104B60008142EFF3008070474FF47F0C1CEAD012B3
:104B70001EBF1CEAD11392EA0C0F93EA0C0F00F04F
:104B8000858090EA010F48BF42F4807240F4000C27
:104B900041F400002CF07F4120F07F4000B58142BD
:104BA000A2EB03020FF2081CACEB504EC0F1000068
:104BB0009EF800E04FEA4E0E00FB0EFC38BF4900A5
:104BC0004FEA2C1C02F5FA020CFB0EF34FEACE1E44
:104BD0004FEA112C4FEAC1210EEB635E42EB2242F9
:104BE0000EFB0CFC4FEA1C5300FB03114FEA112C87
:104BF0004FEA01310EFB0CFC4FEADC4C00FB0C11C0
:104C0000C14228BF09184CEB03335DF804EB10EBED
:104C1000410143EBC250B2F57C0F38BF704729D534
:104C200012F0F00F1CBF00F1C04000F000407047D0
:104C3000008182838485868788898B8C8D8E8F9175
:104C40009293959697999A9C9D9FA0A2A3A5A7A899
:104C5000AAACAEB0B2B3B5B7B9BCBEC0C2C5C7C9C5
:104C6000CCCED1D4D7D9DCDFE2E6E9ECF0F3F7FA29
:104C7000FE0000004FEA400C0CF1807CBCF17E4F3E
:104C800028BF7047B0F1C04000F093B990EA010F1F
:104C90000CEAD11348BF42F48072624538BF6345C5
:104CA00007D213F47F0F16D080EA010000F0004015
:104CB000704710B500F037F9097EFC3E00F005B8EA
:104CC00080EA010000F00040704780EA010000F037
:104CD000004000F06EB912F47F0F04BF0248704725
:104CE00080EA010000F065B90000C07F41000B0EB2
:104CF000D3F19E0208D950F400034FEA032323FAAC
:104D000002F048BF4042704710B500F00CF900BFF8
:104D100049922480002070476FF0004282EA200010
:104D200070470000C10DD1F19E0206DB4FEA00235F
:104D300043F0004323FA02F07047004207D54FEAE0
:104D40004001B1F1FE4F02D24FF00000704710B5A4
:104D500000F0E9F849922480002070476FEA2000B3
:104D60007047000010F0004148BF4042B0FA80F3A5
:104D700010FA03F2C3F19D030BD051EAC35101EBCA
:104D80001220530638BF704700F1010008BF20F021
:104D900001007047B0FA80F310FA03F2C3F19D03EB
:104DA0000AD0D90501EB1220530638BF704700F135
:104DB000010008BF20F001007047000050EA010C1C
:104DC00000F113801CF5000F58BFBCF5000F01D493
:104DD0008842704707D710F5000F58BF11F5000F34
:104DE00015D488427047894270471CF5000F04D5DE
:104DF000BCF5000FF7D5814270474FF0807C1CEB6B
:104E0000400F38BF1CEB410F01D28142704710B5F3
:104E100000F089F8922449004FF000504FF0805183
:104E2000FFF796BE4FF47F0C1CEAD0121EBF1CEA9F
:104E3000D11392EA0C0F93EA0C0F00F0478090EA2E
:104E4000010F48BF42F480724FF0004C4CEA002042
:104E50004CEA012102EB0302A0FB0113A2F50002C0
:104E6000002918BF43F001035B0028BF4FEA33035A
:104E700042EB22425FEA132C4CEBC2502EBFBCEB3C
:104E8000436FB2F57C0F70474FEA036CBCF1004FE3
:104E900008BF20F00100B2F57C0F38BF70470BD57A
:104EA00082F0FF0212F5803FC8BF704700F1C0409A
:104EB000D8BF00F00040704700F5000C5FEA4C0CD2
:104EC00048BF7047B0F1C04000F073B890EA010FDE
:104ED0000CEAD11348BF42F48072624538BF634583
:104EE00004D280EA010000F00040704710B500F0E5
:104EF0001AF800BF8900013E00F007B800F009B8B9
:104F00005FEA410C5FEA1C6C08D080EA010000F007
:104F100050B85FEA400C5FEA1C6CF6D14FF00040DD
:104F2000A0F5800070470EF1020E2EF0030E5EF821
:104F3000044B244204D44FEA4102B2F17F4F11D80E
:104F40004FEA4003B3F17F4F0CD80ED14FEAD07C2B
:104F5000B2F17F4F0CEB4C0C0CF1020C08BF4CEB88
:104F6000D17C04E04FF0080C01E04FEAD17C0CEB5F
:104F70004C0324FA03F404F00704B4F1040C06D241
:104F80000EEB840CBDE810404CF0010C6047DFE8EC
:104F90000CF0070802024FF00040A0F5800010BDA1
:104FA0000846420018BFD2F1807288BF00F000406E
:104FB00010BDFF2141EAD050C005704751EA000CF6
:104FC00000F113801CF5000F58BFBCF5000F01D491
:104FD0008142704707D711F5000F58BF10F5000F39
:104FE00015D481427047894270471CF5000F04D5E3
:104FF000BCF5000FF7D5884270474FF0807C1CEB62
:10500000410F38BF1CEB400F01D28842704780EA45
:10501000010081EA000180EA0100FFF7F8BE00000C
:1050200090EA010F48BF81F000413FF536AD421ACA
:1050300004D882F00042A0EB020011444FEAD052A3
:105040004FF07F4C1CEA410FA2EBD15318BF9CEAF2
:10505000026F4AD04FF0004C4CEA00204CEA01218C
:1050600021FA03FCB0EB0C0C0FD412F0FE0F36D07B
:105070005FEA4C001DD5001240EBC25038BF7047AC
:105080001CF03F0F18BF70470BE0A2F101025FEA6E
:105090001C2040EBC25038BF70471CF07F0F18BF78
:1050A0007047C3F12003994014BF401E20F0010057
:1050B000704780084FEA122308BF7047B0FA80FC9F
:1050C000A2EB0C02CCF1280C60FA0CF093EA122F40
:1050D00004BF00EBC25070474FEAC3707047130A19
:1050E0005FEADC1008BF7047F6E79CEA026F04D065
:1050F00010EA5C0F08BF0020704710B5FFF713FFE0
:1051000040DFF63E81F0004070470CF00F03092BA2
:1051100008BF082000F059800A2B0BD0082B18BFBD
:10512000704708BF1CF0400F0AD04FF000004FF04E
:10513000000170471CF0400F18BF4FF0004070474F
:105140001CF0100F08D020F0704300F07F4242EABC
:10515000D3014FEA4370704700F0604021F07F4276
:1051600042EA000201F07F4040EA727070474FF05F
:10517000FF0C4CF4E06C1CEA11531CBF9CEA030CBE
:105180009445C2BFDA4201EB02517047002B0DD0AB
:10519000BCF1000F0FD0002A01F00041A4BF41F084
:1051A000E04141F07F614FF00000704701F00041A5
:1051B0004FF00000704750EA01334FF09B0C18BFCE
:1051C0004CF0806C7EF424AF70471CF4801F11D02B
:1051D0001CF4E02F03D06FEACC31490070474FF048
:1051E0004050EFF3008222F0704242EA000282F364
:1051F000008870474FF0000070470000000000007A
:10520000000000000000000000003F40000000001F
:1052100000000000300040003000400000000900A5
:105220000BC03D000BC03D00090018C024407FE0CA
:10523000224031800000180024C01B000D80324045
:10524000018003801C4027401C8007400040100064
:1052500060000000000000000000000000000000EE
:105260001F80204040200000402020401F80000080
:105270000000090006001F8006000900000004006D
:1052800004003F80040004000000001000600000E3
:1052900000000000000004000400040004000400FA
:1052A000000000000040000000000000000000209E
:1052B00001C006003800400000001F802040204050
:1052C00020401F800000000010403FC00040000050
:1052D000000018C0214022402440184000001080E7
:1052E0002040244024401B80000002000D001100DB
:1052F0003FC0014000003C802440244024402380E3
:1053000000001F802440244034400380000030000F
:10531000200027C03800200000001B8024402440CB
:1053200024401B8000001C0022C0224022401F801D
:105330000000000000000840000000000000000025
:1053400000000460000000000000000004000A00EB
:1053500011002080404009000900090009000900EF
:10536000000000004040208011000A0004001800E6
:10537000200023402400180000001F802040274008
:1053800029401F400000004007C039000F0001C045
:10539000004020403FC0244024401B8000001F806C
:1053A0002040204020403080000020403FC020406E
:1053B00020401F80000020403FC024402E4030C0CD
:1053C000000020403FC024402E00300000000F00AD
:1053D0001080204022403380020020403FC0040063
:1053E00004003FC02040204020403FC020402040DB
:1053F00000000060202020203FC02000200020402E
:105400003FC024400B0030C0204020403FC020401F
:105410000040004000C03FC03C0003C03C003FC013
:10542000000020403FC00C4023003FC020001F80F0
:105430002040204020401F80000020403FC02440EA
:105440002400180000001F802140214020E01FA000
:10545000000020403FC02440260019C0004018C072
:1054600024402440224031800000300020403FC0D2
:1054700020403000000020003F80004000403F807E
:10548000200020003E0001C0070038002000380046
:1054900007C03C0007C038000000204039C00600AB
:1054A00039C0204000002000384007C038402000AC
:1054B0000000304021C02640384020C000000000DD
:1054C00000007FE0402040200000000070000C0041
:1054D0000380004000000000402040207FE00000EA
:1054E000000000002000400020000000000000102C
:1054F000001000100010001000100000000040001C
:10550000000000000000000002800540054003C0CC
:10551000004020003FC00440044003800000000021
:105520000380044004400640000000000380044063
:1055300024403FC000400000038005400540034078
:105540000000000004401FC0244024402000000050
:1055500002E0055005500650042020403FC00440A2
:10556000040003C000400000044027C000400000C9
:10557000000000100010041027E000000000204090
:105580003FC00140070004C00440204020403FC00D
:1055900000400040000007C0040007C0040003C032
:1055A0000000044007C00440040003C000400000A5
:1055B00003800440044003800000041007F00450FE
:1055C000044003800000000003800440045007F002
:1055D0000010044007C00240040004000000000066
:1055E00006400540054004C00000000004001F8084
:1055F000044000400000040007800040044007C051
:1056000000400400070004C00180060004000600FA
:1056100001C0070001C006000000044006C00100F0
:1056200006C0044000000410071004E001800600DA
:1056300004000000044005C00640044000000000D3
:10564000000004007BE0402000000000000000009B
:10565000FFF000000000000040207BE0040000009C
:1056600000004000800040002000200040000000BA
:10567000000000000000000000000000000000002A
:10568000000000001FCC000C000000000000000023
:1056900008003000600008003000600000000220B8
:1056A00003FC1E20022003FC1E200220000000003C
:1056B0000E1811043FFF10840C78000000000F004A
:1056C00010840F3800C00778188400780000007834
:1056D0000F8410C411240E9800E400840008080010
:1056E00068007000000000000000000000000000E2
:1056F0000000000007E0181820044002000000002D
:1057000040022004181807E00000000000000240DA
:10571000024001800FF00180024002400000008042
:10572000008000800FF800800080008000000001F1
:10573000000D000E0000000000000000000000004E
:1057400000800080008000800080008000800000D9
:10575000000C000C00000000000000000000000031
:1057600000060018006001800600180020000000FC
:1057700007F0080810041004080807F000000000F3
:10578000080408041FFC00040004000000000000DE
:105790000E0C10141024104411840E0C0000000094
:1057A0000C1810041104110412880C700000000081
:1057B00000E00320042408241FFC00240000000053
:1057C0001F9810841104110410881070000000004C
:1057D00007F0088811041104188800700000000008
:1057E0001C00100010FC13001C0010000000000042
:1057F0000E3811441084108411440E38000000004B
:105800000700088C10441044088807F000000000CE
:1058100000000000030C030C00000000000000006A
:105820000000000101060000000000000000000070
:10583000008001400220041008081004000002202B
:10584000022002200220022002200220000000008C
:10585000100408080410022001400080000000002D
:105860000E001200100C106C10800F00000003E0FE
:105870000C1813E4142417C4082807D000000004EF
:10588000003C03C41C40074000E4001C000410045A
:105890001FFC1104110411040E880070000003E0C5
:1058A0000C1810041004100410081C100000100440
:1058B0001FFC100410041004080807F00000100476
:1058C0001FFC1104110417C4100408180000100470
:1058D0001FFC1104110017C010000800000003E0B5
:1058E0000C181004100410441C7800400000100430
:1058F0001FFC10840080008010841FFC1004000036
:10590000100410041FFC1004100400000000000329
:105910000001100110011FFE100010000000100413
:105920001FFC110403801464181C100400001004F0
:105930001FFC1004000400040004000C000010040C
:105940001FFC1F0000FC1F001FFC100400001004BF
:105950001FFC0C04030000E010181FFC100007F0EF
:105960000808100410041004080807F000001004D0
:105970001FFC10841080108010800F00000007F0C2
:10598000081810241024101C080A07F20000100444
:105990001FFC1104110011C011300E0C0004000096
:1059A0000E1C11041084108410441C3800001800D0
:1059B000100010041FFC100410001800000010005C
:1059C0001FF810040004000410041FF81000100059
:1059D0001E0011E0001C007013801C0010001FC08E
:1059E000103C00E01F0000E0103C1FC0000010044D
:1059F000180C163401C001C01634180C1004100025
:105A00001C00130400FC13041C0010000000080418
:105A1000101C1064108413041C04101800000000F3
:105A2000000000007FFE4002400240020000000033
:105A300030000C0003800060001C00030000000028
:105A40004002400240027FFE000000000000000013
:105A50000000200040004000400020000000000145
:105A6000000100010001000100010001000100002F
:105A70004000400020000000000000000000000086
:105A80000098012401440144014400FC000410007A
:105A90001FFC008801040104008800700000000061
:105AA0000070008801040104010400880000000067
:105AB000007000880104010411081FFC00040000AC
:105AC00000F8014401440144014400C80000000002
:105AD000010401040FFC110411041100180000005E
