:020000040800F2
:10000000D80C0020CD010008950A0008550A000808
:10001000910A0008CB020008FB1400080000000051
:100020000000000000000000000000004D0B000870
:10003000CF02000800000000090B0008610C000856
:10004000E7010008E7010008E7010008E7010008F0
:10005000E7010008E7010008E7010008E7010008E0
:10006000E7010008E7010008E7010008E7010008D0
:10007000E7010008E7010008E7010008E7010008C0
:10008000E7010008E7010008E7010008E7010008B0
:10009000E7010008E7010008E7010008E7010008A0
:1000A000E7010008E7010008E7010008E701000890
:1000B000E7010008E7010008E7010008E701000880
:1000C000E7010008E7010008E7010008E701000870
:1000D000E701000815140008E7010008E70100081F
:1000E000E7010008E7010008E7010008E701000850
:1000F000E7010008E7010008E7010008E701000840
:10010000E7010008E7010008E7010008E70100082F
:10011000E7010008E7010008E7010008E70100081F
:10012000E7010008E7010008E7010008E70100080F
:1001300000F002F800F03AF80AA090E8000C8244BF
:100140008344AAF10107DA4501D100F02FF8AFF29C
:10015000090EBAE80F0013F0010F18BFFB1A43F0A5
:1001600001031847D41E0000F41E0000103A24BFFB
:1001700078C878C1FAD8520724BF30C830C144BF0C
:1001800004680C607047000000230024002500264E
:10019000103A28BF78C1FBD8520728BF30C148BFEA
:1001A0000B6070471FB51FBD10B510BD00F05AF8A9
:1001B0001146FFF7F7FF01F0EDF900F078F803B40E
:1001C000FFF7F2FF03BC01F09AF9000009488047ED
:1001D00009480047FEE7FEE7FEE7FEE7FEE7FEE729
:1001E000FEE7FEE7FEE7FEE704480549054A064B41
:1001F00070470000650C000831010008D806002097
:10020000D80C0020D8080020D808002070474FF0F4
:10021000000200B5134694469646203922BFA0E856
:100220000C50A0E80C50B1F12001BFF4F7AF090762
:1002300028BFA0E80C5048BF0CC05DF804EB890053
:1002400028BF40F8042B08BF704748BF20F8022B96
:1002500011F0804F18BF00F8012B704770477047AE
:1002600070477047754600F02BF8AE4605006946AA
:10027000534620F00700854618B020B5FFF7B4FFBD
:10028000BDE820404FF000064FF000074FF0000897
:100290004FF0000B21F00701AC46ACE8C009ACE818
:1002A000C009ACE8C009ACE8C0098D46704710B57C
:1002B0000446AFF300802046BDE81040FFF77FBF43
:1002C0000048704778060020704700BFFEE770477F
:1002D0002DE9F041024600250026002000230024DD
:1002E000002791F803C00CF00F0591F803C00CF043
:1002F000100CBCF1000F03D091F802C04CEA0505C8
:1003000091F800C0BCF1000F31D0146800202BE040
:100310004FF0010C0CFA00F3B1F800C00CEA030630
:100320009E4220D183004FF00F0C0CFA03F7BC4320
:1003300005FA03FC4CEA040491F803C0BCF1280F51
:1003400006D14FF0010C0CFA00FCC2F814C00AE010
:1003500091F803C0BCF1480F05D14FF0010C0CFA25
:1003600000FCC2F810C0401C0828D1D31460B1F8BA
:1003700000C0BCF1FF0F34DD546800202EE000F116
:10038000080C4FF0010808FA0CF3B1F800C00CEAB1
:1003900003069E4221D183004FF00F0C0CFA03F7A5
:1003A000BC4305FA03FC4CEA040491F803C0BCF119
:1003B000280F05D100F1080C08FA0CF8C2F81480D7
:1003C00091F803C0BCF1480F07D100F1080C4FF0C1
:1003D000010808FA0CF8C2F81080401C0828CED397
:1003E0005460BDE8F08101617047000000B589B03C
:1003F0000121084600F08AFB0121042000F096FB51
:100400000320ADF8040004208DF8070001A922485C
:10041000FFF75EFF1C208DF8200001208DF82300DF
:100420008DF8210003208DF8220008A800F034FB8D
:1004300005A800F0E5FF0020ADF814004FF6FF70AE
:10044000ADF818000020ADF81A00ADF8160005A9A7
:100450004FF0804000F082FF00231A4603214FF046
:10046000804000F06AFD02A800F0DEFD0A20ADF831
:10047000100002A9400700F081FD0121880700F06B
:100480004DFD01221146900700F0D7FD012188079C
:1004900000F047FD09B000BD0008014000B589B07B
:1004A0000121022000F032FB0121042000F03EFB7C
:1004B000C020ADF8040004208DF8070001A92148F0
:1004C000FFF706FF1D208DF8200001208DF8230086
:1004D0008DF8210003208DF8220008A800F0DCFA36
:1004E00005A800F08DFF0020ADF814004FF6FF7056
:1004F000ADF818000020ADF81A00ADF8160005A9F7
:10050000114800F02BFF00231A4603210E4800F08B
:1005100014FD02A800F088FD0A20ADF8100002A921
:10052000094800F02BFD0121074800F0F7FC0122EB
:100530001146054800F081FD0121034800F0F1FC5F
:1005400009B000BD000801400004004008B50121C9
:10055000042000F0EBFA48208DF803002020ADF8CD
:10056000000003208DF8020069460248FFF7B0FE44
:1005700008BD00000008014008B50121042000F07A
:10058000D5FA10208DF80300ADF8000003208DF897
:10059000020069460348FFF79BFE10210148FFF760
:1005A00022FF08BD0008014030B589B005460C4661
:1005B0000121042000F0AAFA0121082000F0B6FA77
:1005C00018208DF807004FF47070ADF80400032078
:1005D0008DF8060001A93348FFF77AFEADF81C50EC
:1005E000ADF818400020ADF81A00ADF81E0006A9BD
:1005F0002D4800F0B3FE6020ADF808000120ADF8F2
:100600000A000020ADF80E00ADF8100002A926483F
:1006100000F01CFD6020ADF808000120ADF80A00D4
:100620000020ADF80E00ADF8100002A91E4800F041
:1006300063FD6020ADF808000120ADF80A0000203D
:10064000ADF80E00ADF8100002A9174800F0B4FD97
:100650006020ADF808000120ADF80A000020ADF8D8
:100660000E00ADF8100002A90F4800F0FFFD0821B0
:100670000D4800F037FD08210B4800F08FFD0821E0
:10068000094800F0E9FD0821074800F02DFE01218E
:10069000054800F037FC0121034800F042FC09B096
:1006A00030BD0000000C01400008004030B50024BF
:1006B0000CE0002506E00020074901EBC5010855C4
:1006C000681CC5B2802DF6DB601CC4B2082CF0DBC0
:1006D00000F0D0F830BD0000B0010020F0B51446A5
:1006E00000267F2801DC3F2900DDF0BD0B46CF1737
:1006F00001EB5777FF10C7F10707FAB2CF1701EBED
:100700005777FF10A1EBC707FDB2C5F1070701231B
:10071000BB40DEB24CB10A4B03EBC0039B5C3343DE
:10072000074F07EBC007BB5408E0054B03EBC003C2
:100730009B5CB343024F07EBC007BB5400BFD4E739
:10074000B001002008B501210C2000F0EFF91020C5
:100750008DF803003820ADF8000002208DF802006B
:1007600069464048FFF7B4FD10208DF80300C00231
:10077000ADF8000002208DF8020069463A48FFF704
:10078000A7FD002039490860642000F0DDFE01204B
:100790003749C1F88C010021AE2000F02FF900216B
:1007A000D52000F02BF90021502000F027F900217E
:1007B000A82000F023F900213F2000F01FF90021BC
:1007C000D32000F01BF90021084600F017F90021A2
:1007D000402000F013F900218D2000F00FF90021D6
:1007E000142000F00BF90021202000F007F900216F
:1007F000022000F003F90021A12000F0FFF8002101
:10080000C02000F0FBF80021DA2000F0F7F800210A
:10081000122000F0F3F80021812000F0EFF8002111
:10082000EF2000F0EBF80021D92000F0E7F80021DC
:10083000F12000F0E3F80021DB2000F0DFF80021D8
:10084000302000F0DBF80021A42000F0D7F80021D0
:10085000A62000F0D3F80021AF2000F0CFF8FFF77A
:1008600025FF08BD000C0140000801408C81214299
:100870000080214230B500241CE004F1B001C8B270
:10088000002100F0BBF80021084600F0B7F8002175
:10089000102000F0B3F8002508E0084901EBC5017D
:1008A000085D012100F0AAF8681CC5B2802DF4DBB8
:1008B000601CC4B2082CE0DB30BD0000B001002099
:1008C0002DE9F04F80460C4615461E46A346A5F17D
:1008D0002000C5B200273EE00C2E07D105EB4500F5
:1008E0001F4901EB800010F8079004E01D4800EB61
:1008F000051010F807904FF0000A26E009F080007C
:1009000028B121464046099AFFF7E8FE09E0099818
:1009100008B9012000E00020024621464046FFF7CA
:10092000DDFE4FEA49604FEA1069601CC4B2A4EBD7
:100930000B00B04205D15C4608F1010000F0FF0851
:1009400006E00AF1010000F0FF0ABAF1080FD5DB5A
:1009500000BF781CC7B2B742BEDBBDE8F08F000015
:10096000D2150008461A00082DE9FF4F81B007464E
:1009700091461E460E9D4FF0000A002439E0301BC0
:10098000401EC1B20A2000F019FEB9FBF0F00A21A6
:10099000B0FBF1F201FB1208BAF1000F16D1701E84
:1009A000A04213DDB8F1000F0ED10120AB4605EBDC
:1009B000DB71491001FB04710090C8B22B46202264
:1009C0000299FFF77DFF12E04FF0010A0120AB46CC
:1009D00005EBDB71491001FB04710090C8B208F10E
:1009E0003001CAB22B460299FFF76AFF00BF601CB4
:1009F000C4B2B442C3DB05B0BDE8F08F10B50A46FF
:100A00001AB10123114C236002E000230F4C236034
:100A1000002114E000230E4C236000F080031BB182
:100A20000123241F236003E00023094C241F2360BB
:100A30000123074C23604306180E4B1CD9B208292A
:100A4000E8DB0123014C236010BD0000BC01214202
:100A50009481214200BFFEE710B5FFF78DFDFFF73F
:100A600075FDFFF7C3FCFFF719FD002141F61F409C
:100A7000FFF79AFDFFF766FE10BD000010B54FF4BA
:100A8000C8710248FFF7C3FB10BD00002000002022
:100A900000BFFEE77047000070B5002100230F2261
:100AA000C47804B3154C246804F4E064C4F5E0642D
:100AB000210AC1F10403CA40447804FA03F184789E
:100AC0001440214309010E4C0678A155047804F026
:100AD0001F050124AC4005786D11AD0005F1E0253E
:100AE000C5F8004109E0047804F01F050124AC407A
:100AF000044D0678761145F8264070BD0CED00E0F7
:100B000000E400E080E100E07047000029B1064AFF
:100B1000D2690243044BDA6104E0034AD26982439A
:100B2000014BDA61704700000010024029B1064A0B
:100B300092690243044B9A6104E0034A926982433A
:100B4000014B9A617047000000100240704710B5D9
:100B500000F002F810BD00000CB5002001900090DC
:100B60003348006840F480303149086000BF3048A5
:100B7000006800F4003000900198401C019000983B
:100B800018B90198B0F5A06FF1D12948006800F4B8
:100B9000003010B10120009001E00020009000988A
:100BA000012843D12348006840F010002149086023
:100BB0000846006820F0030008600846006840F01E
:100BC000020008601A4840681949486008464068B1
:100BD00048600846406840F48060486008464068C5
:100BE00020F47C1048600846406840F4E8104860F3
:100BF0000846006840F08070086000BF0C4800683C
:100C000000F000700028F9D00948406820F0030087
:100C1000074948600846406840F00200486000BF4D
:100C20000348406800F00C000828F9D10CBD000012
:100C30000010024000200240042808D14FF0E021BB
:100C4000096941F004014FF0E022116107E04FF023
:100C5000E021096921F004014FF0E02211617047A1
:100C60007047000010B51348006840F001001149BA
:100C7000086008464068104908400E494860084628
:100C800000680E4908400B4908600846006820F4D7
:100C9000802008600846406820F4FE0048604FF459
:100CA0001F008860FFF753FF4FF0006004490860A1
:100CB00010BD0000001002400000FFF8FFFFF6FE2C
:100CC00008ED00E0F0B50C46154600220021068C28
:100CD0004FF6FE773E400684028B018C4FF60C7671
:100CE00032407E1C06EA03162E433243104EB042B9
:100CF0000ED0104EB0420BD0B0F1804F08D00E4E47
:100D0000B04205D00D4EB04202D00D4EB04206D1D9
:100D10004FF6FD76314044F00106314305E04FF6D1
:100D2000F576314044F00106314302830184F0BD81
:100D3000002C014000340140000400400008004045
:100D4000000C0040F0B50C4615460022002100269C
:100D5000078C4FF6EF7C07EA0C070784028B018CA7
:100D60004FF6FF7707EA041640F6FF473A404FF682
:100D7000FF7707EA03373A434FF6FF7707EA05277D
:100D80003A43114FB8420ED0104FB8420BD0B0F1D9
:100D9000804F08D00E4FB84205D00E4FB84202D057
:100DA0000D4FB84206D14FF6DF77394046F01007B5
:100DB000394305E04FF65F77394044F01007394377
:100DC00002830184F0BD0000002C0140003401408A
:100DD0000004004000080040000C0040F0B50C4644
:100DE0001546002200210026078C4FF6FF6C07EA0B
:100DF0000C070784828B018C4FF6FF7707EA0426E5
:100E00004FF60C773A404FF6FF7707EA03172F4368
:100E10003A43114FB8420ED0104FB8420BD0B0F148
:100E2000804F08D00E4FB84205D00E4FB84202D0C6
:100E30000D4FB84206D14FF6FF57394046F4807740
:100E4000394305E04FF2FF57394044F48077394386
:100E500082830184F0BD0000002C01400034014079
:100E60000004004000080040000C0040F0B50C46B3
:100E70001546002200210026078C4EF6FF7C07EA6B
:100E80000C070784828B018C4FF6FF7707EA043644
:100E900040F6FF473A404FF6FF7707EA05273A4307
:100EA0004FF6FF7707EA03373A43114FB8420ED0A7
:100EB000104FB8420BD0B0F1804F08D00E4FB8425F
:100EC00005D00E4FB84202D00D4FB84206D14DF6B4
:100ED000FF77394046F48057394305E047F6FF571E
:100EE000394044F48057394382830184F0BD0000C7
:100EF000002C014000340140000400400008004084
:100F0000000C004021B1028842F08002028004E01F
:100F100002884FF67F731A4002807047CA430282EC
:100F2000704721B1028842F00102028004E0028889
:100F30004FF6FE731A4002807047F0B50C46154616
:100F40001E460021002200230189028B038C4FF6EC
:100F5000F877394021434FF6FC473A4040F20117F9
:100F60003A434FF6DD773B404FF6FF7707EA061727
:100F70002F433B43018102830384F0BD70B50546D6
:100F80000C46244885420ED0234885420BD0B5F14B
:100F9000804F08D02148854205D02148854202D0A3
:100FA0002048854200D100E000BF208850B9238945
:100FB000A28861882846FFF785FEE188284600F070
:100FC000A0F925E0208804280AD12389A288618815
:100FD0002846FFF7B7FEE188284600F09BF917E0A6
:100FE000208808280AD12389A28861882846FFF72B
:100FF000F5FEE188284600F09AF909E02389A288E5
:1010000061882846FFF732FFE188284600F098F90A
:1010100070BD0000002C014000340140000400407D
:1010200000080040000C00400021018041800121A7
:1010300081800021C180018170471AB183890B43EF
:10104000838102E083898B438381704770B50024DC
:1010500000220023058C4FF6FE7635400584028C75
:101060008388048B4FF68F752C40B51E2C400D885D
:101070002C43751E2A400D892A434D882A43144D5E
:10108000A8420BD0134DA84208D0134DA84205D05A
:10109000124DA84202D0124DA84213D14FF6F77557
:1010A0002A404D892A434FF6FB752A408D882A43F2
:1010B0004FF6FF652B404FF6FF552B408D892B4394
:1010C000CD892B4383800483CD888586028470BDBF
:1010D000002C014000340140004001400044014028
:1010E000004801400A460021018B4FF6F773194072
:1010F000114301837047000070B5002400220023D3
:10110000058C4FF6EF7635400584028C8388048B7E
:1011100048F6FF752C404FF6FF452C400D884FF6E2
:10112000FF7606EA05252C434FF6DF752A400D8928
:1011300006EA05152A434D8806EA05152A43154D8A
:10114000A84202D0144DA8421DD14FF67F752A4007
:101150004D894FF6FF7606EA05152A434FF6BF750F
:101160002A408D8806EA05152A434FF6FF352B40A5
:101170004FF2FF752B408D8906EA85052B43CD89FB
:1011800006EA85052B4383800483CD880587028486
:1011900070BD0000002C0140003401400A460021CF
:1011A000018B4FF2FF7319404FF6FF7303EA0223DE
:1011B000194301837047000070B50024002200230A
:1011C000058C4FF6FF6635400584028C8388848B3E
:1011D0004FF68F752C404FF6FC752C400D882C4334
:1011E0004FF6FF552A400D894FF6FF7606EA052592
:1011F0002A434D8806EA05252A43154DA84202D008
:10120000144DA8421DD14FF2FF752A404D894FF66B
:10121000FF7606EA05252A434FF6FF352A408D88DA
:1012200006EA05252A434EF6FF752B404DF6FF755D
:101230002B408D8906EA05152B43CD8906EA051555
:101240002B4383808483CD888587028470BD000012
:10125000002C0140003401400A460021818B4FF6EA
:10126000F7731940114381837047000070B5002265
:1012700000230024058C4EF6FF7635400584038C50
:101280008488828B48F6FF752A404FF6FF452A4036
:101290000D884FF6FF7606EA05252A434DF6FF75C1
:1012A0002B400D8906EA05352B434D8806EA0535A6
:1012B0002B430B4DA84202D00A4DA84208D14BF651
:1012C000FF752C408D894FF6FF7606EA85152C4375
:1012D00084808283CD88A0F84050038470BD0000D4
:1012E000002C0140003401400A460021818B4FF25E
:1012F000FF7319404FF6FF7303EA022319438183FA
:101300007047028B4FF6F3731A400283028B0A4335
:1013100002837047028B4FF2FF331A400283028B25
:101320004FF6FF7303EA01231A4302837047828B4F
:101330004FF6F3731A408283828B0A43828370478D
:10134000828B4FF2FF331A408283828B4FF6FF73FA
:1013500003EA01231A4382837047000000220288B7
:101360001D4B98420ED01D4B98420BD0B0F1804FD0
:1013700008D01B4B984205D01A4B984202D01A4B0A
:10138000984204D14FF68F731A404B881A43174B7B
:10139000984207D0164B984204D04FF6FF431A40AC
:1013A000CB881A4302808B8883850B8803850A4B80
:1013B00098420BD0094B984208D00E4B984205D06A
:1013C0000D4B984202D00D4B984201D10B7A038607
:1013D0000123838270470000002C0140003401404B
:1013E0000004004000080040000C004000100040D5
:1013F000001400400040014000440140004801400A
:101400004FF6FF71818000210180C180418001720F
:101410007047000010B540F225511D4800F03EF81D
:1014200010B31B4800F064F8C4B21A48008800F4F6
:101430000040C8B91748008800F4804060B10A2C09
:1014400003D000201349088020E01248008840F4AF
:1014500000401049088019E00D2C06D10D48008885
:1014600040F480400B49088010E00A480088C0F32F
:101470000D0009490C5407480088401C05490880A4
:1014800008460088C72801DD0020088010BD000044
:10149000003801401C000020B005002070B5024655
:1014A000002400230025002040F66A16B14200D136
:1014B00000BFC1F3421501F01F03012606FA03F332
:1014C000012D02D19689334006E0022D02D1168A01
:1014D000334001E0968A33400C12012606FA04F4E8
:1014E0001688344013B10CB1012000E0002070BD1B
:1014F00001468888C0F30800704700BFFEE700BFC0
:101500007047000010B56FF00400FFF795FB0A4824
:1015100000680A49B0FBF1F00949087008460078F4
:1015200000EB4001C1EBC0104FF6FF7101EAC000B3
:101530000449088010BD00000000002000127A005D
:1015400014000020160000200146114A12884A4368
:101550004FF0E0235A6100229A611A46126942F064
:1015600001021A6100BF4FF0E022106900F0010291
:101570001AB100F48032002AF5D04FF0E02212694F
:1015800022F001024FF0E0231A6100229A617047B5
:101590001600002008B5FFF7B5FFFFF76FFAFEF75A
:1015A00093FEFFF759FA00BF1020032340F29A225E
:1015B000002100900846FFF7D7F9F5E710B502467D
:1015C000012000E050430B1EA1F10104E1B2F9D16A
:1015D00010BD00000000000000000000000000003E
:1015E00000003F400000000000000000300040000C
:1015F00030004000000009000BC03D000BC03D0062
:10160000090018C024407FE022403180000018000B
:1016100024C01B000D803240018003801C40274005
:101620001C80074000401000600000000000000027
:1016300000000000000000001F802040402000004B
:10164000402020401F8000000000090006001F808D
:10165000060009000000040004003F8004000400AC
:101660000000001000600000000000000000040006
:10167000040004000400040000000000004000001A
:10168000000000000000002001C0060038004000FB
:1016900000001F802040204020401F8000000000EC
:1016A00010403FC000400000000018C02140224010
:1016B00024401840000010802040244024401B801B
:1016C000000002000D0011003FC0014000003C80FE
:1016D000244024402440238000001F8024402440D4
:1016E0003440038000003000200027C03800200074
:1016F00000001B802440244024401B8000001C006C
:1017000022C0224022401F8000000000000008404C
:101710000000000000000000000004600000000065
:101720000000000004000A00110020804040090071
:101730000900090009000900000000004040208065
:1017400011000A00040018002000234024001800A3
:1017500000001F802040274029401F40000000401B
:1017600007C039000F0001C0004020403FC02440A6
:1017700024401B8000001F802040204020403080FB
:10178000000020403FC0204020401F80000020403B
:101790003FC024402E4030C0000020403FC02440C5
:1017A0002E00300000000F001080204022403380C7
:1017B000020020403FC0040004003FC02040204001
:1017C00020403FC02040204000000060202020201A
:1017D0003FC02000200020403FC024400B0030C00C
:1017E000204020403FC020400040004000C03FC09B
:1017F0003C0003C03C003FC0000020403FC00C4004
:1018000023003FC020001F802040204020401F8038
:10181000000020403FC024402400180000001F802A
:101820002140214020E01FA0000020403FC0244074
:10183000260019C0004018C02440244022403180B6
:101840000000300020403FC0204030000000200059
:101850003F80004000403F80200020003E0001C04B
:10186000070038002000380007C03C0007C03800DF
:101870000000204039C0060039C020400000200090
:10188000384007C0384020000000304021C02640CA
:10189000384020C00000000000007FE040204020D1
:1018A0000000000070000C000380004000000000F9
:1018B000402040207FE000000000000020004000A9
:1018C00020000000000000100010001000100010A8
:1018D00000100000000040000000000000000000B8
:1018E00002800540054003C0004020003FC0044086
:1018F00004400380000000000380044004400640D0
:10190000000000000380044024403FC0004000006D
:1019100003800540054003400000000004401FC054
:10192000244024402000000002E0055005500650ED
:10193000042020403FC00440040003C000400000D9
:10194000044027C0004000000000001000100410F8
:1019500027E00000000020403FC00140070004C015
:101960000440204020403FC000400040000007C02D
:10197000040007C0040003C00000044007C0044086
:10198000040003C0004000000380044004400380C2
:101990000000041007F00450044003800000000021
:1019A00003800440045007F00010044007C00240C8
:1019B000040004000000000006400540054004C08B
:1019C0000000000004001F800440004000000400EC
:1019D00007800040044007C000400400070004C026
:1019E000018006000400060001C0070001C00600D7
:1019F0000000044006C0010006C0044000000410BE
:101A0000071004E00180060004000000044005C047
:101A10000640044000000000000004007BE040207D
:101A20000000000000000000FFF0000000000000C7
:101A300040207BE0040000000000400080004000E7
:101A40002000200040000000000000000000000016
:101A50000000000000000000000000001FCC000C8F
:101A600000000000000000000800300060000800D6
:101A7000300060000000022003FC1E20022003FC56
:101A80001E200220000000000E1811043FFF1084E9
:101A90000C78000000000F0010840F3800C0077899
:101AA00018840078000000780F8410C411240E9868
:101AB00000E40084000808006800700000000000D6
:101AC00000000000000000000000000007E01818FF
:101AD000200440020000000040022004181807E023
:101AE0000000000000000240024001800FF0018071
:101AF0000240024000000080008000800FF800805B
:101B00000080008000000001000D000E00000000B9
:101B100000000000000000000080008000800080C5
:101B20000080008000800000000C000C000000001D
:101B300000000000000000000006001800600180A6
:101B4000060018002000000007F008081004100428
:101B5000080807F000000000080408041FFC000447
:101B600000040000000000000E0C101410241044AB
:101B700011840E0C000000000C1810041104110454
:101B800012880C700000000000E0032004240824E8
:101B90001FFC0024000000001F9810841104110491
:101BA000108810700000000007F00888110411046C
:101BB00018880070000000001C00100010FC1300CA
:101BC0001C001000000000000E3811441084108426
:101BD00011440E38000000000700088C1044104427
:101BE000088807F00000000000000000030C030C50
:101BF00000000000000000000000000101060000DD
:101C000000000000000000000080014002200410DD
:101C100008081004000002200220022002200220F6
:101C20000220022000000000100408080410022016
:101C300001400080000000000E001200100C106C2B
:101C400010800F00000003E00C1813E4142417C4E4
:101C5000082807D000000004003C03C41C400740D3
:101C600000E4001C000410041FFC11041104110402
:101C70000E880070000003E00C181004100410041B
:101C800010081C10000010041FFC100410041004A5
:101C9000080807F0000010041FFC1104110417C409
:101CA00010040818000010041FFC1104110017C0D4
:101CB00010000800000003E00C1810041004104489
:101CC0001C780040000010041FFC1084008000807D
:101CD00010841FFC10040000100410041FFC1004EA
:101CE00010040000000000030001100110011FFE9D
:101CF00010001000000010041FFC11040380146485
:101D0000181C1004000010041FFC10040004000440
:101D10000004000C000010041FFC1F0000FC1F004A
:101D20001FFC1004000010041FFC0C04030000E062
:101D300010181FFC100007F008081004100410040D
:101D4000080807F0000010041FFC108410801080A9
:101D500010800F00000007F0081810241024101C39
:101D6000080A07F2000010041FFC1104110011C042
:101D700011300E0C000400000E1C1104108410849D
:101D800010441C3800001800100010041FFC100440
:101D900010001800000010001FF8100400040004D8
:101DA00010041FF8100010001E0011E0001C00704D
:101DB00013801C0010001FC0103C00E01F0000E05A
:101DC000103C1FC000001004180C163401C001C0E4
:101DD0001634180C100410001C00130400FC13042B
:101DE0001C00100000000804101C10641084130470
:101DF0001C04101800000000000000007FFE4002DC
:101E0000400240020000000030000C00038000602F
:101E1000001C0003000000004002400240027FFE60
:101E20000000000000000000000020004000400012
:101E3000400020000000000100010001000100013D
:101E400000010001000100004000400020000000EF
:101E5000000000000000000000980124014401443B
:101E6000014400FC000410001FFC00880104010470
:101E70000088007000000000007000880104010468
:101E800001040088000000000070008801040104C3
:101E900011081FFC0004000000F801440144014443
:101EA000014400C800000000010401040FFC1104FB
:101EB000110411001800000000D601290129012990
:101EC00001C90106000010041FFC0084010001008C
:101ED000010400FC000400000104190419FC0004C2
:101EE00000040000000000000003000101011901CE
:101EF00019FE0000000010041FFC0024004001B483
:101F0000010C010400000000100410041FFC000478
:101F1000000400000000010401FC0104010001FCB8
:101F20000104010000FC010401FC00840100010027
:101F3000010400FC0004000000F801040104010495
:101F4000010400F80000010101FF00850104010403
:101F50000088007000000000007000880104010487
:101F6000010501FF00010104010401FC00840104DA
:101F7000010001800000000000CC012401240124A4
:101F800001240198000000000100010007F801048D
:101F9000010400000000010001F800040004000436
:101FA000010801FC0004010001800170000C001018
:101FB00001600180010001F0010C003001C000301F
:101FC000010C01F0010000000104018C007401709B
:101FD000018C01040000010101810171000E001853
:101FE00001600180010000000184010C0134014402
:101FF0000184010C0000000000000000000001004E
:102000003EFC400240020000000000000000FFFF14
:102010000000000000000000400240023EFC010001
:102020000000000000000000600080008000400010
:102030004000200020000000582000080000002080
:10204000200000006C01000878200008200000201B
:10205000B80C00008801000800A24A04000000003B
:102060000000000001020304060708090000000048
:08207000000000000000000068
:0400000508000131BD
:00000001FF
