:020000040800F2
:10000000D8080020CD010008E9060008AD06000868
:10001000E5060008CB0200084F11000800000000B0
:10002000000000000000000000000000A107000820
:10003000CF020008000000005D070008B5080008B6
:10004000E7010008E7010008E7010008E7010008F0
:10005000E7010008E7010008E7010008E7010008E0
:10006000E7010008E7010008E7010008E7010008D0
:10007000E7010008E7010008E7010008E7010008C0
:10008000E7010008E7010008E7010008E7010008B0
:10009000E7010008E7010008E7010008E7010008A0
:1000A000E7010008E7010008E7010008E701000890
:1000B000E7010008E7010008E7010008E701000880
:1000C000E7010008E7010008E7010008E701000870
:1000D000E701000869100008E7010008E7010008CF
:1000E000E7010008E7010008E7010008E701000850
:1000F000E7010008E7010008E7010008E701000840
:10010000E7010008E7010008E7010008E70100082F
:10011000E7010008E7010008E7010008E70100081F
:10012000E7010008E7010008E7010008E70100080F
:1001300000F002F800F03AF80AA090E8000C8244BF
:100140008344AAF10107DA4501D100F02FF8AFF29C
:10015000090EBAE80F0013F0010F18BFFB1A43F0A5
:10016000010318474C1000006C100000103A24BF27
:1001700078C878C1FAD8520724BF30C830C144BF0C
:1001800004680C607047000000230024002500264E
:10019000103A28BF78C1FBD8520728BF30C148BFEA
:1001A0000B6070471FB51FBD10B510BD00F05AF8A9
:1001B0001146FFF7F7FF00F0F1FF00F078F803B405
:1001C000FFF7F2FF03BC00F0C4FF000009488047BE
:1001D00009480047FEE7FEE7FEE7FEE7FEE7FEE729
:1001E000FEE7FEE7FEE7FEE704480549054A064B41
:1001F00070470000B908000831010008D80200204B
:10020000D8080020D8040020D804002070474FF000
:10021000000200B5134694469646203922BFA0E856
:100220000C50A0E80C50B1F12001BFF4F7AF090762
:1002300028BFA0E80C5048BF0CC05DF804EB890053
:1002400028BF40F8042B08BF704748BF20F8022B96
:1002500011F0804F18BF00F8012B704770477047AE
:1002600070477047754600F02BF8AE4605006946AA
:10027000534620F00700854618B020B5FFF7B4FFBD
:10028000BDE820404FF000064FF000074FF0000897
:100290004FF0000B21F00701AC46ACE8C009ACE818
:1002A000C009ACE8C009ACE8C0098D46704710B57C
:1002B0000446AFF300802046BDE81040FFF77FBF43
:1002C0000048704778020020704700BFFEE7704783
:1002D0002DE9F041024600250026002000230024DD
:1002E000002791F803C00CF00F0591F803C00CF043
:1002F000100CBCF1000F03D091F802C04CEA0505C8
:1003000091F800C0BCF1000F31D0146800202BE040
:100310004FF0010C0CFA00F3B1F800C00CEA030630
:100320009E4220D183004FF00F0C0CFA03F7BC4320
:1003300005FA03FC4CEA040491F803C0BCF1280F51
:1003400006D14FF0010C0CFA00FCC2F814C00AE010
:1003500091F803C0BCF1480F05D14FF0010C0CFA25
:1003600000FCC2F810C0401C0828D1D31460B1F8BA
:1003700000C0BCF1FF0F34DD546800202EE000F116
:10038000080C4FF0010808FA0CF3B1F800C00CEAB1
:1003900003069E4221D183004FF00F0C0CFA03F7A5
:1003A000BC4305FA03FC4CEA040491F803C0BCF119
:1003B000280F05D100F1080C08FA0CF8C2F81480D7
:1003C00091F803C0BCF1480F07D100F1080C4FF0C1
:1003D000010808FA0CF8C2F81080401C0828CED397
:1003E0005460BDE8F08101617047000000B589B03C
:1003F0000121084600F0B4F90121042000F0C0F901
:100400000320ADF8040004208DF8070001A922485C
:10041000FFF75EFF1C208DF8200001208DF82300DF
:100420008DF8210003208DF8220008A800F05EF965
:1004300005A800F00FFE0020ADF814004FF6FF7085
:10044000ADF818000020ADF81A00ADF8160005A9A7
:100450004FF0804000F0ACFD00231A4603214FF01E
:10046000804000F094FB02A800F008FC0A20ADF8E0
:10047000100002A9400700F0ABFB0121880700F043
:1004800077FB01221146900700F001FC012188074B
:1004900000F071FB09B000BD0008014000B589B053
:1004A0000121022000F05CF90121042000F068F92C
:1004B000C020ADF8040004208DF8070001A92148F0
:1004C000FFF706FF1D208DF8200001208DF8230086
:1004D0008DF8210003208DF8220008A800F006F90D
:1004E00005A800F0B7FD0020ADF814004FF6FF702E
:1004F000ADF818000020ADF81A00ADF8160005A9F7
:10050000114800F055FD00231A4603210E4800F063
:100510003EFB02A800F0B2FB0A20ADF8100002A9D1
:10052000094800F055FB0121074800F021FB01229A
:100530001146054800F0ABFB0121034800F01BFB0E
:1005400009B000BD000801400004004008B50121C9
:10055000042000F015F948208DF803002020ADF8A4
:10056000000003208DF8020069460248FFF7B0FE44
:1005700008BD00000008014008B50121042000F07A
:10058000FFF810208DF80300ADF8000003208DF86F
:10059000020069460348FFF79BFE10210148FFF760
:1005A00022FF08BD0008014030B589B005460C4661
:1005B0000121042000F0D4F80121082000F0E0F827
:1005C00018208DF807004FF47070ADF80400032078
:1005D0008DF8060001A93348FFF77AFEADF81C50EC
:1005E000ADF818400020ADF81A00ADF81E0006A9BD
:1005F0002D4800F0DDFC6020ADF808000120ADF8CA
:100600000A000020ADF80E00ADF8100002A926483F
:1006100000F046FB6020ADF808000120ADF80A00AC
:100620000020ADF80E00ADF8100002A91E4800F041
:100630008DFB6020ADF808000120ADF80A00002015
:10064000ADF80E00ADF8100002A9174800F0DEFB6F
:100650006020ADF808000120ADF80A000020ADF8D8
:100660000E00ADF8100002A90F4800F029FC082187
:100670000D4800F061FB08210B4800F0B9FB082190
:10068000094800F013FC0821074800F057FC01213D
:10069000054800F061FA0121034800F06CFA09B046
:1006A00030BD0000000C01400008004000BFFEE724
:1006B00010B5FFF761FFFFF749FFFFF797FEFFF760
:1006C000EDFE002141F61F40FFF76EFF10BD000058
:1006D00010B54FF4C8710248FFF799FD10BD000036
:1006E0002000002000BFFEE77047000070B5002129
:1006F00000230F22C47804B3154C246804F4E0648A
:10070000C4F5E064210AC1F10403CA40447804FA44
:1007100003F184781440214309010E4C0678A15559
:10072000047804F01F050124AC4005786D11AD007C
:1007300005F1E025C5F8004109E0047804F01F0543
:100740000124AC40044D0678761145F8264070BD72
:100750000CED00E000E400E080E100E07047000004
:1007600029B1064AD2690243044BDA6104E0034A24
:10077000D2698243014BDA617047000000100240E9
:1007800029B1064A92690243044B9A6104E0034A84
:1007900092698243014B9A61704700000010024049
:1007A000704710B500F002F810BD00000CB5002035
:1007B000019000903348006840F48030314908606F
:1007C00000BF3048006800F4003000900198401CE1
:1007D0000190009818B90198B0F5A06FF1D129489F
:1007E000006800F4003010B10120009001E000200A
:1007F00000900098012843D12348006840F0100081
:10080000214908600846006820F003000860084697
:10081000006840F0020008601A48406819494860C2
:100820000846406848600846406840F48060486078
:100830000846406820F47C1048600846406840F450
:10084000E81048600846006840F08070086000BF0B
:100850000C48006800F000700028F9D00948406892
:1008600020F00300074948600846406840F0020055
:10087000486000BF0348406800F00C000828F9D128
:100880000CBD00000010024000200240042808D1E6
:100890004FF0E021096941F004014FF0E0221161BD
:1008A00007E04FF0E021096921F004014FF0E02258
:1008B000116170477047000010B51348006840F0A0
:1008C00001001149086008464068104908400E4977
:1008D0004860084600680E4908400B490860084611
:1008E000006820F4802008600846406820F4FE007C
:1008F00048604FF41F008860FFF753FF4FF000601F
:100900000449086010BD0000001002400000FFF81C
:10091000FFFFF6FE08ED00E0F0B50C46154600229C
:100920000021068C4FF6FE773E400684028B018C38
:100930004FF60C7632407E1C06EA03162E433243F5
:10094000104EB0420ED0104EB0420BD0B0F1804FDE
:1009500008D00E4EB04205D00D4EB04202D00D4E22
:10096000B04206D14FF6FD76314044F001063143E6
:1009700005E04FF6F576314044F00106314302833D
:100980000184F0BD002C014000340140000400400F
:1009900000080040000C0040F0B50C46154600224F
:1009A00000210026078C4FF6EF7C07EA0C0707842E
:1009B000028B018C4FF6FF7707EA041640F6FF47DB
:1009C0003A404FF6FF7707EA03373A434FF6FF778F
:1009D00007EA05273A43114FB8420ED0104FB842EC
:1009E0000BD0B0F1804F08D00E4FB84205D00E4F5B
:1009F000B84202D00D4FB84206D14FF6DF773940EA
:100A000046F01007394305E04FF65F77394044F070
:100A10001007394302830184F0BD0000002C01401F
:100A2000003401400004004000080040000C004079
:100A3000F0B50C461546002200210026078C4FF623
:100A4000FF6C07EA0C070784828B018C4FF6FF7757
:100A500007EA04264FF60C773A404FF6FF7707EA8D
:100A600003172F433A43114FB8420ED0104FB842EC
:100A70000BD0B0F1804F08D00E4FB84205D00E4FCA
:100A8000B84202D00D4FB84206D14FF6FF57394059
:100A900046F48077394305E04FF2FF57394044F47C
:100AA0008077394382830184F0BD0000002C01402F
:100AB000003401400004004000080040000C0040E9
:100AC000F0B50C461546002200210026078C4EF694
:100AD000FF7C07EA0C070784828B018C4FF6FF77B7
:100AE00007EA043640F6FF473A404FF6FF7707EA39
:100AF00005273A434FF6FF7707EA03373A43114F8A
:100B0000B8420ED0104FB8420BD0B0F1804F08D091
:100B10000E4FB84205D00E4FB84202D00D4FB8422A
:100B200006D14DF6FF77394046F48057394305E04A
:100B300047F6FF57394044F4805739438283018494
:100B4000F0BD0000002C01400034014000040040D2
:100B500000080040000C004021B1028842F08002F1
:100B6000028004E002884FF67F731A4002807047CB
:100B7000CA430282704721B1028842F0010202801A
:100B800004E002884FF6FE731A4002807047F0B509
:100B90000C4615461E460021002200230189028BC7
:100BA000038C4FF6F877394021434FF6FC473A4023
:100BB00040F201173A434FF6DD773B404FF6FF779F
:100BC00007EA06172F433B43018102830384F0BDEC
:100BD00070B505460C46244885420ED02348854210
:100BE0000BD0B5F1804F08D02148854205D021486F
:100BF000854202D02048854200D100E000BF208815
:100C000050B92389A28861882846FFF785FEE188CC
:100C1000284600F0A0F925E0208804280AD123897D
:100C2000A28861882846FFF7B7FEE188284600F0D1
:100C30009BF917E0208808280AD12389A2886188B7
:100C40002846FFF7F5FEE188284600F09AF909E00A
:100C50002389A28861882846FFF732FFE188284669
:100C600000F098F970BD0000002C014000340140F4
:100C70000004004000080040000C004000210180FA
:100C80004180012181800021C180018170471AB11A
:100C900083890B43838102E083898B43838170477F
:100CA00070B5002400220023058C4FF6FE763540F7
:100CB0000584028C8388048B4FF68F752C40B51EFB
:100CC0002C400D882C43751E2A400D892A434D88DF
:100CD0002A43144DA8420BD0134DA84208D0134DFF
:100CE000A84205D0124DA84202D0124DA84213D1FD
:100CF0004FF6F7752A404D892A434FF6FB752A4077
:100D00008D882A434FF6FF652B404FF6FF552B4049
:100D10008D892B43CD892B4383800483CD888586A1
:100D2000028470BD002C01400034014000400140AD
:100D300000440140004801400A460021018B4FF663
:100D4000F7731940114301837047000070B5002408
:100D500000220023058C4FF6EF7635400584028C87
:100D60008388048B48F6FF752C404FF6FF452C40D6
:100D70000D884FF6FF7606EA05252C434FF6DF7502
:100D80002A400D8906EA05152A434D8806EA05150D
:100D90002A43154DA84202D0144DA8421DD14FF64A
:100DA0007F752A404D894FF6FF7606EA05152A43DE
:100DB0004FF6BF752A408D8806EA05152A434FF67F
:100DC000FF352B404FF2FF752B408D8906EA8505D4
:100DD0002B43CD8906EA85052B4383800483CD8888
:100DE0000587028470BD0000002C014000340140E2
:100DF0000A460021018B4FF2FF7319404FF6FF7333
:100E000003EA0223194301837047000070B50024F0
:100E100000220023058C4FF6FF6635400584028CC6
:100E20008388848B4FF68F752C404FF6FC752C40D1
:100E30000D882C434FF6FF552A400D894FF6FF765B
:100E400006EA05252A434D8806EA05252A43154D5D
:100E5000A84202D0144DA8421DD14FF2FF752A407E
:100E60004D894FF6FF7606EA05252A434FF6FF35F2
:100E70002A408D8806EA05252A434EF6FF752B4049
:100E80004DF6FF752B408D8906EA05152B43CD895C
:100E900006EA05152B4383808483CD8885870284E9
:100EA00070BD0000002C0140003401400A460021C2
:100EB000818B4FF6F773194011438183704700000F
:100EC00070B5002200230024058C4EF6FF763540D5
:100ED0000584038C8488828B48F6FF752A404FF680
:100EE000FF452A400D884FF6FF7606EA05252A437E
:100EF0004DF6FF752B400D8906EA05352B434D88CD
:100F000006EA05352B430B4DA84202D00A4DA842F4
:100F100008D14BF6FF752C408D894FF6FF7606EA17
:100F200085152C4384808283CD88A0F840500384AB
:100F300070BD0000002C0140003401400A46002131
:100F4000818B4FF2FF7319404FF6FF7303EA0223C0
:100F5000194381837047028B4FF6F3731A40028363
:100F6000028B0A4302837047028B4FF2FF331A4011
:100F70000283028B4FF6FF7303EA01231A430283B5
:100F80007047828B4FF6F3731A408283828B0A4339
:100F900082837047828B4FF2FF331A408283828BA9
:100FA0004FF6FF7303EA01231A4382837047000060
:100FB000002202881D4B98420ED01D4B98420BD048
:100FC000B0F1804F08D01B4B984205D01A4B984285
:100FD00002D01A4B984204D14FF68F731A404B88B7
:100FE0001A43174B984207D0164B984204D04FF63D
:100FF000FF431A40CB881A4302808B8883850B8875
:1010000003850A4B98420BD0094B984208D00E4BEF
:10101000984205D00D4B984202D00D4B984201D119
:101020000B7A03860123838270470000002C014065
:10103000003401400004004000080040000C004063
:1010400000100040001400400040014000440140F6
:10105000004801404FF6FF71818000210180C1806E
:10106000418001727047000010B540F225511D48C3
:1010700000F03EF810B31B4800F064F8C4B21A4800
:10108000008800F40040C8B91748008800F4804088
:1010900060B10A2C03D000201349088020E01248D8
:1010A000008840F400401049088019E00D2C06D15A
:1010B0000D48008840F480400B49088010E00A4841
:1010C0000088C0F30D0009490C5407480088401CF3
:1010D0000549088008460088C72801DD00200880EF
:1010E00010BD0000003801401C000020B0010020AD
:1010F00070B50246002400230025002040F66A1641
:10110000B14200D100BFC1F3421501F01F03012617
:1011100006FA03F3012D02D19689334006E0022D31
:1011200002D1168A334001E0968A33400C12012620
:1011300006FA04F41688344013B10CB1012000E023
:10114000002070BD01468888C0F30800704700BFCA
:10115000FEE7014600BF704710B56FF00400FFF7CF
:1011600095FB0A4800680A49B0FBF1F0094908708C
:101170000846007800EB4001C1EBC0104FF6FF714C
:1011800001EAC0000449088010BD000000000020F2
:1011900000127A001400002016000020FFF7DCFF88
:1011A000FFF796FAFFF790F8FFF782FA00BFFEE725
:1011B000D011000800000020200000006C01000891
:1011C000F011000820000020B80800008801000885
:1011D00000A24A0400000000000000000102030415
:1011E00006070809000000000000000000000000E1
:0400000508000131BD
:00000001FF
