:020000040800F2
:10000000280D0020CD010008F90A0008810A000827
:10001000F50A00083F0500083F1A0008000000002C
:10002000000000000000000000000000B10F000808
:1000300043050008000000006D0F0008C51000080F
:10004000E7010008E7010008E7010008E7010008F0
:10005000E7010008E7010008E7010008E7010008E0
:10006000E7010008E7010008E7010008E7010008D0
:10007000E7010008E7010008E7010008E7010008C0
:10008000E7010008E7010008E7010008E7010008B0
:10009000E7010008E7010008E7010008450500083E
:1000A000E701000869130008E7010008E7010008FC
:1000B000E5130008F9130008E7010008E70100084C
:1000C000E7010008E7010008E7010008E701000870
:1000D000E701000859190008E7010008E7010008D6
:1000E000E7010008E7010008E7010008E701000850
:1000F000E7010008E7010008E7010008E701000840
:10010000E7010008E7010008E7010008E70100082F
:10011000E7010008E7010008E7010008E70100081F
:10012000E7010008E7010008E7010008E70100080F
:1001300000F002F800F03AF80AA090E8000C8244BF
:100140008344AAF10107DA4501D100F02FF8AFF29C
:10015000090EBAE80F0013F0010F18BFFB1A43F0A5
:1001600001031847E42E0000042F0000103A24BFBA
:1001700078C878C1FAD8520724BF30C830C144BF0C
:1001800004680C607047000000230024002500264E
:10019000103A28BF78C1FBD8520728BF30C148BFEA
:1001A0000B6070471FB51FBD10B510BD00F05AF8A9
:1001B0001146FFF7F7FF01F0ADFC00F078F803B44B
:1001C000FFF7F2FF03BC01F03CFC00000948804748
:1001D00009480047FEE7FEE7FEE7FEE7FEE7FEE729
:1001E000FEE7FEE7FEE7FEE704480549054A064B41
:1001F00070470000C91000083101000828070020DE
:10020000280D0020280900202809002070474FF001
:10021000000200B5134694469646203922BFA0E856
:100220000C50A0E80C50B1F12001BFF4F7AF090762
:1002300028BFA0E80C5048BF0CC05DF804EB890053
:1002400028BF40F8042B08BF704748BF20F8022B96
:1002500011F0804F18BF00F8012B704770477047AE
:1002600070477047754600F02BF8AE4605006946AA
:10027000534620F00700854618B020B5FFF7B4FFBD
:10028000BDE820404FF000064FF000074FF0000897
:100290004FF0000B21F00701AC46ACE8C009ACE818
:1002A000C009ACE8C009ACE8C0098D46704710B57C
:1002B0000446AFF300802046BDE81040FFF77FBF43
:1002C00000487047C406002038B53AA21421002027
:1002D00000F0FEFD3A48006800280FDA39A2142128
:1002E000502000F0F5FD0C200523009034480068F4
:1002F000424214215F2000F0A1FD0DE032A2142142
:10030000502000F0E5FD0C20052300902C4814211E
:1003100002685F2000F092FD2CA21E21002000F058
:10032000D7FD2D48006800280FDA26A21E21502094
:1003300000F0CEFD0C2005230090274800684242C3
:100340001E215F2000F07AFD0DE01FA21E2150202B
:1003500000F0BEFD0C20052300901F481E210268FE
:100360005F2000F06BFD1D49086802F0D1F80446DB
:100370000C200423224628210090002000F05EFD7E
:100380000C20009016481749B1F9001030F91120DF
:10039000042328212E2000F051FD0C20042300907E
:1003A0001148B0F900202821502000F047FD00F04E
:1003B000CBFC38BD456E636F4C45465400000000D1
:1003C000180000202D0000002B000000456E636F18
:1003D00052494748540000001C0000202000002023
:1003E000320000203C0000204200002010B50446EE
:1003F000012C0DD100200749086007480068C04360
:100400000649C1F894014FF4FA61084600F06AF811
:10041000204610BD480000209401234200002342E2
:1004200010B50121014801F095FB10BDED03000856
:100430002DE9FF5F83468A46504601F021FE804643
:100440000022114B01F0C4FC0022104BCDE9000149
:1004500001F02EFE06460F460D49086802F010F81E
:1004600032463B46CDE9020101F00AFC044601F0A8
:10047000D5FB074908600020487181F804A003C932
:10048000CBE90001BDE8FF9F0064984000003540C3
:10049000480000200146022904D003290BD004297A
:1004A00017D10FE04FF08042928C10B200224FF033
:1004B00080439A840FE0094A128810B20022074B49
:1004C0001A8008E0064A128810B20022044B1A80F3
:1004D00001E0002000BF00BF70470000240400407E
:1004E00024080040002808DA4FF4E152124B1A8029
:1004F00000F5E1521B1D1A8008E04FF4E1520E4B4B
:100500001B1D1A80C0F5E1521B1F1A80002909DA51
:100510004FF4E152084B08331A8001F5E1521B1DDC
:100520001A8008E04FF4E152034B0C331A80C1F5F6
:10053000E1521B1F1A80704734080040704700BF0B
:10054000FEE7704710B50548006810B9202000F09C
:1005500007F8082000F004F810BD00001401214243
:100560000149086070470000140401402DE9F04182
:10057000024600250026002000230024002791F8D1
:1005800003C00CF00F0591F803C00CF0100CBCF187
:10059000000F03D091F802C04CEA050591F800C0A5
:1005A000BCF1000F31D0146800202BE04FF0010C9B
:1005B0000CFA00F3B1F800C00CEA03069E4220D109
:1005C00083004FF00F0C0CFA03F7BC4305FA03FC51
:1005D0004CEA040491F803C0BCF1280F06D14FF097
:1005E000010C0CFA00FCC2F814C00AE091F803C038
:1005F000BCF1480F05D14FF0010C0CFA00FCC2F819
:1006000010C0401C0828D1D31460B1F800C0BCF160
:10061000FF0F34DD546800202EE000F1080C4FF08D
:10062000010808FA0CF3B1F800C00CEA03069E4278
:1006300021D183004FF00F0C0CFA03F7BC4305FAED
:1006400003FC4CEA040491F803C0BCF1280F05D167
:1006500000F1080C08FA0CF8C2F8148091F803C0F5
:10066000BCF1480F07D100F1080C4FF0010808FA5F
:100670000CF8C2F81080401C0828CED35460BDE8A6
:10068000F08101617047000000B589B00121084682
:1006900000F06EFC0121042000F07AFC0320ADF88C
:1006A000040004208DF8070001A92248FFF75EFF2F
:1006B0001C208DF8200001208DF823008DF82100EA
:1006C00003208DF8220008A800F018FA05A801F010
:1006D00039F90020ADF814004FF6FF70ADF818009E
:1006E0000020ADF81A00ADF8160005A94FF08040C3
:1006F00001F0D6F800231A4603214FF0804000F0A5
:10070000B4FE02A800F032FF0A20ADF8100002A9E2
:10071000400700F0D5FE0121880700F085FE012288
:100720001146900700F02BFF0121880700F082FEA0
:1007300009B000BD0008014000B589B001210220C8
:1007400000F016FC0121042000F022FCC020ADF8CE
:10075000040004208DF8070001A92148FFF706FFD7
:100760001D208DF8200001208DF823008DF8210038
:1007700003208DF8220008A800F0C0F905A801F0B8
:10078000E1F80020ADF814004FF6FF70ADF8180046
:100790000020ADF81A00ADF8160005A9114801F0C7
:1007A0007FF800231A4603210E4800F05EFE02A8DF
:1007B00000F0DCFE0A20ADF8100002A9094800F0A4
:1007C0007FFE0121074800F02FFE01221146054857
:1007D00000F0D5FE0121034800F02CFE09B000BD59
:1007E000000801400004004008B50121042000F089
:1007F000CFFB48208DF803002020ADF80000032037
:100800008DF8020069460248FFF7B0FE08BD0000FF
:100810000008014010B50E480078012811D10D489C
:10082000006870B900200A4908700A48006820B9B9
:1008300009480078401C08490870012001F04CF973
:1008400005E004480068012801D10149087010BD85
:1008500051000020140121425000002008B5012160
:10086000442000F095FB10208DF80300ADF8000047
:1008700003208DF8020069460C48FFF777FE10212F
:100880000A48FFF7FEFE10208DF803002020ADF887
:10089000000003208DF8020069460548FFF766FE58
:1008A00020210348FFF7EDFE08BD000000080140CD
:1008B0000018014030B589B005460C4601210420DE
:1008C00000F056FB0121082000F062FB18208DF893
:1008D00007004FF47070ADF8040003208DF8060097
:1008E00001A93348FFF742FEADF81C50ADF818409F
:1008F0000020ADF81A00ADF81E0006A92D4800F042
:10090000CFFF6020ADF808000120ADF80A000020FC
:10091000ADF80E00ADF8100002A9264800F038FE30
:100920006020ADF808000120ADF80A000020ADF805
:100930000E00ADF8100002A91E4800F07FFE6020F6
:10094000ADF808000120ADF80A000020ADF80E0057
:10095000ADF8100002A9174800F0D0FE6020ADF8F5
:1009600008000120ADF80A000020ADF80E00ADF837
:10097000100002A90F4800F01BFF08210D4800F0ED
:1009800053FE08210B4800F0ABFE0821094800F097
:1009900005FF0821074800F049FF0121054800F044
:1009A00037FD0121034800F045FD09B030BD0000CE
:1009B000000C01400008004030B589B005460C46E7
:1009C0000121C80200F0E4FA0121042000F0E0FA5D
:1009D00018208DF803004FF40060ADF800000320EC
:1009E0008DF8020069462448FFF7C0FDADF81C50A1
:1009F000ADF818400020ADF81A00ADF81E0006A9A9
:100A00001E4800F04DFF012211461C4800F0B7FDC2
:100A100019208DF8140001208DF817008DF81500AD
:100A20008DF8160005A800F069F86020ADF8040004
:100A30000120ADF806000020ADF80A00ADF80C006A
:100A400001A90E4800F0B4FE08210C4800F0EEFEAB
:100A500001210A4800F0FAFC0121084800F0D8FC06
:100A600040F2DC500549403108800121034800F084
:100A7000E1FC09B030BD000000080140002C01403D
:100A800000BFFEE710B5FFF7E9FEFFF7ADFEFFF789
:100A9000FBFDFFF751FE47216320FFF78DFF00218B
:100AA00041F61F40FFF706FF00F0B6F810BD00004A
:100AB00010B54FF4C8710248FFF7A9FB10BD000044
:100AC0006C00002001464906084A926942F0010282
:100AD000064B9A61064A526822F0E062044B5A6063
:100AE0001A4652680A435A607047000000100240DC
:100AF0000000014000BFFEE77047000070B5002114
:100B000000230F22C47804B3154C246804F4E06475
:100B1000C4F5E064210AC1F10403CA40447804FA30
:100B200003F184781440214309010E4C0678A15545
:100B3000047804F01F050124AC4005786D11AD0068
:100B400005F1E025C5F8004109E0047804F01F052F
:100B50000124AC40044D0678761145F8264070BD5E
:100B60000CED00E000E400E080E100E00249014318
:100B7000024A1160704700000000FA050CED00E029
:100B800030B500240CE0002506E00020074901EB09
:100B9000C5010855681CC5B2802DF6DB601CC4B2C7
:100BA000082CF0DB00F0D0F830BD0000FC01002084
:100BB000F0B5144600267F2801DC3F2900DDF0BD9A
:100BC0000B46CF1701EB5777FF10C7F10707FAB2B3
:100BD000CF1701EB5777FF10A1EBC707FDB2C5F1A7
:100BE00007070123BB40DEB24CB10A4B03EBC00345
:100BF0009B5C3343074F07EBC007BB5408E0054B32
:100C000003EBC0039B5CB343024F07EBC007BB542D
:100C100000BFD4E7FC01002008B501210C2000F042
:100C2000B7F910208DF803003820ADF8000002203D
:100C30008DF8020069464048FFF798FC10208DF8B7
:100C40000300C002ADF8000002208DF802006946E2
:100C50003A48FFF78BFC002039490860642000F017
:100C600015FF01203749C1F88C010021AE2000F0AA
:100C700051F90021D52000F04DF90021502000F05D
:100C800049F90021A82000F045F900213F2000F09B
:100C900041F90021D32000F03DF90021084600F081
:100CA00039F90021402000F035F900218D2000F0B5
:100CB00031F90021142000F02DF90021202000F04E
:100CC00029F90021022000F025F90021A12000F0DF
:100CD00021F90021C02000F01DF90021DA2000F0E8
:100CE00019F90021122000F015F90021812000F0EF
:100CF00011F90021EF2000F00DF90021D92000F0BA
:100D000009F90021F12000F005F90021DB2000F0B5
:100D100001F90021302000F0FDF80021A42000F0AE
:100D2000F9F80021A62000F0F5F80021AF2000F02E
:100D3000F1F8FFF725FF08BD000C01400008014055
:100D40008C8121420080214230B500241CE004F156
:100D5000B001C8B2002100F0DDF80021084600F023
:100D6000D9F80021102000F0D5F8002508E0084946
:100D700001EBC501085D012100F0CCF8681CC5B28B
:100D8000802DF4DB601CC4B2082CE0DB30BD000019
:100D9000FC0100202DE9F04F80460C4615461E460A
:100DA000A346A5F12000C5B200273EE00C2E07D1D6
:100DB00005EB45001F4901EB800010F8079004E0A7
:100DC0001D4800EB051010F807904FF0000A26E0D0
:100DD00009F0800028B121464046099AFFF7E8FE55
:100DE00009E0099808B9012000E0002002462146E8
:100DF0004046FFF7DDFE4FEA49604FEA1069601C8C
:100E0000C4B2A4EB0B00B04205D15C4608F101006E
:100E100000F0FF0806E00AF1010000F0FF0ABAF155
:100E2000080FD5DB00BF781CC7B2B742BEDBBDE8F8
:100E3000F08F0000E4250008582A00082DE9FF4F34
:100E400081B0074691461E460E9D4FF0000A0024D1
:100E500039E0301B401EC1B20A2000F070FEB9FB21
:100E6000F0F00A21B0FBF1F201FB1208BAF1000F19
:100E700016D1701EA04213DDB8F1000F0ED1012073
:100E8000AB4605EBDB71491001FB04710090C8B261
:100E90002B4620220299FFF77DFF12E04FF0010A56
:100EA0000120AB4605EBDB71491001FB047100909A
:100EB000C8B208F13001CAB22B460299FFF76AFFA7
:100EC00000BF601CC4B2B442C3DB05B0BDE8F08F04
:100ED00078B505460E46144618E07A2D03DD002548
:100EE00006F11000C6B23A2E04DD00200546064683
:100EF000FFF746FE0120009022780C233146284659
:100F0000FFF748FF05F10800C5B2641C20780028EF
:100F1000E3D178BD10B50A461AB10123114C236004
:100F200002E000230F4C2360002114E000230E4C4C
:100F3000236000F080031BB10123241F236003E022
:100F40000023094C241F23600123074C2360430620
:100F5000180E4B1CD9B20829E8DB0123014C236091
:100F600010BD0000BC012142948121427047000065
:100F700029B1064AD2690243044BDA6104E0034A0C
:100F8000D2698243014BDA617047000000100240D1
:100F900029B1064A92690243044B9A6104E0034A6C
:100FA00092698243014B9A61704700000010024031
:100FB000704710B500F002F810BD00000CB500201D
:100FC000019000903348006840F480303149086057
:100FD00000BF3048006800F4003000900198401CC9
:100FE0000190009818B90198B0F5A06FF1D1294887
:100FF000006800F4003010B10120009001E00020F2
:1010000000900098012843D12348006840F0100068
:10101000214908600846006820F00300086008467F
:10102000006840F0020008601A48406819494860AA
:101030000846406848600846406840F48060486060
:101040000846406820F47C1048600846406840F438
:10105000E81048600846006840F08070086000BFF3
:101060000C48006800F000700028F9D0094840687A
:1010700020F00300074948600846406840F002003D
:10108000486000BF0348406800F00C000828F9D110
:101090000CBD00000010024000200240042808D1CE
:1010A0004FF0E021096941F004014FF0E0221161A5
:1010B00007E04FF0E021096921F004014FF0E02240
:1010C000116170477047000010B51348006840F088
:1010D00001001149086008464068104908400E495F
:1010E0004860084600680E4908400B4908600846F9
:1010F000006820F4802008600846406820F4FE0064
:1011000048604FF41F008860FFF753FF4FF0006006
:101110000449086010BD0000001002400000FFF804
:10112000FFFFF6FE08ED00E0F0B50C461546002284
:101130000021068C4FF6FE773E400684028B018C20
:101140004FF60C7632407E1C06EA03162E433243DD
:10115000104EB0420ED0104EB0420BD0B0F1804FC6
:1011600008D00E4EB04205D00D4EB04202D00D4E0A
:10117000B04206D14FF6FD76314044F001063143CE
:1011800005E04FF6F576314044F001063143028325
:101190000184F0BD002C01400034014000040040F7
:1011A00000080040000C0040F0B50C461546002237
:1011B00000210026078C4FF6EF7C07EA0C07078416
:1011C000028B018C4FF6FF7707EA041640F6FF47C3
:1011D0003A404FF6FF7707EA03373A434FF6FF7777
:1011E00007EA05273A43114FB8420ED0104FB842D4
:1011F0000BD0B0F1804F08D00E4FB84205D00E4F43
:10120000B84202D00D4FB84206D14FF6DF773940D1
:1012100046F01007394305E04FF65F77394044F058
:101220001007394302830184F0BD0000002C014007
:10123000003401400004004000080040000C004061
:10124000F0B50C461546002200210026078C4FF60B
:10125000FF6C07EA0C070784828B018C4FF6FF773F
:1012600007EA04264FF60C773A404FF6FF7707EA75
:1012700003172F433A43114FB8420ED0104FB842D4
:101280000BD0B0F1804F08D00E4FB84205D00E4FB2
:10129000B84202D00D4FB84206D14FF6FF57394041
:1012A00046F48077394305E04FF2FF57394044F464
:1012B0008077394382830184F0BD0000002C014017
:1012C000003401400004004000080040000C0040D1
:1012D000F0B50C461546002200210026078C4EF67C
:1012E000FF7C07EA0C070784828B018C4FF6FF779F
:1012F00007EA043640F6FF473A404FF6FF7707EA21
:1013000005273A434FF6FF7707EA03373A43114F71
:10131000B8420ED0104FB8420BD0B0F1804F08D079
:101320000E4FB84205D00E4FB84202D00D4FB84212
:1013300006D14DF6FF77394046F48057394305E032
:1013400047F6FF57394044F480573943828301847C
:10135000F0BD0000002C01400034014000040040BA
:1013600000080040000C00401CB50121174800F0A7
:101370009DF8012828D10121144800F058F80220D6
:10138000FFF788F8124908600320FFF783F8114936
:101390000860FFF73FFA0F4802680D480168684689
:1013A000FFF746F80C48DDE9001206C00A49086854
:1013B00001F092F804B20948094AB2F9002030F964
:1013C0001210204600F0E4FB1CBD0000002C014080
:1013D000180000201C000020200000203200002007
:1013E0003C00002010B50121880700F05FF80121C2
:1013F000880700F01CF810BD10B50121034800F06B
:1014000055F80121014800F012F810BD0004004019
:1014100021B1028842F08002028004E002884FF687
:101420007F731A4002807047CA4302827047CA43E2
:101430000282704721B1028842F00102028004E07A
:1014400002884FF6FE731A400280704731B1B0F83F
:10145000442042F40042A0F8442005E0B0F84420C3
:10146000C2F30E02A0F844207047F0B50C461546B2
:101470001E460021002200230189028B038C4FF6B7
:10148000F877394021434FF6FC473A4040F20117C4
:101490003A434FF6DD773B404FF6FF7707EA0617F2
:1014A0002F433B43018102830384F0BD02460020A9
:1014B000138A0B400BB1012000E0002070470000B0
:1014C00070B505460C46244885420ED02348854217
:1014D0000BD0B5F1804F08D02148854205D0214876
:1014E000854202D02048854200D100E000BF20881C
:1014F00050B92389A28861882846FFF715FEE18844
:10150000284600F0A0F925E0208804280AD1238984
:10151000A28861882846FFF747FEE188284600F048
:101520009BF917E0208808280AD12389A2886188BE
:101530002846FFF785FEE188284600F09AF909E081
:101540002389A28861882846FFF7C2FEE1882846E1
:1015500000F098F970BD0000002C014000340140FB
:101560000004004000080040000C00400021018001
:101570004180012181800021C180018170471AB121
:1015800083890B43838102E083898B438381704786
:1015900070B5002400220023058C4FF6FE763540FE
:1015A0000584028C8388048B4FF68F752C40B51E02
:1015B0002C400D882C43751E2A400D892A434D88E6
:1015C0002A43144DA8420BD0134DA84208D0134D06
:1015D000A84205D0124DA84202D0124DA84213D104
:1015E0004FF6F7752A404D892A434FF6FB752A407E
:1015F0008D882A434FF6FF652B404FF6FF552B4051
:101600008D892B43CD892B4383800483CD888586A8
:10161000028470BD002C01400034014000400140B4
:1016200000440140004801400A460021018B4FF66A
:10163000F7731940114301837047000070B500240F
:1016400000220023058C4FF6EF7635400584028C8E
:101650008388048B48F6FF752C404FF6FF452C40DD
:101660000D884FF6FF7606EA05252C434FF6DF7509
:101670002A400D8906EA05152A434D8806EA051514
:101680002A43154DA84202D0144DA8421DD14FF651
:101690007F752A404D894FF6FF7606EA05152A43E5
:1016A0004FF6BF752A408D8806EA05152A434FF686
:1016B000FF352B404FF2FF752B408D8906EA8505DB
:1016C0002B43CD8906EA85052B4383800483CD888F
:1016D0000587028470BD0000002C014000340140E9
:1016E0000A460021018B4FF2FF7319404FF6FF733A
:1016F00003EA0223194301837047000070B50024F8
:1017000000220023058C4FF6FF6635400584028CCD
:101710008388848B4FF68F752C404FF6FC752C40D8
:101720000D882C434FF6FF552A400D894FF6FF7662
:1017300006EA05252A434D8806EA05252A43154D64
:10174000A84202D0144DA8421DD14FF2FF752A4085
:101750004D894FF6FF7606EA05252A434FF6FF35F9
:101760002A408D8806EA05252A434EF6FF752B4050
:101770004DF6FF752B408D8906EA05152B43CD8963
:1017800006EA05152B4383808483CD8885870284F0
:1017900070BD0000002C0140003401400A460021C9
:1017A000818B4FF6F7731940114381837047000016
:1017B00070B5002200230024058C4EF6FF763540DC
:1017C0000584038C8488828B48F6FF752A404FF687
:1017D000FF452A400D884FF6FF7606EA05252A4385
:1017E0004DF6FF752B400D8906EA05352B434D88D4
:1017F00006EA05352B430B4DA84202D00A4DA842FC
:1018000008D14BF6FF752C408D894FF6FF7606EA1E
:1018100085152C4384808283CD88A0F840500384B2
:1018200070BD0000002C0140003401400A46002138
:10183000818B4FF2FF7319404FF6FF7303EA0223C7
:10184000194381837047028B4FF6F3731A4002836A
:10185000028B0A4302837047028B4FF2FF331A4018
:101860000283028B4FF6FF7303EA01231A430283BC
:101870007047828B4FF6F3731A408283828B0A4340
:1018800082837047828B4FF2FF331A408283828BB0
:101890004FF6FF7303EA01231A4382837047000067
:1018A000002202881D4B98420ED01D4B98420BD04F
:1018B000B0F1804F08D01B4B984205D01A4B98428C
:1018C00002D01A4B984204D14FF68F731A404B88BE
:1018D0001A43174B984207D0164B984204D04FF644
:1018E000FF431A40CB881A4302808B8883850B887C
:1018F00003850A4B98420BD0094B984208D00E4BF7
:10190000984205D00D4B984202D00D4B984201D120
:101910000B7A03860123838270470000002C01406C
:10192000003401400004004000080040000C00406A
:1019300000100040001400400040014000440140FD
:10194000004801404FF6FF71818000210180C18075
:10195000418001727047000010B540F225511D48CA
:1019600000F03EF810B31B4800F064F8C4B21A4807
:10197000008800F40040C8B91748008800F480408F
:1019800060B10A2C03D000201349088020E01248DF
:10199000008840F400401049088019E00D2C06D161
:1019A0000D48008840F480400B49088010E00A4848
:1019B0000088C0F30D0009490C5407480088401CFA
:1019C0000549088008460088C72801DD00200880F6
:1019D00010BD00000038014068000020FC05002018
:1019E00070B50246002400230025002040F66A1648
:1019F000B14200D100BFC1F3421501F01F0301261F
:101A000006FA03F3012D02D19689334006E0022D38
:101A100002D1168A334001E0968A33400C12012627
:101A200006FA04F41688344013B10CB1012000E02A
:101A3000002070BD01468888C0F30800704700BFD1
:101A4000FEE700BF7047000010B56FF00400FFF71D
:101A500025FB0A4800680A49B0FBF1F00949087003
:101A60000846007800EB4001C1EBC0104FF6FF7153
:101A700001EAC0000449088010BD000000000020F9
:101A800000127A005E000020600000200146114A2A
:101A900012884A434FF0E0235A6100229A611A46A5
:101AA000126942F001021A6100BF4FF0E022106992
:101AB00000F001021AB100F48032002AF5D04FF094
:101AC000E022126922F001024FF0E0231A610022A5
:101AD0009A6170476000002070B5054600240EE052
:101AE0000A4800EBC4004068284038B1074850F865
:101AF000341028468847054605B970BD641C044863
:101B000000788442ECDB00BFF7E700006C000020A7
:101B100014000020FFF798FF4FF4A060FFF726F8AD
:101B20000120FEF7CFFFFEF7C3FFFEF779FCFEF7BB
:101B300005FDFEF7A7FF01E0FEF7C6FBFCE710B5C9
:101B40000246012000E050430B1EA1F10104E1B266
:101B5000F9D110BD10B50246002010E00A4B53F831
:101B600030305BB9084B43F8302003EBC0035960B9
:101B7000064B1B785B1C054C237010BD401C3228A3
:101B8000ECDB00BFF9E700006C000020140000202F
:101B900070B504460E46351B002D32DB032D30DCBC
:101BA0001A48007868B300210846FEF79BFC1848E5
:101BB0000088401C00B21649088008460088642846
:101BC00022D10020088013480088401C00B211492F
:101BD00008800846008805280AD101200E490860BF
:101BE00000210846FEF77EFC00200A4908800BE031
:101BF00040F2DC510846FEF775FC002003490870EE
:101C000002E001200149087070BD0000450000207D
:101C1000420000203C0000209401234221F00042B9
:101C2000A2F16052B2F5801F01F0004328BFD2F14B
:101C30007F6C0BD95FEA001C43EAC20242EB507092
:101C400018BF704728BF20F001007047B2F5801F11
:101C5000BCBF184670474FEA410C1CF5001F02D26A
:101C6000084600F0BABC70B500F0CCFA000000895C
:101C7000FFF7F6BF4FF00040A0F58000704700006E
:101C800010B591EA030F48BF83F0004300F11683BB
:101C9000841A71EB030C05D2121943EB0C03001BE1
:101CA00061EB0C01DFF824E14FEA1154A4EB135C63
:101CB0001EEA430F18BF9EEA445F73D023EA0E0367
:101CC000DCF1200E21EA045143F4801332D322FACE
:101CD0000CFE10EB0E0023FA0CFE41EB0E01CCF1D2
:101CE000200E03FA0EFE10EB0E0051F10001B1F5CB
:101CF000801FCCF1200E32D201EB045112FA0EF209
:101D0000BDE8104058BF7047401C38BF5FEA420230
:101D100018BF7047002814BF20F0010041F10001F6
:101D20004FEA410313F5001F38BF7047A1F1C041CE
:101D300000F0B6BA012A43EB0302ACF1200CDCF14F
:101D40001F0E32BF4FF0000E23FA0CF310EB03000E
:101D500041EB0451B4EB115FD0D0A1EB045101F57C
:101D6000801149085FEA300001EB04510ED350F1B5
:101D7000000038BF12FA0EFE08D1BDE81040C9E7D6
:101D8000401C38BF5FEA4202CAD1C3E7BDE8104039
:101D90004FEA410313F5001F38BF7047A1F1C0415E
:101DA00000F07EBA9EEA445F08D011EA5E0FBDE8FB
:101DB000104004BF01F0004100207047BDE8104012
:101DC00070B500F01FFA00BF64FBBE3E0000E0FFEC
:101DD0002DE9C04130B4DFF8A0C23CEA111418BFAD
:101DE0003CEA131400F0EC8081EA03051CEA1114AC
:101DF00044EAD57418BF1CEA131500F0C780A4EBA1
:101E000005044FF0004545EAC12145EAC32341EAF4
:101E1000505143EA525304F17F74994204F500345F
:101E20004FEAC0204FEAC22208BF904200F09C80D7
:101E30004FEA13650FF24016765D4FEA134506FB35
:101E400005F7C7F1807706FB07F74FEAD737A7FBFF
:101E500003687642C8F58038A7FB06CE38BFA8F1E4
:101E6000010807FB08E64FF0000EA6FB028CE6FB1C
:101E700003CEDCF1000CCEF1004E38BFAEF1010E06
:101E8000A6FB0C584FF000074FF00005E6FB0E874D
:101E9000A1FB08C6A0FB07CE16EB0E0645F1000518
:101EA000E1FB076515F1E04E7EBFA4F580345FEAE3
:101EB00046066D4116F1800745F100054FEA1727E8
:101EC0004FEA066647EA0567A6F1DE46B6F1805F8F
:101ED0004FEA15251FD9384624F0010C05EBC471D3
:101EE000BCF1FE6F01EB0C1102D8F0BCBDE8008123
:101EF00024425CBF01F5801E9EEAC47F02D4F0BC80
:101F0000BDE80081244238D4F0BCA1F1C041BDE855
:101F1000004100F0C5B94FEAD22242EA43524FEAEB
:101F2000D323A7FB02864FEAD02040EA415007FBAB
:101F300003661EEA0E0F4FEAD12105FB026658BF69
:101F4000A6EB0056B6EB00564FEA520E4EEAC37EA1
:101F500018EB0E0E56EB530EBDD518EB02085E4182
:101F60007F1C55F10005B6E74FF480154FF00007D0
:101F70004FF000064FF00008ADE7F0BC4FF0000056
:101F800001F1C04101F00041BDE8008111EA0C1FE0
:101F90000CEA131500D00CE013EA0C1F00F02580AA
:101FA0004FF00000F0BC81EA030101F00041BDE800
:101FB0000081F0BCBDE8004181EA030100F070B986
:101FC000F0BCBDE8004170B500F01CF9097EFC3E94
:101FD00000F007B881EA03014FF0000001F0004172
:101FE000704781EA030100F05BB9F0BCBDE8004135
:101FF0004FF0000021497047FFFDFBF9F7F5F4F2BF
:10200000F0EEEDEBE9E8E6E4E3E1E0DEDDDBDAD893
:10201000D7D5D4D3D1D0CFCDCCCBCAC8C7C6C5C4F1
:10202000C2C1C0BFBEBDBCBBBAB9B8B7B6B5B4B308
:10203000B2B1B0AFAEADACABAAA9A8A8A7A6A5A4F3
:10204000A3A3A2A1A09F9F9E9D9C9C9B9A999998B7
:102050009797969595949393929191908F8F8E8E5A
:102060008D8C8C8B8B8A89898888878786858584E7
:1020700084838382828181800000FF070000F87FD3
:1020800010F0004248BF4042B0FA80F310FA03F16A
:102090000AD0C3F11D0303F580634FEA415002EB00
:1020A000035202EBD12170474FF00000704700004F
:1020B000DFF848C170B51CEA111E1EBF1CEA1315DB
:1020C0009EEA0C0F95EA0C0F00F06F8081EA030482
:1020D00023EA4C134EEAD47E21EA4C1141F48011DC
:1020E00043F48013AE44A1FB024CA0FB0365AEF1A8
:1020F0007F7E361955EB0C05A1FB034C4CF1000318
:10210000A0FB021C16EB0C06654153F100030942CB
:1021100018BF46F0010613F4007F0BD14FEA0331DC
:102120004FEA0530340341EA155140EA16506FF08A
:1021300003020AE04FEAC3214FEAC520F40241EA54
:10214000555140EA56506FF0020202EB2E4201EB6D
:10215000025585EACE710AD05FEA440C18BF24F01C
:10216000004450F1000041F1000120EAD47040F237
:10217000FE7C624500D270BDA84214BF4FF080447F
:102180004FF04044002E08BF0024BEF1806FA8BF6E
:10219000A1F1C041BDE8704080F282804FF00000A4
:1021A00001F1C04101F0004170479EEA0C0F0CEABA
:1021B000131518BF95EA0C0F06D04FF0000081EA06
:1021C000030E0EF0004170BD00F01CF88900013EC6
:1021D00000F007B800F009B84FEA430C5FEA5C5C16
:1021E00008D081EA030100F05BB84FEA410C5FEAD6
:1021F0005C5CF6D14FF00000014970470000FF071A
:102200000000F87F0EF1020E2EF0030E5EF8046B54
:10221000364205D4012A43EB030515F5001F12D8F9
:10222000012841EB010C1CF5001F0CD80ED14FEA20
:10223000D17C15F5001F0CEB4C0C0CF1020C08BF07
:102240004CEBD37C04E04FF0080C01E04FEAD37C68
:102250000CEB4C0526FA05F606F00706B6F1040C61
:1022600006D20EEB860CBDE870404CF0010C6047C6
:10227000DFE80CF0090B02024FF000414FF00000C4
:10228000A1F5002170BD19461046012851EB01044B
:1022900018BFD4F5001484BF002001F0004170BDC8
:1022A0000808A0F500114FEA3101704710B591EA16
:1022B000030F48BF83F000433FF5EAAC841A71EB8B
:1022C000030C07D212198CF0004C43EB0C03001BDB
:1022D00061EB0C01DFF8A4E14FEA1154A4EB135CAD
:1022E0001EEA430F18BF9EEA445F00F0B08023EA65
:1022F0006E03524221EA0451C3EB6E0338BF5B1EEA
:10230000DCF1200E25D322FA0CFE10EB0E0043FA6E
:102310000CFE41EB0E01CCF1200E03FA0EFE10EB89
:102320000E0051F10001CCF1200E29D412FA0EF268
:1023300001EB0451BDE8104058BF7047401C1CBF62
:10234000B2F1004F704700280CBF491C20F001007B
:10235000704712EB020E43EB030218BF4FF0010E61
:102360004EEA4202ACF1200CDCF11E0E54D943FAC5
:102370000CFE10EB0E0051F1FF31CCF11E0ED5D545
:102380000EF1010E12FA0EFE404141EB010101EB8C
:10239000445C5FEA5C5C10D910EBDE7001EB045129
:1023A00038BFBEF1004FBDE8104018BF704700288D
:1023B0000CBF491C20F00100704730D24FEAD42CEA
:1023C00011F5001124F400641BD0B1FA81F20B3A2C
:1023D000A41AA41ED2F12003914030FA03F319434A
:1023E000904001EBCC71002C01EB0451BDE8104092
:1023F000A8BF704701F1C0414FF0000001F000415B
:102400007047B0FA80F310FA03F100D110BDE41A5E
:10241000173C4805C90AE4E701EB045110BD491017
:1024200001EB0451BDE810404FEA300002E04FF0EC
:10243000000170474A0008BF0042F8D0B2F5001F03
:1024400028BF704701F000414FF0000070479EEA3E
:10245000445F07D011EA5E0FBDE8104004BF0021C1
:1024600000207047BDE8104070B5FFF7CBFE00BFFD
:1024700040DFF63E83F00041104670470000E0FF69
:1024800043004FEAD30C4FEA3C0C43401FBF4007C8
:102490000CF1605113F0FE4F70471CF0006F03D138
:1024A00000200CF0004170470CF0004343EA5070EC
:1024B00010B540EACC0000F04AF800BF00000092DE
:1024C0004FEA0001FFF7ECBE4FF000414FF0000073
:1024D000A1F500217047000041000B0ED3F19E02D0
:1024E00008D950F400034FEA032323FA02F048BF4F
:1024F0004042704710B500F02AF800BF499224808E
:10250000002070476FF0004282EA20007047000010
:10251000C10DD1F19E0206DB4FEA002343F00043D8
:1025200023FA02F07047004207D54FEA4001B1F1AB
:10253000FE4F02D24FF00000704710B500F007F8D0
:1025400049922480002070476FEA200070470EF106
:10255000020E2EF0030E5EF8044B244204D44FEA20
:102560004102B2F17F4F11D84FEA4003B3F17F4FE0
:102570000CD80ED14FEAD07CB2F17F4F0CEB4C0C53
:102580000CF1020C08BF4CEBD17C04E04FF0080CBE
:1025900001E04FEAD17C0CEB4C0324FA03F404F085
:1025A0000704B4F1040C06D20EEB840CBDE8104015
:1025B0004CF0010C6047DFE80CF0070802024FF016
:1025C0000040A0F5800010BD0846420018BFD2F1BF
:1025D000807288BF00F0004010BDFF2141EAD0505A
:1025E000C00570470000000000000000000000006F
:1025F000000000003F40000000000000000030002C
:10260000400030004000000009000BC03D000BC03E
:102610003D00090018C024407FE0224031800000C6
:10262000180024C01B000D803240018003801C4034
:1026300027401C80074000401000600000000000A0
:10264000000000000000000000001F80204040202B
:102650000000402020401F8000000000090006000C
:102660001F80060009000000040004003F800400F1
:1026700004000000001000600000000000000000E6
:1026800004000400040004000400000000000040F6
:102690000000000000000000002001C0060038001B
:1026A000400000001F802040204020401F8000008C
:1026B000000010403FC000400000000018C0214052
:1026C0002240244018400000108020402440244034
:1026D0001B80000002000D0011003FC001400000FF
:1026E0003C80244024402440238000001F8024405C
:1026F00024403440038000003000200027C0380010
:10270000200000001B802440244024401B80000047
:102710001C0022C0224022401F8000000000000058
:1027200008400000000000000000000004600000FD
:1027300000000000000004000A001100208040405A
:1027400009000900090009000900000000004040DC
:10275000208011000A0004001800200023402400FB
:10276000180000001F802040274029401F40000023
:10277000004007C039000F0001C0004020403FC0AA
:10278000244024401B8000001F8020402040204027
:102790003080000020403FC0204020401F800000CB
:1027A00020403FC024402E4030C0000020403FC0A9
:1027B00024402E00300000000F00108020402240F6
:1027C0003380020020403FC0040004003FC020408E
:1027D000204020403FC020402040000000602020DA
:1027E00020203FC02000200020403FC024400B009C
:1027F00030C0204020403FC020400040004000C08A
:102800003FC03C0003C03C003FC0000020403FC030
:102810000C4023003FC020001F802040204020406B
:102820001F80000020403FC024402400180000000A
:102830001F802140214020E01FA0000020403FC019
:102840002440260019C0004018C0244024402240E3
:1028500031800000300020403FC0204030000000A8
:1028600020003F80004000403F80200020003E00CC
:1028700001C0070038002000380007C03C0007C036
:1028800038000000204039C0060039C02040000058
:102890002000384007C0384020000000304021C0F0
:1028A0002640384020C00000000000007FE04020AB
:1028B00040200000000070000C0003800040000079
:1028C0000000402040207FE00000000000002000C9
:1028D0004000200000000000001000100010001058
:1028E0000010001000000000400000000000000088
:1028F000000002800540054003C0004020003FC0AA
:1029000004400440038000000000038004400440B1
:102910000640000000000380044024403FC0004007
:102920000000038005400540034000000000044013
:102930001FC0244024402000000002E00550055044
:102940000650042020403FC00440040003C0004063
:102950000000044027C000400000000000100010EC
:10296000041027E00000000020403FC001400700A5
:1029700004C00440204020403FC000400040000010
:1029800007C0040007C0040003C00000044007C0E3
:102990000440040003C000400000038004400440E1
:1029A00003800000041007F004500440038000007E
:1029B000000003800440045007F00010044007C0EA
:1029C00002400400040000000000064005400540ED
:1029D00004C00000000004001F800440004000000C
:1029E000040007800040044007C0004004000700C6
:1029F00004C0018006000400060001C0070001C0F9
:102A000006000000044006C0010006C004400000AB
:102A10000410071004E001800600040000000440D8
:102A200005C00640044000000000000004007BE0F8
:102A300040200000000000000000FFF00000000047
:102A4000000040207BE00400000000004000800007
:102A500040002000200040000000000000000000B6
:102A600000000000000000000000000000001FCC7B
:102A7000000C0000000000000000080030006000B2
:102A80000800300060000000022003FC1E2002202D
:102A900003FC1E200220000000000E1811043FFF5E
:102AA00010840C78000000000F0010840F3800C064
:102AB000077818840078000000780F8410C411246F
:102AC0000E9800E400840008080068007000000010
:102AD000000000000000000000000000000007E00F
:102AE00018182004400200000000400220041818BA
:102AF00007E00000000000000240024001800FF0EB
:102B000001800240024000000080008000800FF839
:102B100000800080008000000001000D000E000019
:102B20000000000000000000000000800080008025
:102B300000800080008000800000000C000C00007D
:102B40000000000000000000000000060018006007
:102B50000180060018002000000007F0080810049B
:102B60001004080807F000000000080408041FFC17
:102B7000000400040000000000000E0C10141024DB
:102B8000104411840E0C000000000C1810041104F5
:102B9000110412880C700000000000E003200424DF
:102BA00008241FFC0024000000001F98108411045A
:102BB0001104108810700000000007F0088811044C
:102BC000110418880070000000001C00100010FCA8
:102BD00013001C001000000000000E381144108487
:102BE000108411440E38000000000700088C1044C7
:102BF0001044088807F00000000000000000030CEB
:102C0000030C0000000000000000000000010106AD
:102C100000000000000000000000008001400220D1
:102C200004100808100400000220022002200220E4
:102C300002200220022000000000100408080410F6
:102C4000022001400080000000000E001200100C65
:102C5000106C10800F00000003E00C1813E4142423
:102C600017C4082807D000000004003C03C41C401F
:102C7000074000E4001C000410041FFC11041104B0
:102C800011040E880070000003E00C1810041004FA
:102C9000100410081C10000010041FFC1004100485
:102CA0001004080807F0000010041FFC11041104B0
:102CB00017C410040818000010041FFC11041100B0
:102CC00017C010000800000003E00C1810041004E6
:102CD00010441C780040000010041FFC1084008089
:102CE000008010841FFC10040000100410041FFC5E
:102CF0001004100400000000000300011001100186
:102D00001FFE10001000000010041FFC11040380BF
:102D10001464181C1004000010041FFC10040004AC
:102D200000040004000C000010041FFC1F0000FC45
:102D30001F001FFC1004000010041FFC0C04030003
:102D400000E010181FFC100007F008081004100421
:102D50001004080807F0000010041FFC1084108005
:102D6000108010800F00000007F0081810241024B5
:102D7000101C080A07F2000010041FFC11041100C7
:102D800011C011300E0C000400000E1C1104108440
:102D9000108410441C3800001800100010041FFCA0
:102DA000100410001800000010001FF810040004A8
:102DB000000410041FF8100010001E0011E0001C99
:102DC000007013801C0010001FC0103C00E01F00AA
:102DD00000E0103C1FC000001004180C163401C0A5
:102DE00001C01634180C100410001C00130400FC61
:102DF00013041C00100000000804101C1064108450
:102E000013041C04101800000000000000007FFEE6
:102E10004002400240020000000030000C0003802D
:102E20000060001C0003000000004002400240025D
:102E30007FFE0000000000000000000020004000B5
:102E400040004000200000000001000100010001DE
:102E500000010001000100010000400040002000CE
:102E60000000000000000000000000980124014460
:102E70000144014400FC000410001FFC0088010410
:102E80000104008800700000000000700088010448
:102E900001040104008800000000007000880104A3
:102EA000010411081FFC0004000000F80144014463
:102EB0000144014400C800000000010401040FFCAB
:102EC0001104110411001800000000D60129012985
:102ED000012901C90106000010041FFC0084010043
:102EE0000100010400FC000400000104190419FCA5
:102EF00000040004000000000000000300010101C4
:102F0000190119FE0000000010041FFC00240040FD
:102F100001B4010C010400000000100410041FFCA7
:102F20000004000400000000010401FC0104010091
:102F300001FC0104010000FC010401FC008401000B
:102F40000100010400FC0004000000F80104010479
:102F50000104010400F80000010101FF00850104E3
:102F60000104008800700000000000700088010467
:102F70000104010501FF00010104010401FC0084BA
:102F80000104010001800000000000CC01240124A4
:102F9000012401240198000000000100010007F84D
:102FA0000104010400000000010001F80004000415
:102FB0000004010801FC0004010001800170000C04
:102FC000001001600180010001F0010C003001C01F
:102FD0000030010C01F0010000000104018C0074BC
:102FE0000170018C01040000010101810171000EDA
:102FF000001801600180010000000184010C01340F
:1030000001440184010C00000000000000000000E9
:1030100001003EFC400240020000000000000000F1
:10302000FFFF0000000000000000400240023EFCE4
:10303000010000000000000000006000800080002F
:103040004000400020002000683000080000002000
:103050006C0000006C010008D43000086C000020F7
:10306000BC0C00008801000800A24A040000000017
:103070000000000001020304060708090000000028
:103080000000000000000000000000000000000040
:1030900000000000D0070000010014003C005A00AE
:1030A0007800960000000000000000000001000011
:1030B000000000000000000000010000000000000F
:1030C0000000000000000000000000000000000000
:0430D00000000000FC
:0400000508000131BD
:00000001FF
